:100000000C9439010C946A010C946A010C946A01F5
:100010000C946A010C946A010C946A010C946A01B4
:100020000C946A010C946A010C946A010C946A01A4
:100030000C946A010C946A010C946A010C946A0194
:100040000C946A010C94E7110C946A010C946A01F7
:100050000C946A010C946A010C946A010C941311BB
:100060000C946A010C946A010C946A010C946A0164
:100070000C946A010C946A010C946A010C946A0154
:100080000C94B9110C946A010C946A010C946A01E5
:100090000C946A010C946A010C946A010C946A0134
:1000A0000C946A010C946A010C948B110C946A01F3
:1000B0000C946A010C946A010C946A010C945D1111
:1000C0000C946A010C946A010C946A010C946A0104
:1000D0000C946A010C946A010C946A010C946A01F4
:1000E0000C946A0105A84CCDB2D44EB93836A90299
:1000F0000C50B9918688083CA6AAAA2ABE00000026
:10010000803F0C945F020C9444040C9470020C9495
:1001100088020C9476020C9445020C94AB030C9468
:100120007E020C9440020C9463020C945A0E0C94C0
:100130007A020C9466020C94D20D0C945B020C941F
:1001400092020C94D4030C9456030C9457020C9412
:1001500096020C946C020C9484020C9433130C944D
:10016000FD030C948C020C943C0B00000A0B02095A
:100170000C0D0E0807030401000000000000000041
:10018000000000000000000000000000000000006F
:10019000000000000000121110000000000000002C
:1001A000000000000000000000000000000000004F
:1001B00000002200250028002B002E003100340012
:1001C00002010000050108010B01000021002400CC
:1001D00027002A002D003000330001010000040137
:1001E00007010A01050505050705080808080202B8
:1001F00002020A0A080804040404010101010101C1
:1002000001010303030303030303040707070C0CA3
:100210000C0C0C0C0C0C020202020606060606066A
:1002200006060B0B0B0B0B0B0B0B0102102020080F
:100230000810204010204080020102010804020141
:1002400001020408102040808040201008040201B0
:100250008004020180402010080402010804020109
:100260000102040810204080010204081020408090
:10027000331311241FBECFEFD1E2DEBFCDBF00E0AC
:100280000CBF12E0A0E0B2E0ECE9FBE200E00BBF43
:1002900002C007900D92A431B107D9F720E2A4E182
:1002A000B2E001C01D92AC34B207E1F711E0C9E33E
:1002B000D1E000E006C021970109802FFE010E94D5
:1002C000C415C833D10780E00807A9F70E945D1262
:1002D0000C94CC150C940000CF93DF93DC018C912F
:1002E000803308F06DC0CB01FB01E65DFD4F24912A
:1002F0008C519E4FFC018491882399F090E0880FE7
:10030000991FFC01E653FE4FC591D491FC01E055C5
:10031000FE4F859194918FB7F894E881E22BE883A2
:100320008FBF8C91282F30E0F901EE0FFF1FE20FF5
:10033000F31FE454F04E962F9F736081607C692B0D
:10034000608311961C92119712961C9212972CE0C2
:10035000622F0E94B815829FB001112430E020E086
:10036000AB01420F531FFA01EE0FFF1FE40FF51F01
:10037000E454F04E908196FD16C02F5F3F4F2C3015
:10038000310571F7813001F51092800082E0809391
:1003900081001092850010928400B19A80916F00C4
:1003A000826080936F00EC918E2F90E0FC01EE0F45
:1003B000FF1FE80FF91FE454F04E808180648083B2
:1003C0008C91DF91CF910895823061F4109290006A
:1003D00080939100109295001092940088BB8093B6
:1003E0007100E1CF833069F41092A00082E0809325
:1003F000A1001092A5001092A40089BB8093720006
:10040000D2CF8111D0CF1092200182E080932101C0
:1004100010922501109224018ABB80937300C3CFF0
:10042000282F30E0F901E659FE4F9491F901E65D7D
:10043000FD4F44912C513E4FF9012491222309F4A0
:1004400035C0992311F191509231F8F4E92FF0E081
:100450008827E25DFD4F8F4F0C94C4155F02630245
:10046000400257025B02450266026C02700276028D
:100470007A027E028402880245028C02920296026F
:10048000809180008F7780938000E22FF0E0EE0F64
:10049000FF1FE055FE4FA591B4918FB7F894EC91F2
:1004A000611148C040954E234C938FBF08958091B1
:1004B00080008F7DE8CF80918000877FE4CF84B576
:1004C0008F7784BDE2CF84B58F7DFBCF8091B00064
:1004D0008F778093B000D9CF8091B0008F7DF9CF16
:1004E000809190008F7780939000CFCF8091900083
:1004F0008F7DF9CF80919000877FF5CF8091A0000C
:100500008F778093A000C1CF8091A0008F7DF9CF1D
:100510008091A000877FF5CF809120018F77809315
:100520002001B3CF809120018F7DF9CF80912001F0
:10053000877FF5CF4E2BB8CFAF92BF92CF92DF928D
:10054000EF92FF920F931F93CF93DF936B017A018A
:10055000EC01CB5EDD4F28813CE0389F8001399F64
:10056000100D1124A0901402B12C27FF1FC0FB0115
:100570001182108288818F5F888388819801280F7B
:10058000311D87FD3A95F6012A153B051CF488813B
:100590008C30C4F180819181049680349C4908F4A8
:1005A00073C0F60180819181049670C088819801A2
:1005B000280F311D87FD3A952A153B05DCF6888109
:1005C000A801480F511D87FD5A95FA01EE0FFF1F34
:1005D000E40FF51FE454F04E808186FFCBCF888175
:1005E000F801E80FF11D87FDFA95CF01EE0FFF1F0F
:1005F000E80FF91FE454F04E808160E08F730E9491
:100600001002B8CF808191812881A801420F511D2D
:1006100027FD5A959A01FA01EE0FFF1FE20FF31F13
:10062000E454F04E21813281820F931FF7019183B0
:10063000808388819801280F311D87FD3A95F90143
:10064000EE0FFF1FE20FF31FE454F04E808186FF90
:1006500022C08881080F111D87FD1A95F801EE0F41
:10066000FF1FE00FF11FE454F04E808161E08F73B3
:10067000DF91CF911F910F91FF90EF90DF90CF907E
:10068000BF90AF900C94100280E49CE9F701918335
:1006900080838FEF8883DF91CF911F910F91FF901F
:1006A000EF90DF90CF90BF90AF900895CF92DF9200
:1006B000EF92FF920F931F93CF93DF93CDB7DEB7E7
:1006C0002C970FB6F894DEBF0FBECDBFC982DA8279
:1006D000EB82FC820D831E832F83388749875A87DC
:1006E0006B877C87DC014D915C91EDB7FEB73C9741
:1006F0000FB6F894FEBF0FBEEDBFADB7BEB71196F3
:100700002CE0FC013E9601900D922A95E1F7DA016A
:10071000ED91FC91C980DA80EB80FC800D811E8117
:100720002F81388549855A856B857C8519950FB64B
:10073000F894DEBF0FBECDBF2C960FB6F894DEBF87
:100740000FBECDBFDF91CF911F910F91FF90EF9022
:10075000DF90CF900895CF92DF92EF92FF920F93A8
:100760001F93FB01EE54FF4F44A555A566A577A541
:10077000048D158D268D378DC484D584E684F78449
:10078000FC01C082D182E282F38204831583268336
:10079000378340875187628773871F910F91FF903E
:1007A000EF90DF90CF900895CF92DF92EF92FF927B
:1007B0000F931F93FB01EE58FF4F44A555A566A567
:1007C00077A5048D158D268D378DC484D584E68458
:1007D000F784FC01C082D182E282F3820483158314
:1007E0002683378340875187628773871F910F91D4
:1007F000FF90EF90DF90CF900895EF92FF920F93CC
:100800001F93CF93DF937C0124EFE20EF11CF701DD
:10081000A081B181A617B70781F1EB018C01109778
:1008200051F0ED91FC9111970280F381E02D70E081
:1008300060E0CD011995D701CD93DC93E881F98172
:100840000680F781E02DCE011995D701ED91FC913D
:10085000EE50FF4F808191818017910771F0E88100
:10086000F9810280F381E02DB801CE01DF91CF91B3
:100870001F910F91FF90EF901994DF91CF911F91ED
:100880000F91FF90EF900895EF92FF920F931F93B7
:10089000CF93DF937C0122EFE20EF11CF701A081E0
:1008A000B181A617B70749F18B01EC01109751F000
:1008B000ED91FC9111970480F581E02D70E060E0EE
:1008C000CD011995D7010D931C93E881F98106801C
:1008D000F781E02DCE011995F70180819181DC012E
:1008E000ED91FC910480F581E02DBE01DF91CF9167
:1008F0001F910F91FF90EF901994DF91CF911F916D
:100900000F91FF90EF900895EF92FF920F931F9336
:10091000CF93DF93EC017A01890180519E4F0E94B1
:100920006C01B701CE0183519D4F0E946C01B8014B
:10093000CE0186519C4FDF91CF911F910F91FF9077
:10094000EF900C946C01CF92DF92EF92FF92CF93D5
:10095000DF93EC01CB01BA016AA77BA78CA79DA707
:1009600023E333E345E652E40E94FA140E94341470
:100970009B01C650DF4F603242E07407CCF52981FD
:10098000E8E8CE2ED12CC21AD10827FDD394CC0C86
:10099000DD1CCC0CDD1C0D2C000CEE08FF084A8180
:1009A00028E532E0241B310947FD3395220F331F20
:1009B000220F331F032E000C440B550B2C193D093D
:1009C0004E095F09DB01653B710514F0A4EBB0E053
:1009D000B7FF02C0B0E0A0E00E94891324EB30E032
:1009E00040E050E00E945F132C0D3D1D4E1D5F1D29
:1009F000E881E03378F5898148E850E0481B5109E7
:100A000087FD5395440F551F440F551F2417350775
:100A10007CF08A8148E552E0481B510987FD5395D7
:100A2000440F551F440F551F241735070CF4A90117
:100A300042505109440F551F2FB7F8948E2F90E064
:100A4000FC01EE0FFF1FE80FF91FE454F04E528334
:100A500041832FBFDF91CF91FF90EF90DF90CF9038
:100A60000895FC0180E090E0A0E8BFE380839183DB
:100A7000A283B38314821582168217821086118690
:100A8000128613861486158616861786108A118A92
:100A9000128A138A848B958BA68BB78B108E118E3E
:100AA000128E138E148E158E168E178E10A211A212
:100AB00012A213A214A215A216A217A280A791A790
:100AC000A2A7B3A714A615A616A617A610AA11AA20
:100AD00012AA13AA14AA15AA16AA17AA10AE11AE22
:100AE00012AE13AE84AF95AFA6AFB7AF08952F92F5
:100AF0003F924F925F926F927F928F929F92AF92AE
:100B0000BF92CF92DF92EF92FF920F931F93CF93FA
:100B1000DF93CDB7DEB7C854D1090FB6F894DEBF66
:100B20000FBECDBF1C018B0127965FAF4EAF27973D
:100B30000E943105D8018D909D90AD90BC90279674
:100B4000AEADBFAD27978D919D910D90BC91A02D1D
:100B500089879A87AB87BC87F801C480D580E680F7
:100B6000F7802796AEADBFAD279750968D919D919A
:100B70000D90BC91A02D8D879E87AF87B88B808507
:100B80009185A285B38589839A83AB83BC8327969D
:100B9000AEADBFAD279790968D919D910D90BC9174
:100BA000A02D898B9A8BAB8BBC8B84859585A68574
:100BB000B7858D839E83AF83B8872796AEADBFADD3
:100BC0002797D0968D919D910D90BC91A02D8D8BE6
:100BD0009E8BAF8BB88F29853A854B855C85C50187
:100BE000B4010E94FA142B013C012D853E854F85EE
:100BF0005889C701B6010E94FA149B01AC01C301D8
:100C0000B2010E94C3132B013C0129893A894B8907
:100C10005C8969817A818B819C810E94FA149B0195
:100C2000AC01C301B2010E94C3132B013C012D8909
:100C30003E894F89588D6D817E818F8198850E9474
:100C4000FA149B01AC01C301B2010E94C313F1016C
:100C500060837183828393832796AEADBFAD279760
:100C600014968D919D910D90BC91A02D898F9A8F96
:100C7000AB8FBC8F2796AEADBFAD279754968D91A5
:100C80009D910D90BC91A02D8D8F9E8FAF8FB8A39D
:100C90002796AEADBFAD279794968D919D910D90FF
:100CA000BC91A02D89A39AA3ABA3BCA32796AEADFC
:100CB000BFAD2797D4968D919D910D90BC91A02D9D
:100CC0008DA39EA3AFA3B8A7298D3A8D4B8D5C8DC4
:100CD000C501B4010E94FA142B013C012D8D3E8DFB
:100CE0004F8D58A1C701B6010E94FA149B01AC01B7
:100CF000C301B2010E94C3132B013C0129A13AA1F7
:100D00004BA15CA169817A818B819C810E94FA143C
:100D10009B01AC01C301B2010E94C3132B013C0132
:100D20002DA13EA14FA158A56D817E818F8198850F
:100D30000E94FA149B01AC01C301B2010E94C313CB
:100D4000F10164837583868397832796AEADBFAD2B
:100D5000279718968D919D910D90BC91A02D89A7F4
:100D60009AA7ABA7BCA72796AEADBFAD279758965D
:100D70008D919D910D90BC91A02D8DA79EA7AFA7A1
:100D8000B8AB2796AEADBFAD279798968D919D9144
:100D90000D90BC91A02D89AB9AABABABBCAB2796A9
:100DA000AEADBFAD2797D8968D919D910D90BC911A
:100DB000A02D8DAB9EABAFABB8AF29A53AA54BA587
:100DC0005CA5C501B4010E94FA142B013C012DA5BC
:100DD0003EA54FA558A9C701B6010E94FA149B0170
:100DE000AC01C301B2010E94C3132B013C0129A92C
:100DF0003AA94BA95CA969817A818B819C810E9467
:100E0000FA149B01AC01C301B2010E94C3132B0170
:100E10003C012DA93EA94FA958AD6D817E818F81DE
:100E200098850E94FA149B01AC01C301B2010E9493
:100E3000C313F10160877187828793872796AEADD0
:100E4000BFAD27971C968D919D910D90BC91A02DC3
:100E500089AF9AAFABAFBCAF2796AEADBFAD27970A
:100E60005C968D919D910D90BC91A02D21968CAF9B
:100E70009DAFAEAFBFAF21972796AEADBFAD279761
:100E80009C968D919D910D90BC91A02D25968CAF37
:100E90009DAFAEAFBFAF25972796AEADBFAD27973D
:100EA000DC968D919D910D90BC91A02D29968CAFD3
:100EB0009DAFAEAFBFAF299729AD3AAD4BAD5CAD9D
:100EC000C501B4010E94FA144B015C0121962CADBE
:100ED0003DAD4EAD5FAD2197C701B6010E94FA143A
:100EE0009B01AC01C501B4010E94C3136B017C01DD
:100EF00025962CAD3DAD4EAD5FAD259769817A81CC
:100F00008B819C810E94FA149B01AC01C701B60140
:100F10000E94C3136B017C0129962CAD3DAD4EADF3
:100F20005FAD29976D817E818F8198850E94FA142B
:100F30009B01AC01C701B6010E94C313F101648794
:100F4000758786879787D80150968D909D90AD9034
:100F5000BC9053975496CD90DD90ED90FC905797B0
:100F600058968D919D910D90BC91A02D89839A8367
:100F7000AB83BC83D8015C968D919D910D90BC9103
:100F8000A02D8D839E83AF83B887A50194016985C9
:100F90007A858B859C850E94FA142B013C01A70160
:100FA00096016D857E858F8598890E94FA149B0134
:100FB000AC01C301B2010E94C3132B013C01298182
:100FC0003A814B815C8169897A898B899C890E94ED
:100FD000FA149B01AC01C301B2010E94C3132B019F
:100FE0003C012D813E814F8158856D897E898F8995
:100FF000988D0E94FA149B01AC01C301B2010E94BA
:10100000C313F101608B718B828B938BA5019401CB
:10101000698D7A8D8B8D9C8D0E94FA142B013C0179
:10102000A70196016D8D7E8D8F8D98A10E94FA1477
:101030009B01AC01C301B2010E94C3132B013C010F
:1010400029813A814B815C8169A17AA18BA19CA104
:101050000E94FA149B01AC01C301B2010E94C313A8
:101060002B013C012D813E814F8158856DA17EA1D0
:101070008FA198A50E94FA149B01AC01C301B20193
:101080000E94C313D10154966D937D938D939C93CD
:101090005797A501940169A57AA58BA59CA50E94E7
:1010A000FA142B013C01A70196016DA57EA58FA521
:1010B00098A90E94FA149B01AC01C301B2010E94DD
:1010C000C3132B013C0129813A814B815C8169A9C1
:1010D0007AA98BA99CA90E94FA149B01AC01C301B7
:1010E000B2010E94C3132B013C012D813E814F812F
:1010F00058856DA97EA98FA998AD0E94FA149B010D
:10110000AC01C301B2010E94C313F101608F718F62
:10111000828F938FA501940169AD7AAD8BAD9CADA3
:101120000E94FA144B015C01A701960121966CAD57
:101130007DAD8EAD9FAD21970E94FA149B01AC014D
:10114000C501B4010E94C3136B017C0129813A815E
:101150004B815C8125966CAD7DAD8EAD9FAD2597A5
:101160000E94FA149B01AC01C701B6010E94C3138F
:101170006B017C012D813E814F81588529966CAD94
:101180007DAD8EAD9FAD29970E94FA149B01AC01F5
:10119000C701B6010E94C313D1015C966D937D9384
:1011A0008D939C935F97F80180A091A0A2A0B3A01B
:1011B000C4A0D5A0E6A0F7A080A591A5A2A5B3A53F
:1011C00089839A83AB83BC8384A595A5A6A5B7A57F
:1011D0008D839E83AF83B887A501940169857A8545
:1011E0008B859C850E94FA142B013C01A701960176
:1011F0006D857E858F8598890E94FA149B01AC01CC
:10120000C301B2010E94C3132B013C0129813A8121
:101210004B815C8169897A898B899C890E94FA1447
:101220009B01AC01C301B2010E94C3132B013C011D
:101230002D813E814F8158856D897E898F89988D5A
:101240000E94FA149B01AC01C301B2010E94C313B6
:10125000F10160A371A382A393A3A5019401698DF9
:101260007A8D8B8D9C8D0E94FA142B013C01A70175
:1012700096016D8D7E8D8F8D98A10E94FA149B0131
:10128000AC01C301B2010E94C3132B013C012981AF
:101290003A814B815C8169A17AA18BA19CA10E94BA
:1012A000FA149B01AC01C301B2010E94C3132B01CC
:1012B0003C012D813E814F8158856DA17EA18FA17A
:1012C00098A50E94FA149B01AC01C301B2010E94CF
:1012D000C313D10194966D937D938D939C939797AF
:1012E000A501940169A57AA58BA59CA50E94FA1475
:1012F0002B013C01A70196016DA57EA58FA598A99C
:101300000E94FA149B01AC01C301B2010E94C313F5
:101310002B013C0129813A814B815C8169A97AA921
:101320008BA99CA90E94FA149B01AC01C301B201D4
:101330000E94C3132B013C012D813E814F815885B2
:101340006DA97EA98FA998AD0E94FA149B01AC01EA
:10135000C301B2010E94C313F10160A771A782A764
:1013600093A7A501940169AD7AAD8BAD9CAD0E94A8
:10137000FA144B015C01A701960121966CAD7DAD7D
:101380008EAD9FAD21970E94FA149B01AC01C5015F
:10139000B4010E94C3136B017C0129813A814B8106
:1013A0005C8125966CAD7DAD8EAD9FAD25970E947D
:1013B000FA149B01AC01C701B6010E94C3136B0173
:1013C0007C012D813E814F81588529966CAD7DAD84
:1013D0008EAD9FAD29970E94FA149B01AC01C70105
:1013E000B6010E94C313D1019C966D937D938D939A
:1013F0009C939F97F80180A891A8A2A8B3A884A95C
:1014000095A9A6A9B7A989839A83AB83BC8380AD2C
:1014100091ADA2ADB3AD8D839E83AF83B887C4ACCD
:10142000D5ACE6ACF7ACA501940169857A858B85CE
:101430009C850E94FA142B013C0129813A814B8141
:101440005C816D857E858F8598890E94FA149B0149
:10145000AC01C301B2010E94C3132B013C012D81D9
:101460003E814F81588569897A898B899C890E9440
:10147000FA149B01AC01C301B2010E94C3132B01FA
:101480003C01A70196016D897E898F89988D0E9404
:10149000FA149B01AC01C301B2010E94C313D10134
:1014A000D0966D937D938D939C93D397A5019401D2
:1014B000698D7A8D8B8D9C8D0E94FA142B013C01D5
:1014C00029813A814B815C816D8D7E8D8F8D98A1B4
:1014D0000E94FA149B01AC01C301B2010E94C31324
:1014E0002B013C012D813E814F81588569A17AA154
:1014F0008BA19CA10E94FA149B01AC01C301B20113
:101500000E94C3132B013C01A70196016DA17EA18E
:101510008FA198A50E94FA149B01AC01C301B201EE
:101520000E94C313F10164AB75AB86AB97ABA50109
:10153000940169A57AA58BA59CA50E94FA142B019C
:101540003C0129813A814B815C816DA57EA58FA5E7
:1015500098A90E94FA149B01AC01C301B2010E9438
:10156000C3132B013C012D813E814F81588569A910
:101570007AA98BA99CA90E94FA149B01AC01C30112
:10158000B2010E94C3132B013C01A70196016DA972
:101590007EA98FA998AD0E94FA149B01AC01C301EA
:1015A000B2010E94C313D101D8966D937D938D93A0
:1015B0009C93DB97A501940169AD7AAD8BAD9CAD91
:1015C0000E94FA144B015C0129813A814B815C81B4
:1015D00021966CAD7DAD8EAD9FAD21970E94FA1422
:1015E0009B01AC01C501B4010E94C3134B015C0116
:1015F0002D813E814F81588525966CAD7DAD8EAD98
:101600009FAD25970E94FA149B01AC01C501B4015E
:101610000E94C3134B015C01A701960129966CAD92
:101620007DAD8EAD9FAD29970E94FA149B01AC0150
:10163000C501B4010E94C313F10164AF75AF86AF59
:1016400097AFC101C85BDF4F0FB6F894DEBF0FBE86
:10165000CDBFDF91CF911F910F91FF90EF90DF9061
:10166000CF90BF90AF909F908F907F906F905F9042
:101670004F903F902F900895CF92DF92EF92FF927C
:101680000F931F93CF93DF93CDB7DEB7C054D1092B
:101690000FB6F894DEBF0FBECDBF8C01AB014E5428
:1016A0005F4FBE01645B7F4FCE0101960E947705BC
:1016B0008DA59EA5AFA5B8A94D8D5E8D6F8D78A126
:1016C000CD84DE84EF84F888F801C082D182E28282
:1016D000F382448355836683778380879187A287CB
:1016E000B387C801C05CDF4F0FB6F894DEBF0FBEF2
:1016F000CDBFDF91CF911F910F91FF90EF90DF90C1
:10170000CF9008952F923F924F925F926F927F9267
:101710008F929F92AF92BF92CF92DF92EF92FF9201
:101720000F931F93CF93DF93CDB7DEB7C256D10986
:101730000FB6F894DEBF0FBECDBF1C01A3967FAFDE
:101740006EAFA39769017A01CA01B9010E942F14F3
:1017500025966CAF7DAF8EAF9FAF2597C701B601C1
:101760000E9467154B015C0125962CAD3DAD4EAD39
:101770005FAD259760E070E080E89FE30E94C213B0
:1017800061966CAF7DAF8EAF9FAF6197D8018D91A1
:101790009D910D90BC91A02D29968CAF9DAFAEAFC1
:1017A000BFAF2997D80114968D919D910D90BC9152
:1017B000A02D2D968CAF9DAFAEAFBFAF2D97F8018A
:1017C000C084D184E284F38429962CAD3DAD4EAD26
:1017D0005FAD299761966CAD7DAD8EAD9FAD619784
:1017E0000E94FA1465966CAF7DAF8EAF9FAF659780
:1017F0002D962CAD3DAD4EAD5FAD2D9761966CAD88
:101800007DAD8EAD9FAD61970E94FA1469966CAF65
:101810007DAF8EAF9FAF6997CE0101960E943105D3
:1018200069962CAD3DAD4EAD5FAD6997C701B60170
:101830000E94FA142B013C0129962CAD3DAD4EAD12
:101840005FAD2997C501B4010E94FA149B01AC0158
:10185000C301B2010E94C3136D966CAF7DAF8EAF12
:101860009FAF6D9765962CAD3DAD4EAD5FAD659765
:10187000C701B6010E94FA142B013C012D962CAD34
:101880003DAD4EAD5FAD2D97C501B4010E94FA1478
:10189000A1966CAF7DAF8EAF9FAFA197A7019601C8
:1018A000C501B4010E94FA144B015C0165962CAD90
:1018B0003DAD4EAD5FAD659729966CAD7DAD8EADFE
:1018C0009FAD29970E94FA1425962CAD3DAD4EADE3
:1018D0005FAD25970E94C31369837A838B839C83B2
:1018E00065962CAD3DAD4EAD5FAD65972D966CAD5B
:1018F0007DAD8EAD9FAD2D970E94FA14A501940188
:101900000E94C2136D837E838F839887A1962CAD2E
:101910003DAD4EAD5FADA197C301B2010E94C313AF
:1019200069877A878B879C871D861E861F86188A03
:1019300069962CAD3DAD4EAD5FAD699729966CAD06
:101940007DAD8EAD9FAD29970E94FA14A50194013B
:101950000E94C313698B7A8B8B8B9C8B69962CAD01
:101960003DAD4EAD5FAD69972D966CAD7DAD8EAD45
:101970009FAD2D970E94FA1425962CAD3DAD4EAD2E
:101980005FAD25970E94C3136D8B7E8B8F8B988FD5
:101990006D968CAD9DADAEADBFAD6D97898F9A8FB5
:1019A000AB8FBC8F1D8E1E8E1F8E18A2A1962CADE4
:1019B0003DAD4EAD5FADA197C301B2010E94C21310
:1019C00069A37AA38BA39CA36D968CAD9DADAEADA0
:1019D000BFAD6D978DA39EA3AFA3B8A7A701960136
:1019E00061966CAD7DAD8EAD9FAD61970E94FA148E
:1019F000A70196010E94FA1425962CAD3DAD4EAD7F
:101A00005FAD25970E94C31369A77AA78BA79CA7F0
:101A10001DA61EA61FA618AA19AA1AAA1BAA1CAAA6
:101A20001DAA1EAA1FAA18AE19AE1AAE1BAE1CAE76
:101A300080E090E0A0E8BFE321968CAF9DAFAEAF11
:101A4000BFAF2197AE014F5F5F4FA3966EAD7FADE5
:101A5000A397C1010E947705C101CE59DF4F0FB690
:101A6000F894DEBF0FBECDBFDF91CF911F910F91D4
:101A7000FF90EF90DF90CF90BF90AF909F908F90AE
:101A80007F906F905F904F903F902F9008958F922E
:101A90009F92AF92BF92CF92DF92EF92FF920F93FD
:101AA0001F93CF93DF93CDB7DEB7CC54D1090FB6D8
:101AB000F894DEBF0FBECDBF7C016B010E943105E3
:101AC000812C912C80E8A82E8FE3B82E25968CAE21
:101AD0009DAEAEAEBFAE259729961CAE1DAE1EAE16
:101AE0001FAE29972D961CAE1DAE1EAE1FAE2D97B4
:101AF000F60120813181428153818E010F5B1F4F9E
:101B0000B701CE0101960E94820B25961CAE1DAE38
:101B10001EAE1FAE259729968CAE9DAEAEAEBFAE63
:101B200029972D961CAE1DAE1EAE1FAE2D97F60149
:101B30002481358146815781B701CE0101960E94EB
:101B4000820B25961CAE1DAE1EAE1FAE25972996A4
:101B50001CAE1DAE1EAE1FAE29972D968CAE9DAE4F
:101B6000AEAEBFAE2D97F6012085318542855385F7
:101B7000B701CE0101960E94820BC701C45BDF4F03
:101B80000FB6F894DEBF0FBECDBFDF91CF911F918E
:101B90000F91FF90EF90DF90CF90BF90AF909F900C
:101BA0008F900895CF92DF92EF92FF920F931F9341
:101BB000CF93DF93CDB7DEB7C05CD1090FB6F894F1
:101BC000DEBF0FBECDBF8C017C0182E7E80EF11CA9
:101BD00080E4F801F296D70101900D928A95E1F721
:101BE000CE0101960E943105F801828D938DA48D5E
:101BF000B58D8D879E87AF87B88B868D978DA0A179
:101C0000B1A18D8F9E8FAF8FB8A382A193A1A4A104
:101C1000B5A18DA79EA7AFA7B8ABAE014F5F5F4F31
:101C2000B701CE018F5B9F4F0E947705B8016A5DB7
:101C30007F4FCE0101960E94470DF801EE50FF4FF5
:101C400060817181C8018E549F4F6C0180E4F7015F
:101C50006115710561F06E547F4FA701CE018F575A
:101C60009F4F0E94770580E4FE01EF57FF4FD6019A
:101C700001900D928A95E1F7F801EC50FF4F8081B9
:101C80009181009739F0DC01ED91FC910680F7819C
:101C9000E02D1995C054DF4F0FB6F894DEBF0FBE8C
:101CA000CDBFDF91CF911F910F91FF90EF90DF900B
:101CB000CF9008952F923F924F925F926F927F92B2
:101CC0008F929F92AF92BF92CF92DF92EF92FF924C
:101CD0000F931F93CF93DF93CDB7DEB7CC5FD109BE
:101CE0000FB6F894DEBF0FBECDBF5C01CF57DF4FFC
:101CF000C882C158D040CE57DF4FD882C258D0409A
:101D0000CD57DF4FE882C358D040CC57DF4FF88221
:101D1000C458D040CB57DF4F0883C558D040CA576E
:101D2000DF4F1883C658D040C957DF4F2883C758A4
:101D3000D040C857DF4F3883C858D040C757DF4F0F
:101D40004883C958D040C657DF4F5883CA58D0403F
:101D5000C557DF4F6883CB58D040C457DF4F7883D7
:101D6000CC58D0408CE0FE01EF57FF4FD5011296C2
:101D700001900D928A95E1F78CE0FE01EE5EFE4F38
:101D8000D5011E9601900D928A95E1F7CE018F5BE9
:101D90009F4F0E943105CF57DF4F88819981AA81DB
:101DA000BB81C158D04061968CAF9DAFAEAFBFAF85
:101DB0006197CB57DF4F88819981AA81BB81C55834
:101DC000D040A1968CAF9DAFAEAFBFAFA197C75724
:101DD000DF4F88819981AA81BB81C958D040E196A3
:101DE0008CAF9DAFAEAFBFAFE19785010E5C1F4FCB
:101DF000AE014F5B5F4FB801CE0101960E9477059F
:101E000080E4FE013196D80101900D928A95E1F7A8
:101E1000BE016E5E7E4FCE0183579F4F0E94470DDD
:101E200080E4FE01E357FF4FD80101900D928A959F
:101E3000E1F7D501D2962D903D904D905C90D597CD
:101E4000D6966D907D908D909C90D997CF52DF4F14
:101E5000688279828A829B82C15DD040DA966D90D9
:101E60007D908D909C90DD97CB50DF4F688279827A
:101E70008A829B82C55FD040F501FE9660807180AA
:101E800082809380CB52DF4F688279828A829B82E4
:101E9000C55DD040349680819181A281B381C752C3
:101EA000DF4F88839983AA83BB83C95DD040349672
:101EB0006080718082809380C352DF4F6882798214
:101EC0008A829B82CD5DD040349680819181A281AF
:101ED000B381CF51DF4F88839983AA83BB83C15ECF
:101EE000D04034966080718082809380CB51DF4FE8
:101EF000688279828A829B82C55ED04034968081D6
:101F00009181A281B381C751DF4F88839983AA83CE
:101F1000BB83C95ED040349660807180828093809C
:101F2000C351DF4F688279828A829B82CD5ED04026
:101F3000349680819181A281B381CF50DF4F888315
:101F40009983AA83BB83C15FD0403496608071803F
:101F500082809380C750DF4F688279828A829B8219
:101F6000C95FD0403496C080D180E280F38034963F
:101F700000811181228133813496408151816281B7
:101F80007381349680819181A281B38134962082BD
:101F9000318242825382CF52DF4F688079808A80BB
:101FA0009B80C15DD0406482758286829782CB50CF
:101FB000DF4F688079808A809B80C55FD0406086D3
:101FC000718682869386CB52DF4F688079808A80C3
:101FD0009B80C55DD0406486758686869786C7528D
:101FE000DF4F688079808A809B80C95DD040608A9D
:101FF000718A828A938AC352DF4F688079808A808F
:102000009B80CD5DD040648A758A868A978ACF513D
:10201000DF4F688079808A809B80C15ED040608E6F
:10202000718E828E938ECB51DF4F688079808A804B
:102030009B80C55ED040648E758E868E978EC7510C
:10204000DF4F688079808A809B80C95ED04060A223
:1020500071A282A293A2C351DF4F688079808A80E7
:102060009B80CD5ED04064A275A286A297A2CF507D
:10207000DF4F688079808A809B80C15FD04060A6F6
:1020800071A682A693A6C750DF4F688079808A80A8
:102090009B80C95FD04064A675A686A697A6C0AAF5
:1020A000D1AAE2AAF3AA04AB15AB26AB37AB40AF7B
:1020B00051AF62AF73AF84AF95AFA6AFB7AFE05C7F
:1020C000FF4F2082318242825382CF52DF4F88807D
:1020D0009980AA80BB80C15DD04084829582A6820F
:1020E000B782CB50DF4F688079808A809B80C55F44
:1020F000D0406086718682869386CB52DF4F88807F
:102100009980AA80BB80C55DD04084869586A686CE
:10211000B786C752DF4F688079808A809B80C95D0F
:10212000D040608A718A828A938AC352DF4F888046
:102130009980AA80BB80CD5DD040848A958AA68A8A
:10214000B78ACF51DF4F688079808A809B80C15EDB
:10215000D040608E718E828E938ECB51DF4F8880FF
:102160009980AA80BB80C55ED040848E958EA68E55
:10217000B78EC751DF4F688079808A809B80C95EA7
:10218000D04060A271A282A293A2C351DF4F888087
:102190009980AA80BB80CD5ED04084A295A2A6A2E1
:1021A000B7A2CF50DF4F688079808A809B80C15F63
:1021B000D04060A671A682A693A6C750DF4F888044
:1021C0009980AA80BB80C95FD04084A695A6A6A6A8
:1021D000B7A6C0AAD1AAE2AAF3AA04AB15AB26AB54
:1021E00037AB40AF51AF62AF73AF84AF95AFA6AF1F
:1021F000B7AFC450DF4F0FB6F894DEBF0FBECDBFF0
:10220000DF91CF911F910F91FF90EF90DF90CF90D2
:10221000BF90AF909F908F907F906F905F904F9006
:102220003F902F9008951F920F920FB60F92112496
:102230002F933F938F939F93AF93BF938091B81F3A
:102240009091B91FA091BA1FB091BB1F3091B71FD9
:1022500023E0230F2D3758F50196A11DB11D2093C2
:10226000B71F8093B81F9093B91FA093BA1FB09364
:10227000BB1F8091B31F9091B41FA091B51FB09167
:10228000B61F0196A11DB11D8093B31F9093B41F7B
:10229000A093B51FB093B61FBF91AF919F918F913F
:1022A0003F912F910F900FBE0F901F90189526E829
:1022B000230F0296A11DB11DD2CF1F920F920FB610
:1022C0000F9211240BB60F922F933F934F935F936E
:1022D0006F937F938F939F93AF93BF93EF93FF93EE
:1022E00048E251E064E271E090E080E00E949C02EC
:1022F000FF91EF91BF91AF919F918F917F916F91DE
:102300005F914F913F912F910F900BBE0F900FBE99
:102310000F901F9018951F920F920FB60F921124D5
:102320000BB60F922F933F934F935F936F937F93CF
:102330008F939F93AF93BF93EF93FF9348EA50E03F
:1023400064EA70E083E090E00E949C02FF91EF91CC
:10235000BF91AF919F918F917F916F915F914F91BD
:102360003F912F910F900BBE0F900FBE0F901F90BB
:1023700018951F920F920FB60F9211240BB60F9261
:102380002F933F934F935F936F937F938F939F937D
:10239000AF93BF93EF93FF9348E950E064E970E097
:1023A00082E090E00E949C02FF91EF91BF91AF917B
:1023B0009F918F917F916F915F914F913F912F915D
:1023C0000F900BBE0F900FBE0F901F9018951F928D
:1023D0000F920FB60F9211240BB60F922F933F93CB
:1023E0004F935F936F937F938F939F93AF93BF931D
:1023F000EF93FF9348E850E064E870E081E090E0FC
:102400000E949C02FF91EF91BF91AF919F918F919C
:102410007F916F915F914F913F912F910F900BBEE4
:102420000F900FBE0F901F901895CF93DF93EC0184
:1024300084E092E099838883CE01C2960E943105A0
:10244000CE018E589F4F0E943105CE018E549F4F72
:102450000E943105FE01EE50FF4F11821082CC50D8
:10246000DF4F19821882DF91CF910895CF93DF93C8
:10247000EC010E94151284E092E099838883909188
:102480001402C650DF4F9033A8F481E0890F809387
:1024900014029883892F90E0FC01EE0FFF1FE80FD4
:1024A000F91FE454F04E88EB9BE092838183DF9127
:1024B000CF9108958FEF8883FACF789484B58260A6
:1024C00084BD84B5816084BD85B5826085BD85B5D8
:1024D000816085BD80916E00816080936E00109256
:1024E00081008091810082608093810080918100D1
:1024F0008160809381008091800081608093800062
:102500008091B10084608093B1008091B0008160BF
:102510008093B000809191008260809391008091BF
:102520009100816080939100809190008160809300
:1025300090008091A10082608093A1008091A10011
:1025400081608093A1008091A00081608093A000B1
:10255000809121018260809321018091210181601D
:1025600080932101809120018160809320018091DE
:102570007A00846080937A0080917A0082608093F0
:102580007A0080917A00816080937A0080917A004D
:10259000806880937A001092C10024E030E043E02C
:1025A00050E062E070E089E192E00E94840427E05C
:1025B00030E046E050E065E070E088E097E00E949F
:1025C00084042AE030E049E050E068E070E087EF02
:1025D0009BE00E94840422E230E041E250E060E2AD
:1025E00070E086EE90E10E94840425E230E044E24F
:1025F00050E063E270E085ED95E10E94840428E2FA
:1026000030E047E250E066E270E084EC9AE10E943C
:102610008404D0E0C0E047E856E169EC7FE3CE01F6
:10262000815F9C4F0E94A30440E050E060E070E4B2
:10263000CE01845F9B4F0E94A30440E050E060E025
:1026400070E4CE01875F9A4F0E94A304C151DB4F13
:10265000CA398DE1D807F9F6C0E0D0E02097F1F350
:102660000E940000FBCF0F931F93CF93DF93C9E12C
:10267000D2E004E012E0CE010E9415121983088313
:10268000CE018A509F4F0E943612CE018D509E4F30
:102690000E943612CE0180519D4F0E943612CE010B
:1026A00083519C4F0E941512C151DB4F8FE1C33BF8
:1026B000D80709F7DF91CF911F910F910895052E4B
:1026C00097FB1EF400940E94761357FD07D00E94DA
:1026D000911307FC03D04EF40C947613509540955B
:1026E000309521953F4F4F4F5F4F089590958095BE
:1026F000709561957F4F8F4F9F4F08950E94B31340
:10270000A59F900DB49F900DA49F800D911D112445
:102710000895B7FF0C947E130E947E13821B930BC7
:102720000895A1E21A2EAA1BBB1BFD010DC0AA1F12
:10273000BB1FEE1FFF1FA217B307E407F50720F02A
:10274000A21BB30BE40BF50B661F771F881F991FA5
:102750001A9469F760957095809590959B01AC01EE
:10276000BD01CF010895A29FB001B39FC001A39FF7
:10277000700D811D1124911DB29F700D811D1124BA
:10278000911D08955058BB27AA270E94DA130C9474
:10279000AC140E94731438F00E947A1420F039F4BB
:1027A0009F3F19F426F40C9470140EF4E095E7FBA7
:1027B0000C946A14E92F0E94D11458F3BA176207D7
:1027C00073078407950720F079F4A6F50C94F314A9
:1027D0000EF4E0950B2EBA2FA02D0B01B90190013C
:1027E0000C01CA01A0011124FF27591B99F0593F80
:1027F00050F4503E68F11A16F040A22F232F342FC8
:102800004427585FF3CF469537952795A795F04015
:102810005395C9F77EF41F16BA0B620B730B840B2A
:10282000BAF09150A1F0FF0FBB1F661F771F881FE2
:10283000C2F70EC0BA0F621F731F841F48F487953A
:1028400077956795B795F7959E3F08F0B0CF93952C
:10285000880F08F09927EE0F9795879508950E94A5
:102860008314E3950C94BD140E943B146894B11139
:102870000C94F41408950E94D91488F09F5798F08E
:10288000B92F9927B751B0F0E1F0660F771F881F75
:10289000991F1AF0BA95C9F714C0B13091F00E948F
:1028A000F314B1E008950C94F314672F782F882760
:1028B000B85F39F0B93FCCF3869577956795B395B6
:1028C000D9F73EF490958095709561957F4F8F4F25
:1028D0009F4F089597F99F6780E870E060E0089542
:1028E0009FEF80EC089500240A9416161706180628
:1028F0000906089500240A94121613061406050604
:1029000008950C9470140E94D914D8F3E894E0E070
:10291000BB279F57F0F02AED3FE049EC06C0EE0FD1
:10292000BB0F661F771F881F28F0B23A6207730734
:10293000840728F0B25A620B730B840BE3959A95C7
:1029400072F7803830F49A95BB0F661F771F881F87
:10295000D2F790480C947115092E0394000C11F4D1
:10296000882352F0BB0F40F4BF2B11F460FF04C06A
:102970006F5F7F4F8F4F9F4F0895EF93E0FF07C02A
:10298000A2EA2AED3FE049EC5FEB0E94DA130E94D5
:10299000AC140F90039401FC9058E4EEF0E00C941A
:1029A0007D1557FD9058440F551F59F05F3F71F04A
:1029B0004795880F97FB991F61F09F3F79F08795A6
:1029C0000895121613061406551FF2CF4695F1DF2F
:1029D00008C0161617061806991FF1CF86957105BF
:1029E000610508940895E894BB2766277727CB01F3
:1029F00097F908950E940D150C94AC140E9473145D
:102A000038F00E947A1420F0952311F00C946A1487
:102A10000C94701411240C94F4140E94D11470F3CB
:102A2000959FC1F3950F50E0551F629FF001729F73
:102A3000BB27F00DB11D639FAA27F00DB11DAA1F82
:102A4000649F6627B00DA11D661F829F2227B00DCF
:102A5000A11D621F739FB00DA11D621F839FA00D5A
:102A6000611D221F749F3327A00D611D231F849FAA
:102A7000600D211D822F762F6A2F11249F57504001
:102A80009AF0F1F088234AF0EE0FFF1FBB1F661F7C
:102A9000771F881F91505040A9F79E3F510580F045
:102AA0000C946A140C94F4145F3FE4F3983ED4F34E
:102AB000869577956795B795F795E7959F5FC1F7E9
:102AC000FE2B880F911D9695879597F908959F93F2
:102AD0000E9483140F9007FCEE5F0C94BD149F3F7F
:102AE00031F0915020F4879577956795B795880FC9
:102AF000911D9695879597F908959F938F937F934E
:102B00006F93FF93EF939B01AC010E94FA14EF9136
:102B1000FF910E9491152F913F914F915F910C94DD
:102B2000FA14DF93CF931F930F93FF92EF92DF92EC
:102B30007B018C01689406C0DA2EEF010E940D150E
:102B4000FE01E894A5912591359145915591A6F303
:102B5000EF010E94DA13FE019701A801DA9469F7E8
:102B6000DF90EF90FF900F911F91CF91DF9108952B
:102B7000991B79E004C0991F961708F0961B881FCF
:102B80007A95C9F780950895EE0FFF1F881F8BBFB8
:0C2B90000790F691E02D1994F894FFCF07
:102B9C00000000005A0E4404FD03D20DD4033C0B7C
:042BAC00AB0356031E
:00000001FF
