:100000000C9465010C9496010C9496010C94960145
:100010000C9496010C9496010C9496010C94960104
:100020000C9496010C9496010C9496010C949601F4
:100030000C9496010C9496010C9496010C949601E4
:100040000C9496010C94661F0C9496010C949601E6
:100050000C9496010C9496010C9496010C94921EAB
:100060000C9496010C945C1E0C94321E0C94960118
:100070000C9496010C9496010C9496010C949601A4
:100080000C94381F0C9496010C9496010C949601D4
:100090000C9496010C9496010C9496010C94960184
:1000A0000C9496010C9496010C940A1F0C949601E2
:1000B0000C9496010C9496010C9496010C94DC1E01
:1000C0000C9496010C9496010C9496010C94960154
:1000D0000C9496010C9496010C9496010C94960144
:1000E0000C949601084AD73B3BCE016E84BCBFFD01
:1000F000C12F3D6C74319ABD56833DDA3D00C77FF8
:1001000011BED9E4BB4C3E916BAAAABE0000008090
:100110003F072C7AA5BA6CC590DA3B9365FC8BBC83
:1001200053F810FD3C5692834DBD879D3AB63DCBAA
:10013000C9BF5BBE73DA0FC93F05A84CCDB2D44E20
:10014000B93836A9020C50B9918688083CA6AAAAEB
:100150002ABE000000803F000C94AF1F0C941F03C8
:100160000C944E030C94FC020C9452030C94360332
:100170000C9448030C9498010C94F6010C942803F9
:100180000C9413030C9444030C947B020C943A03D8
:100190000C9417030C94D4010C942C030C94C501FB
:1001A0000C945F330C941B030C9432030C942203C5
:1001B0000C942E020C9440030C94E8010C9401035F
:1001C00000002100240027002A002D003000330009
:1001D00001010000040107010A01000022002500BE
:1001E00028002B002E003100340002010000050120
:1001F00008010B01050505050705080808080202A6
:1002000002020A0A080804040404010101010101B0
:1002100001010303030303030303040707070C0C93
:100220000C0C0C0C0C0C020202020606060606065A
:1002300006060B0B0B0B0B0B0B0B010210202008FF
:100240000810204010204080020102010804020131
:1002500001020408102040808040201008040201A0
:1002600080040201804020100804020108040201F9
:100270000102040810204080010204081020408080
:1002800000000A0B02090C0D0E0807030401000010
:10029000000000000000000000000000000000005E
:1002A000000000000000000000000000121110001B
:1002B000000000000000000000000000000000003E
:1002C000000000000000AF1F5F3311241FBECFEFFE
:1002D000D1E2DEBFCDBF00E00CBF12E0A0E0B2E093
:1002E000ECEDF3E700E00BBF02C007900D92A038E1
:1002F000B107D9F72BE0A0E8B2E001C01D92A33B03
:10030000B207E1F711E0C4E6D1E000E006C02197B2
:100310000109802FFE010E94BE37C336D10780E05D
:100320000807A9F70E9447260C94DC390C940000BA
:10033000AF92BF92CF92DF92EF92FF920F931F93F3
:10034000CF93DF936C017B018B01040F151FEB0131
:100350005E01AE18BF08C017D10759F06991D601E8
:10036000ED91FC910190F081E02DC6011995892B4A
:1003700079F7C501DF91CF911F910F91FF90EF9019
:10038000DF90CF90BF90AF900895FC01538D448DC6
:10039000252F30E0842F90E0821B930B541710F030
:1003A000CF96089501970895FC01918D828D98173D
:1003B00061F0A28DAE0FBF2FB11D5D968C91928D15
:1003C0009F5F9F73928F90E008958FEF9FEF089546
:1003D000FC01918D828D981731F0828DE80FF11D0F
:1003E000858D90E008958FEF9FEF0895FC01918D2A
:1003F000228D892F90E0805C9F4F821B91098F7323
:10040000992708958EE193E00E94F60121E0892B5F
:1004100009F420E0822F0895FC01A48DA80FB92FC4
:10042000B11DA35ABF4F2C91848D90E001968F731C
:100430009927848FA689B7892C93A089B1898C913B
:10044000837080648C93938D848D981306C002888A
:10045000F389E02D80818F7D80830895EF92FF9254
:100460000F931F93CF93DF93EC0181E0888F9B8DD7
:100470008C8D98131AC0E889F989808185FF15C091
:100480009FB7F894EE89FF896083E889F9898081B4
:100490008370806480839FBF81E090E0DF91CF9183
:1004A0001F910F91FF90EF900895F62E0B8D10E0A5
:1004B0000F5F1F4F0F731127E02E8C8D8E110CC014
:1004C0000FB607FCFACFE889F989808185FFF5CF5F
:1004D000CE010E940C02F1CFEB8DEC0FFD2FF11D30
:1004E000E35AFF4FF0829FB7F8940B8FEA89FB899C
:1004F00080818062CFCFCF93DF93EC01888D8823FA
:10050000B9F0AA89BB89E889F9898C9185FD03C076
:10051000808186FD0DC00FB607FCF7CF8C9185FF5B
:10052000F2CF808185FFEDCFCE010E940C02E9CF92
:10053000DF91CF91089580E090E0892B29F00E940F
:10054000020281110E94000080E090E0892B49F0B6
:1005500080E090E0892B29F00E94000081110E9428
:10056000000080E090E0892B49F080E090E0892B4A
:1005700029F00E94000081110E94000080E090E0BC
:10058000892B49F080E090E0892B29F00E9400003F
:1005900081110C9400000895282F30E0F901E058F3
:1005A000FD4F9491F901E65CFD4F44912C503E4F74
:1005B000F9012491222309F435C0992311F19150B6
:1005C0009231F8F4E92FF0E08827E651FD4F8F4F84
:1005D0000C94BE371B031F03FC0213031703010314
:1005E000220328032C03320336033A034003440357
:1005F000010348034E035203809180008F7780935C
:100600008000E22FF0E0EE0FFF1FE652FE4FA591B3
:10061000B4918FB7F894EC91611148C040954E2386
:100620004C938FBF0895809180008F7DE8CF80919B
:100630008000877FE4CF84B58F7784BDE2CF84B517
:100640008F7DFBCF8091B0008F778093B000D9CFA2
:100650008091B0008F7DF9CF809190008F7780934B
:100660009000CFCF809190008F7DF9CF8091900046
:10067000877FF5CF8091A0008F778093A000C1CFB6
:100680008091A0008F7DF9CF8091A000877FF5CF6A
:10069000809120018F7780932001B3CF809120013A
:1006A0008F7DF9CF80912001877FF5CF4E2BB8CF7A
:1006B000CF92DF92EF92FF92CF93DF93EC01603203
:1006C00082E07807CCF5653B710514F064EB70E0CF
:1006D000898128E830E0281B310987FD3395220FF6
:1006E000331F220F331F6901330FEE08FF088A8181
:1006F00028E532E0281B310987FD3395220F331F8F
:10070000220F331F032E000C440B550B2C193D09EF
:100710004E095F09DB0177FF02C0B0E0A0E00E9454
:10072000C93424EB30E040E050E00E949F34C20E18
:10073000D31EE41EF51EB601E881E03370F5298171
:1007400088E890E0821B910927FD9395880F991FF7
:10075000880F991F681779077CF02A8188E592E055
:10076000821B910927FD9395880F991F880F991F68
:10077000681779070CF4CB010297880F991F4FB7C0
:10078000F8942E2F30E0F901EE0FFF1FE20FF31F58
:10079000EB57FD4F928381834FBFDF91CF91FF9045
:1007A000EF90DF90CF900895CF93DF93DC018C9191
:1007B000803308F06DC0CB01FB01E65CFD4F249156
:1007C0008C509E4FFC018491882399F090E0880F13
:1007D000991FFC01E054FE4FC591D491FC01E652F3
:1007E000FE4F859194918FB7F894E881E22BE883CE
:1007F0008FBF8C91282F30E0F901EE0FFF1FE20F21
:10080000F31FEB57FD4F962F9F736081607C692B20
:10081000608311961C92119712961C9212972CE0ED
:10082000622F0E94B237829FB001112430E020E095
:10083000AB01420F531FFA01EE0FFF1FE40FF51F2C
:10084000EB57FD4F908196FD16C02F5F3F4F2C3028
:10085000310571F7813001F51092800082E08093BC
:1008600081001092850010928400B19A80916F00EF
:10087000826080936F00EC918E2F90E0FC01EE0F70
:10088000FF1FE80FF91FEB57FD4F808180648083C5
:100890008C91DF91CF910895823061F41092900095
:1008A00080939100109295001092940088BB8093E1
:1008B0007100E1CF833069F41092A00082E0809350
:1008C000A1001092A5001092A40089BB8093720031
:1008D000D2CF8111D0CF1092200182E080932101EC
:1008E00010922501109224018ABB80937300C3CF1C
:1008F000AF92BF92CF92DF92EF92FF920F931F932E
:10090000CF93DF936B017A01EC01C058DD4F288152
:100910003CE0389F8001399F100D1124A090840283
:10092000B12C27FF1FC0FB011182108288818F5FCD
:10093000888388819801280F311D87FD3A95F6013B
:100940002A153B051CF488818C30C4F1808191818B
:10095000049680349C4908F473C0F601808191812B
:10096000049670C088819801280F311D87FD3A9543
:100970002A153B05DCF68881A801480F511D87FD2B
:100980005A95FA01EE0FFF1FE40FF51FEB57FD4FCD
:10099000808186FFCBCF8881F801E80FF11D87FDAC
:1009A000FA95CF01EE0FFF1FE80FF91FEB57FD4F30
:1009B000808160E08F730E94CC02B8CF80819181EA
:1009C0002881A801420F511D27FD5A959A01FA016D
:1009D000EE0FFF1FE20FF31FEB57FD4F2181328116
:1009E000820F931FF7019183808388819801280FDC
:1009F000311D87FD3A95F901EE0FFF1FE20FF31F3E
:100A0000EB57FD4F808186FF22C08881080F111DA2
:100A100087FD1A95F801EE0FFF1FE00FF11FEB574E
:100A2000FD4F808161E08F73DF91CF911F910F9116
:100A3000FF90EF90DF90CF90BF90AF900C94CC02DE
:100A400080E49CE9F701918380838FEF8883DF91B5
:100A5000CF911F910F91FF90EF90DF90CF90BF90BB
:100A6000AF9008954F925F926F927F928F929F9274
:100A7000AF92BF92CF92DF92EF92FF92CF93DF932C
:100A8000EC01FC01E957FF4F80809180A280B38088
:100A9000349740805180628073803497C080D180C9
:100AA000E280F38020E030E040EF52E4C701B6017D
:100AB0000E9425371816ACF120E030E040E752E400
:100AC000C701B6010E947B3387FF06C0C12CD12C21
:100AD00090E7E92E92E4F92EC701B6010E9469362B
:100AE000CE010E945803C301B2010E946936CE01B3
:100AF00003960E945803C501B4010E946936CE01D5
:100B00000696DF91CF91FF90EF90DF90CF90BF904E
:100B1000AF909F908F907F906F905F904F900C94CC
:100B20005803C12CD12C80EFE82E82E4F82ED4CFCC
:100B30008F929F92AF92BF92CF92DF92EF92FF92ED
:100B40000F931F93CF93DF93EC014A0169017C015E
:100B50008FE7E80EF11C80E090E0A4EBB2E4F7012F
:100B600080839183A283B3835E01F3E8AF0EB11C4F
:100B700080E090E0A4E3B3E4F50180839183A28355
:100B8000B3838E0109571F4FF80180839183A2839D
:100B9000B383CE010E94D403F70160817181828109
:100BA00093810E946936CE010E9458037E01F3E0D2
:100BB000EF0EF11CB401C7010E94D403F50160815E
:100BC0007181828193810E946936C7010E94580316
:100BD0002696B601CE010E94D403F801608171818E
:100BE000828193810E946936CE01DF91CF911F915E
:100BF0000F91FF90EF90DF90CF90BF90AF909F90BC
:100C00008F900C945803FC0180E090E0A0E8BFE3D3
:100C100080839183A283B383148215821682178204
:100C200010861186128613861486158616861786F8
:100C3000108A118A128A138A848B958BA68BB78BA4
:100C4000108E118E128E138E148E158E168E178E98
:100C500010A211A212A213A214A215A216A217A2E8
:100C600080A791A7A2A7B3A714A615A616A617A694
:100C700010AA11AA12AA13AA14AA15AA16AA17AA88
:100C800010AE11AE12AE13AE84AF95AFA6AFB7AF34
:100C900008952F923F924F925F926F927F928F9220
:100CA0009F92AF92BF92CF92DF92EF92FF920F93FB
:100CB0001F93CF93DF93CDB7DEB7C854D1090FB6DA
:100CC000F894DEBF0FBECDBF1C018B0127965FAF2E
:100CD0004EAF27970E940306D8018D909D90AD904E
:100CE000BC902796AEADBFAD27978D919D910D908D
:100CF000BC91A02D89879A87AB87BC87F801C480F7
:100D0000D580E680F7802796AEADBFAD2797509689
:100D10008D919D910D90BC91A02D8D879E87AF8761
:100D2000B88B80859185A285B38589839A83AB83AF
:100D3000BC832796AEADBFAD279790968D919D91C0
:100D40000D90BC91A02D898B9A8BAB8BBC8B84852D
:100D50009585A685B7858D839E83AF83B8872796B3
:100D6000AEADBFAD2797D0968D919D910D90BC9162
:100D7000A02D8D8B9E8BAF8BB88F29853A854B85A7
:100D80005C85C501B4010E94E1332B013C012D8536
:100D90003E854F855889C701B6010E94E1339B010A
:100DA000AC01C301B2010E9414352B013C01298919
:100DB0003A894B895C8969817A818B819C810E9407
:100DC000E1339B01AC01C301B2010E9414352B0138
:100DD0003C012D893E894F89588D6D817E818F819F
:100DE00098850E94E1339B01AC01C301B2010E94CE
:100DF0001435F10160837183828393832796AEADAE
:100E0000BFAD279714968D919D910D90BC91A02D0B
:100E1000898F9A8FAB8FBC8F2796AEADBFAD2797CA
:100E200054968D919D910D90BC91A02D8D8F9E8F8C
:100E3000AF8FB8A32796AEADBFAD279794968D918F
:100E40009D910D90BC91A02D89A39AA3ABA3BCA3A7
:100E50002796AEADBFAD2797D4968D919D910D90FD
:100E6000BC91A02D8DA39EA3AFA3B8A7298D3A8DC9
:100E70004B8D5C8DC501B4010E94E1332B013C0117
:100E80002D8D3E8D4F8D58A1C701B6010E94E133D3
:100E90009B01AC01C301B2010E9414352B013C013E
:100EA00029A13AA14BA15CA169817A818B819C81A6
:100EB0000E94E1339B01AC01C301B2010E941435D1
:100EC0002B013C012DA13EA14FA158A56D817E8132
:100ED0008F8198850E94E1339B01AC01C301B2016F
:100EE0000E941435F1016483758386839783279666
:100EF000AEADBFAD279718968D919D910D90BC9189
:100F0000A02D89A79AA7ABA7BCA72796AEADBFAD6A
:100F1000279758968D919D910D90BC91A02D8DA7EE
:100F20009EA7AFA7B8AB2796AEADBFAD2797989653
:100F30008D919D910D90BC91A02D89AB9AABABABDF
:100F4000BCAB2796AEADBFAD2797D8968D919D913E
:100F50000D90BC91A02D8DAB9EABAFABB8AF29A5CA
:100F60003AA54BA55CA5C501B4010E94E1332B0154
:100F70003C012DA53EA54FA558A9C701B6010E9469
:100F8000E1339B01AC01C301B2010E9414352B0176
:100F90003C0129A93AA94BA95CA969817A818B8175
:100FA0009C810E94E1339B01AC01C301B2010E940C
:100FB00014352B013C012DA93EA94FA958AD6D81D7
:100FC0007E818F8198850E94E1339B01AC01C30132
:100FD000B2010E941435F10160877187828793877F
:100FE0002796AEADBFAD27971C968D919D910D9024
:100FF000BC91A02D89AF9AAFABAFBCAF2796AEAD79
:10100000BFAD27975C968D919D910D90BC91A02DC1
:1010100021968CAF9DAFAEAFBFAF21972796AEADF7
:10102000BFAD27979C968D919D910D90BC91A02D61
:1010300025968CAF9DAFAEAFBFAF25972796AEADCF
:10104000BFAD2797DC968D919D910D90BC91A02D01
:1010500029968CAF9DAFAEAFBFAF299729AD3AAD02
:101060004BAD5CADC501B4010E94E1334B015C01A5
:1010700021962CAD3DAD4EAD5FAD2197C701B601B8
:101080000E94E1339B01AC01C501B4010E941435FB
:101090006B017C0125962CAD3DAD4EAD5FAD259726
:1010A00069817A818B819C810E94E1339B01AC0133
:1010B000C701B6010E9414356B017C0129962CAD45
:1010C0003DAD4EAD5FAD29976D817E818F81988555
:1010D0000E94E1339B01AC01C701B6010E941435A7
:1010E000F1016487758786879787D80150968D9020
:1010F0009D90AD90BC9053975496CD90DD90ED901F
:10110000FC90579758968D919D910D90BC91A02D74
:1011100089839A83AB83BC83D8015C968D919D9122
:101120000D90BC91A02D8D839E83AF83B887A501C0
:10113000940169857A858B859C850E94E1332B011A
:101140003C01A70196016D857E858F8598890E9457
:10115000E1339B01AC01C301B2010E9414352B01A4
:101160003C0129813A814B815C8169897A898B892B
:101170009C890E94E1339B01AC01C301B2010E9432
:1011800014352B013C012D813E814F8158856D899D
:101190007E898F89988D0E94E1339B01AC01C30148
:1011A000B2010E941435F101608B718B828B938B9D
:1011B000A5019401698D7A8D8B8D9C8D0E94E13300
:1011C0002B013C01A70196016D8D7E8D8F8D98A11D
:1011D0000E94E1339B01AC01C301B2010E941435AE
:1011E0002B013C0129813A814B815C8169A17AA163
:1011F0008BA19CA10E94E1339B01AC01C301B20110
:101200000E9414352B013C012D813E814F81588570
:101210006DA17EA18FA198A50E94E1339B01AC0135
:10122000C301B2010E941435D10154966D937D9390
:101230008D939C935797A501940169A57AA58BA5D9
:101240009CA50E94E1332B013C01A70196016DA5ED
:101250007EA58FA598A90E94E1339B01AC01C30133
:10126000B2010E9414352B013C0129813A814B8146
:101270005C8169A97AA98BA99CA90E94E1339B0191
:10128000AC01C301B2010E9414352B013C012D8138
:101290003E814F8158856DA97EA98FA998AD0E9486
:1012A000E1339B01AC01C301B2010E941435F1018D
:1012B000608F718F828F938FA501940169AD7AAD94
:1012C0008BAD9CAD0E94E1334B015C01A7019601FF
:1012D00021966CAD7DAD8EAD9FAD21970E94E1331F
:1012E0009B01AC01C501B4010E9414356B017C0166
:1012F00029813A814B815C8125966CAD7DAD8EADA7
:101300009FAD25970E94E1339B01AC01C701B60157
:101310000E9414356B017C012D813E814F815885DF
:1013200029966CAD7DAD8EAD9FAD29970E94E133BE
:101330009B01AC01C701B6010E941435D1015C9636
:101340006D937D938D939C935F97F80180A091A0FE
:10135000A2A0B3A0C4A0D5A0E6A0F7A080A591A5A7
:10136000A2A5B3A589839A83AB83BC8384A595A5E5
:10137000A6A5B7A58D839E83AF83B887A5019401E9
:1013800069857A858B859C850E94E1332B013C0120
:10139000A70196016D857E858F8598890E94E1332E
:1013A0009B01AC01C301B2010E9414352B013C0129
:1013B00029813A814B815C8169897A898B899C89F1
:1013C0000E94E1339B01AC01C301B2010E941435BC
:1013D0002B013C012D813E814F8158856D897E898D
:1013E0008F89988D0E94E1339B01AC01C301B2014A
:1013F0000E941435F10160A371A382A393A3A501F8
:101400009401698D7A8D8B8D9C8D0E94E1332B0127
:101410003C01A70196016D8D7E8D8F8D98A10E9454
:10142000E1339B01AC01C301B2010E9414352B01D1
:101430003C0129813A814B815C8169A17AA18BA110
:101440009CA10E94E1339B01AC01C301B2010E9447
:1014500014352B013C012D813E814F8158856DA1B2
:101460007EA18FA198A50E94E1339B01AC01C3012D
:10147000B2010E941435D10194966D937D938D93A2
:101480009C939797A501940169A57AA58BA59CA526
:101490000E94E1332B013C01A70196016DA57EA5B9
:1014A0008FA598A90E94E1339B01AC01C301B20151
:1014B0000E9414352B013C0129813A814B815C81CA
:1014C00069A97AA98BA99CA90E94E1339B01AC016F
:1014D000C301B2010E9414352B013C012D813E81D4
:1014E0004F8158856DA97EA98FA998AD0E94E133DF
:1014F0009B01AC01C301B2010E941435F10160A748
:1015000071A782A793A7A501940169AD7AAD8BADB0
:101510009CAD0E94E1334B015C01A701960121962D
:101520006CAD7DAD8EAD9FAD21970E94E1339B01E7
:10153000AC01C501B4010E9414356B017C01298105
:101540003A814B815C8125966CAD7DAD8EAD9FADB2
:1015500025970E94E1339B01AC01C701B6010E94AF
:1015600014356B017C012D813E814F815885299670
:101570006CAD7DAD8EAD9FAD29970E94E1339B018F
:10158000AC01C701B6010E941435D1019C966D9340
:101590007D938D939C939F97F80180A891A8A2A812
:1015A000B3A884A995A9A6A9B7A989839A83AB836F
:1015B000BC8380AD91ADA2ADB3AD8D839E83AF836F
:1015C000B887C4ACD5ACE6ACF7ACA501940169858D
:1015D0007A858B859C850E94E1332B013C01298112
:1015E0003A814B815C816D857E858F8598890E94CB
:1015F000E1339B01AC01C301B2010E9414352B0100
:101600003C012D813E814F81588569897A898B897A
:101610009C890E94E1339B01AC01C301B2010E948D
:1016200014352B013C01A70196016D897E898F89B4
:10163000988D0E94E1339B01AC01C301B2010E946D
:101640001435D101D0966D937D938D939C93D39750
:10165000A5019401698D7A8D8B8D9C8D0E94E1335B
:101660002B013C0129813A814B815C816D8D7E8DFE
:101670008F8D98A10E94E1339B01AC01C301B2019F
:101680000E9414352B013C012D813E814F815885EC
:1016900069A17AA18BA19CA10E94E1339B01AC01BD
:1016A000C301B2010E9414352B013C01A701960130
:1016B0006DA17EA18FA198A50E94E1339B01AC0191
:1016C000C301B2010E941435F10164AB75AB86AB66
:1016D00097ABA501940169A57AA58BA59CA50E944D
:1016E000E1332B013C0129813A814B815C816DA55D
:1016F0007EA58FA598A90E94E1339B01AC01C3018F
:10170000B2010E9414352B013C012D813E814F8195
:10171000588569A97AA98BA99CA90E94E1339B01EC
:10172000AC01C301B2010E9414352B013C01A70199
:1017300096016DA97EA98FA998AD0E94E1339B0106
:10174000AC01C301B2010E941435D101D8966D934A
:101750007D938D939C93DB97A501940169AD7AAD40
:101760008BAD9CAD0E94E1334B015C0129813A8134
:101770004B815C8121966CAD7DAD8EAD9FAD219787
:101780000E94E1339B01AC01C501B4010E941435F4
:101790004B015C012D813E814F81588525966CADB2
:1017A0007DAD8EAD9FAD25970E94E1339B01AC01CD
:1017B000C501B4010E9414354B015C01A7019601DB
:1017C00029966CAD7DAD8EAD9FAD29970E94E1331A
:1017D0009B01AC01C501B4010E941435F10164AF55
:1017E00075AF86AF97AFC101C85BDF4F0FB6F894F6
:1017F000DEBF0FBECDBFDF91CF911F910F91FF9044
:10180000EF90DF90CF90BF90AF909F908F907F90A0
:101810006F905F904F903F902F900895CF92DF92FE
:10182000EF92FF920F931F93CF93DF93CDB7DEB765
:10183000C054D1090FB6F894DEBF0FBECDBF7C01F6
:101840006B018A01CE0101960E940306F801808196
:101850009181A281B3818D879E87AF87B88B848168
:101860009581A681B7818D8F9E8FAF8FB8A380851C
:101870009185A285B3858DA79EA7AFA7B8ABAE0112
:101880004F5F5F4FB601C7010E944906C701C05CA8
:10189000DF4F0FB6F894DEBF0FBECDBFDF91CF9103
:1018A0001F910F91FF90EF90DF90CF900895CF930D
:1018B000DF93FC0101900020E9F73197AF01481B4D
:1018C000590BBC018EE193E00E949801EC0142E0CB
:1018D00050E068E172E08EE193E00E9498018C0F85
:1018E0009D1FDF91CF910895EF92FF920F931F9369
:1018F000CF93DF93EC017B01198218821B821A823D
:101900001D821C82FB0101900020E9F731978F01B5
:10191000061B170BB8016F5F7F4F90E080E00E94BD
:10192000EB380097B9F0998388831B830A832C8155
:101930003D81232B11F4FC0110821D830C83B70120
:1019400088819981DF91CF911F910F91FF90EF9046
:101950000C94D53988819981009711F00E946238E2
:10196000198218821D821C821B821A82DF91CF91FC
:101970001F910F91FF90EF9008954F925F926F9299
:101980007F928F929F92AF92BF92CF92DF92EF920F
:10199000FF920F931F93CF93DF93CDB7DEB7C85F4E
:1019A000D1090FB6F894DEBF0FBECDBF8C01AC01DC
:1019B000435C5F4FFC01E358FF4F60817181CE01B2
:1019C00001960E9449068D899E89AF89B88DC355BD
:1019D000DF4F88839983AA83BB83CD5AD04089A5E2
:1019E0009AA5ABA5BCA5C356DF4F88839983AA836C
:1019F000BB83CD59D0409C01AD01C355DF4F6881F9
:101A000079818A819B81CD5AD0400E94E1336B015C
:101A10007C0121968CAD9DADAEADBFAD2197CF576A
:101A2000DF4F88839983AA83BB83C158D040898DB7
:101A30009A8DAB8DBC8DCB56DF4F88839983AA835B
:101A4000BB83C559D0408DA59EA5AFA5B8A9CB57DE
:101A5000DF4F88839983AA83BB83C558D0409C01FC
:101A6000AD01CB56DF4F688179818A819B81C55951
:101A7000D0400E94E133C354DF4F688379838A8367
:101A80009B83CD5BD0408DA99EA9AFA9B8ADC357AC
:101A9000DF4F88839983AA83BB83CD58D0408D8D37
:101AA0009E8DAF8DB8A1C756DF4F88839983AA83D7
:101AB000BB83C959D0408DA19EA1AFA1B8A5CF5578
:101AC000DF4F88839983AA83BB83C15AD0409C018E
:101AD000AD01C756DF4F688179818A819B81C959E1
:101AE000D0400E94E133CF51DF4F688379838A83EE
:101AF0009B83C15ED04089AD9AADABADBCADC7573D
:101B0000DF4F88839983AA83BB83C958D040C756C7
:101B1000DF4F288139814A815B81C959D040C35642
:101B2000DF4F688179818A819B81CD59D0400E94A5
:101B3000E133CF53DF4F688379838A839B83C15C12
:101B4000D040CF55DF4F288139814A815B81C15A0E
:101B5000D040CB56DF4F688179818A819B81C559FE
:101B6000D0400E94E1334B015C01CB57DF4F28810D
:101B700039814A815B81C558D040C355DF4F6881A8
:101B800079818A819B81CD5AD0400E94E133CB512B
:101B9000DF4F688379838A839B83C55ED040CF57AC
:101BA000DF4F288139814A815B81C158D040C7010C
:101BB000B6010E94E1336B017C01C357DF4F2881DE
:101BC00039814A815B81CD58D040C354DF4F688151
:101BD00079818A819B81CD5BD0400E94E1339B015A
:101BE000AC01C701B6010E9414356B017C01C757D7
:101BF000DF4F288139814A815B81C958D040CF515C
:101C0000DF4F688179818A819B81C15ED0400E94CB
:101C1000E1339B01AC01C701B6010E9414356B0191
:101C20007C01CF53DF4F288139814A815B81C15CC0
:101C3000D040C357DF4F688179818A819B81CD581D
:101C4000D0400E94E1339B01AC01C701B6010E9464
:101C500013356B017C01A5019401CF57DF4F6881DB
:101C600079818A819B81C158D0400E94E1339B01D8
:101C7000AC01C701B6010E9413356B017C01CB5149
:101C8000DF4F288139814A815B81C55ED040C757CB
:101C9000DF4F688179818A819B81C958D0400E9439
:101CA000E1339B01AC01C701B6010E941335CB5350
:101CB000DF4F688379838A839B83C55CD0408D81A5
:101CC0009E81AF81B885CF54DF4F88839983AA83E3
:101CD000BB83C15BD0409C01AD01C356DF4F68811F
:101CE00079818A819B81CD59D0400E94E1336B017B
:101CF0007C0189859A85AB85BC85CB54DF4F888371
:101D00009983AA83BB83C55BD0409C01AD01CB57AF
:101D1000DF4F688179818A819B81C558D0400E94BC
:101D2000E133C753DF4F688379838A839B83C95C20
:101D3000D0408D859E85AF85B889C754DF4F888395
:101D40009983AA83BB83C95BD0409C01AD01CF5569
:101D5000DF4F688179818A819B81C15AD0400E947E
:101D6000E133C751DF4F688379838A839B83C95EE0
:101D7000D040C754DF4F288139814A815B81C95BDC
:101D8000D040C356DF4F688179818A819B81CD59CC
:101D9000D0400E94E133C351DF4F688379838A8347
:101DA0009B83CD5ED040CB54DF4F288139814A815F
:101DB0005B81C55BD040CF55DF4F688179818A81D7
:101DC0009B81C15AD0400E94E1334B015C01CF544A
:101DD000DF4F288139814A815B81C15BD040CB577D
:101DE000DF4F688179818A819B81C558D0400E94EC
:101DF000E133CF50DF4F688379838A839B83C15F50
:101E0000D040A7019601CF57DF4F688179818A8141
:101E10009B81C158D0400E94E1336B017C01C753C4
:101E2000DF4F288139814A815B81C95CD040C3572B
:101E3000DF4F688179818A819B81CD58D0400E9493
:101E4000E1339B01AC01C701B6010E9414356B015F
:101E50007C01C751DF4F288139814A815B81C95E8E
:101E6000D040C757DF4F688179818A819B81C958EB
:101E7000D0400E94E1339B01AC01C701B6010E9432
:101E800014356B017C01C351DF4F288139814A81B0
:101E90005B81CD5ED040C357DF4F688179818A81F5
:101EA0009B81CD58D0400E94E1339B01AC01C7011A
:101EB000B6010E9413356B017C01A5019401CF5737
:101EC000DF4F688179818A819B81C158D0400E940F
:101ED000E1339B01AC01C701B6010E9413356B01D0
:101EE0007C01CF50DF4F288139814A815B81C15FFE
:101EF000D040C757DF4F688179818A819B81C9585B
:101F0000D0400E94E1339B01AC01C701B6010E94A1
:101F10001335C353DF4F688379838A839B83CD5CFA
:101F2000D040CF54DF4F288139814A815B81C15B2A
:101F3000D040CB56DF4F688179818A819B81C5591A
:101F4000D0400E94E1334B015C01CB54DF4F28812C
:101F500039814A815B81C55BD040C756DF4F6881BC
:101F600079818A819B81C959D0400E94E133CF5247
:101F7000DF4F688379838A839B83C15DD040C754D8
:101F8000DF4F288139814A815B81C95BD040C355CD
:101F9000DF4F688179818A819B81CD5AD0400E9430
:101FA000E133CB52DF4F688379838A839B83C55D9E
:101FB000D040C754DF4F288139814A815B81C95B9A
:101FC000D040CB56DF4F688179818A819B81C5598A
:101FD000D0400E94E133C752DF4F688379838A8300
:101FE0009B83C95DD040CB54DF4F288139814A8122
:101FF0005B81C55BD040C355DF4F688179818A81A1
:102000009B81CD5AD0400E94E1336B017C01CF54BB
:10201000DF4F288139814A815B81C15BD040C7563F
:10202000DF4F688179818A819B81C959D0400E94A4
:10203000E133C352DF4F688379838A839B83CD5D0D
:10204000D040A5019401CF57DF4F688179818A8103
:102050009B81C158D0400E94E1332B013C01CF52FB
:10206000DF4F288139814A815B81C15DD040C357F0
:10207000DF4F688179818A819B81CD58D0400E9451
:10208000E1339B01AC01C301B2010E9414352B0165
:102090003C01CB52DF4F288139814A815B81C55D8C
:1020A000D040C757DF4F688179818A819B81C958A9
:1020B000D0400E94E1339B01AC01C301B2010E94F8
:1020C00014352B013C01C752DF4F288139814A81E9
:1020D0005B81C95DD040C357DF4F688179818A81B8
:1020E0009B81CD58D0400E94E1339B01AC01C301DC
:1020F000B2010E9413352B013C01A7019601CF5775
:10210000DF4F688179818A819B81C158D0400E94CC
:10211000E1339B01AC01C301B2010E9413352B01D5
:102120003C01C352DF4F288139814A815B81CD5DFB
:10213000D040C757DF4F688179818A819B81C95818
:10214000D0400E94E1339B01AC01C301B2010E9467
:102150001335CB50DF4F688379838A839B83C55FB8
:10216000D040A5019401CB57DF4F688179818A81E6
:102170009B81C558D0400E94E1334B015C01CF5296
:10218000DF4F288139814A815B81C15DD040CF55C5
:10219000DF4F688179818A819B81C15AD0400E943A
:1021A000E1339B01AC01C501B4010E9414354B0120
:1021B0005C01CB52DF4F288139814A815B81C55D4B
:1021C000D040C356DF4F688179818A819B81CD5988
:1021D000D0400E94E1339B01AC01C501B4010E94D3
:1021E00014354B015C01C752DF4F288139814A8188
:1021F0005B81C95DD040CF55DF4F688179818A818D
:102200009B81C15AD0400E94E1339B01AC01C501C2
:10221000B4010E9413354B015C01A7019601CB5715
:10222000DF4F688179818A819B81C558D0400E94A7
:10223000E1339B01AC01C501B4010E9413356B0170
:102240007C01C352DF4F288139814A815B81CD5D9A
:10225000D040C356DF4F688179818A819B81CD59F7
:10226000D0400E94E1339B01AC01C701B6010E943E
:1022700013356B017C0189819A81AB81BC81CB557F
:10228000DF4F88839983AA83BB83C55AD04089894D
:102290009A89AB89BC89C755DF4F88839983AA8304
:1022A000BB83C95AD04089A19AA1ABA1BCA1CF568A
:1022B000DF4F88839983AA83BB83C159D04049A843
:1022C0005AA86BA87CA8CB55DF4F288139814A8159
:1022D0005B81C55AD040CB53DF4F688179818A81B9
:1022E0009B81C55CD0400E94E1334B015C01C75526
:1022F000DF4F288139814A815B81C95AD040C3535D
:10230000DF4F688179818A819B81CD5CD0400E94BA
:10231000E1339B01AC01C501B4010E9413354B01AF
:102320005C01CF56DF4F288139814A815B81C159D9
:10233000D040CB50DF4F688179818A819B81C55F16
:10234000D0400E94E1339B01AC01C501B4010E9461
:1023500014354B015C01A3019201C701B6010E9433
:10236000E1339B01AC01C501B4010E9413354B015F
:102370005C01CE018F5B9F4F0E94030620E030E09E
:10238000A901C501B4010E947B33882309F448C622
:10239000A501940160E070E080E89FE30E94F735BA
:1023A0004B015C01AC019B01CB53DF4F688179810C
:1023B0008A819B81C55CD0400E94E13325966CAF39
:1023C0007DAF8EAF9FAF2597C353DF4F6881798173
:1023D0008A819B81CD5CD0409058A50194010E94D8
:1023E000E13329966CAF7DAF8EAF9FAF2997A501E2
:1023F0009401CB50DF4F688179818A819B81C55FD1
:10240000D0400E94E1332D966CAF7DAF8EAF9FAF71
:102410002D97C701B6019058A50194010E94E133A0
:1024200061966CAF7DAF8EAF9FAF6197C755DF4FA1
:10243000288139814A815B81C95AD040C356DF4F18
:10244000688179818A819B81CD59D0400E94E13396
:102450006B017C01CF56DF4F288139814A815B8136
:10246000C159D040C756DF4F688179818A819B81ED
:10247000C959D0400E94E133CB53DF4F6883798341
:102480008A839B83C55CD040CF56DF4F288139813A
:102490004A815B81C159D040CB56DF4F6881798139
:1024A0008A819B81C559D0400E94E1334B015C0178
:1024B000C755DF4F288139814A815B81C95AD04095
:1024C000CB57DF4F688179818A819B81C558D04085
:1024D0000E94E133C353DF4F688379838A839B83F0
:1024E000CD5CD040A7019601CF57DF4F688179813D
:1024F0008A819B81C158D0400E94E1336B017C01ED
:10250000F7FAF094F7F8F094A3019201C354DF4F67
:10251000688179818A819B81CD5BD0400E94E133C3
:102520009B01AC01C701B6010E9413356B017C0110
:10253000CB53DF4F288139814A815B81C55CD04014
:10254000C757DF4F688179818A819B81C958D04004
:102550000E94E1339B01AC01C701B6010E94133513
:102560006B017C01A3019201CF53DF4F6881798118
:102570008A819B81C15CD0400E94E1339B01AC0108
:10258000C701B6010E9414356B017C01A5019401BD
:10259000CF57DF4F688179818A819B81C158D040B4
:1025A0000E94E1339B01AC01C701B6010E941435C2
:1025B0006B017C01C353DF4F288139814A815B81E4
:1025C000CD5CD040C757DF4F688179818A819B817C
:1025D000C958D0400E94E1339B01AC01C701B6014C
:1025E0000E94143565966CAF7DAF8EAF9FAF659737
:1025F000CB55DF4F288139814A815B81C55AD04054
:10260000C356DF4F688179818A819B81CD59D04043
:102610000E94E1336B017C01CF56DF4F2881398165
:102620004A815B81C159D040C754DF4F68817981AD
:102630008A819B81C95BD0400E94E133C354DF4F44
:10264000688379838A839B83CD5BD040CF56DF4FED
:10265000288139814A815B81C159D040CB54DF4FF9
:10266000688179818A819B81C55BD0400E94E1337A
:102670004B015C01CB55DF4F288139814A815B8159
:10268000C55AD040CB57DF4F688179818A819B81C1
:10269000C558D0400E94E133CF53DF4F6883798320
:1026A0008A839B83C15CD040A7019601CF57DF4F3F
:1026B000688179818A819B81C158D0400E94E13331
:1026C0006B017C01A3019201C753DF4F68817981BF
:1026D0008A819B81C95CD0400E94E1339B01AC019F
:1026E000C701B6010E9414356B017C01C354DF4F52
:1026F000288139814A815B81CD5BD040C757DF4F4C
:10270000688179818A819B81C958D0400E94E133D8
:102710009B01AC01C701B6010E9414356B017C011D
:10272000A3019201C351DF4F688179818A819B8126
:10273000CD5ED0400E94E1339B01AC01C701B601E0
:102740000E9413356B017C01A5019401CF57DF4F27
:10275000688179818A819B81C158D0400E94E13390
:102760009B01AC01C701B6010E9413356B017C01CE
:10277000CF53DF4F288139814A815B81C15CD040D2
:10278000C757DF4F688179818A819B81C958D040C2
:102790000E94E1339B01AC01C701B6010E941335D1
:1027A00069966CAF7DAF8EAF9FAF6997CB55DF4F0A
:1027B000288139814A815B81C55AD040CB56DF4F91
:1027C000688179818A819B81C559D0400E94E1331B
:1027D000C753DF4F688379838A839B83C95CD0406A
:1027E000C755DF4F288139814A815B81C95AD04062
:1027F000C754DF4F688179818A819B81C95BD04052
:102800000E94E133CB56DF4F688379838A839B83B1
:10281000C559D040C755DF4F288139814A815B8136
:10282000C95AD040CB54DF4F688179818A819B811E
:10283000C55BD0400E94E1334B015C01CB55DF4FBB
:10284000288139814A815B81C55AD040C756DF4F04
:10285000688179818A819B81C959D0400E94E13386
:10286000C756DF4F688379838A839B83C959D040D9
:10287000C753DF4F288139814A815B81C95CD040D1
:10288000CF57DF4F688179818A819B81C158D040C1
:102890000E94E1336B017C01F7FAF094F7F8F094B1
:1028A000A3019201CF52DF4F688179818A819B8198
:1028B000C15DD0400E94E1339B01AC01C701B6016C
:1028C0000E9413356B017C01CB56DF4F2881398183
:1028D0004A815B81C559D040C757DF4F68817981F4
:1028E0008A819B81C958D0400E94E1339B01AC0191
:1028F000C701B6010E9413356B017C01A30192014F
:10290000C752DF4F688179818A819B81C95DD04040
:102910000E94E1339B01AC01C701B6010E9414354E
:102920006B017C01A5019401CF57DF4F688179814C
:102930008A819B81C158D0400E94E1339B01AC0148
:10294000C701B6010E9414356B017C01C756DF4FE9
:10295000288139814A815B81C959D040C757DF4FEF
:10296000688179818A819B81C958D0400E94E13376
:102970009B01AC01C701B6010E9414356D966CAF86
:102980007DAF8EAF9FAF6D97C753DF4F28813981E1
:102990004A815B81C95CD040CB57DF4F6881798128
:1029A0008A819B81C558D0400E94E1336B017C0134
:1029B000CF56DF4F288139814A815B81C159D04090
:1029C000CF52DF4F688179818A819B81C15DD04080
:1029D0000E94E1339B01AC01C701B6010E9414358E
:1029E0006B017C01CB56DF4F288139814A815B81A5
:1029F000C559D040C356DF4F688179818A819B8158
:102A0000CD59D0400E94E1339B01AC01C701B60112
:102A10000E9414356B017C01CF56DF4F288139812C
:102A20004A815B81C159D040C752DF4F68817981AB
:102A30008A819B81C95DD0400E94E1339B01AC013A
:102A4000C701B6010E9413356B017C01A5019401F9
:102A5000CB57DF4F688179818A819B81C558D040EF
:102A60000E94E1339B01AC01C701B6010E941335FE
:102A70006B017C01C756DF4F288139814A815B8118
:102A8000C959D040C356DF4F688179818A819B81C3
:102A9000CD59D0400E94E1339B01AC01C701B60182
:102AA0000E941335A1966CAF7DAF8EAF9FAFA197FB
:102AB000C755DF4F288139814A815B81C95AD0408F
:102AC000CF55DF4F688179818A819B81C15AD0407F
:102AD0000E94E1336B017C01CF56DF4F28813981A1
:102AE0004A815B81C159D040C355DF4F68817981EC
:102AF0008A819B81CD5AD0400E94E1334B015C0119
:102B0000A7019601CF57DF4F688179818A819B8128
:102B1000C158D0400E94E1336B017C01A3019201B6
:102B2000CB51DF4F688179818A819B81C55ED0401E
:102B30000E94E1339B01AC01C701B6010E9414352C
:102B40006B017C01CB53DF4F288139814A815B8146
:102B5000C55CD040C357DF4F688179818A819B81F2
:102B6000CD58D0400E94E1339B01AC01C701B601B2
:102B70000E9414356B017C01A3019201CF51DF4FFC
:102B8000688179818A819B81C15ED0400E94E13356
:102B90009B01AC01C701B6010E9413356B017C019A
:102BA000A5019401CF57DF4F688179818A819B818C
:102BB000C158D0400E94E1339B01AC01C701B6016E
:102BC0000E9413356B017C01C353DF4F288139818B
:102BD0004A815B81CD5CD040C357DF4F68817981EA
:102BE0008A819B81CD58D0400E94E1339B01AC018A
:102BF000C701B6010E941335A5966CAF7DAF8EAFAD
:102C00009FAFA597CB55DF4F288139814A815B81E2
:102C1000C55AD040CF55DF4F688179818A819B8129
:102C2000C15AD0400E94E1336B017C01CF56DF4F87
:102C3000288139814A815B81C159D040CF54DF4F0F
:102C4000688179818A819B81C15BD0400E94E13398
:102C50004B015C01A7019601CF57DF4F6881798155
:102C60008A819B81C158D0400E94E1336B017C0175
:102C7000F7FAF094F7F8F094A3019201CF50DF4FE8
:102C8000688179818A819B81C15FD0400E94E13354
:102C90009B01AC01C701B6010E9413356B017C0199
:102CA000C354DF4F288139814A815B81CD5BD0409D
:102CB000C357DF4F688179818A819B81CD58D0408D
:102CC0000E94E1339B01AC01C701B6010E9413359C
:102CD0006B017C01A3019201C751DF4F68817981AB
:102CE0008A819B81C95ED0400E94E1339B01AC0187
:102CF000C701B6010E9414356B017C01A501940146
:102D0000CF57DF4F688179818A819B81C158D0403C
:102D10000E94E1339B01AC01C701B6010E9414354A
:102D20006B017C01CF53DF4F288139814A815B8160
:102D3000C15CD040C357DF4F688179818A819B8114
:102D4000CD58D0400E94E1339B01AC01C701B601D0
:102D50000E941435A9966CAF7DAF8EAF9FAFA99737
:102D6000CB55DF4F288139814A815B81C55AD040DC
:102D7000C355DF4F688179818A819B81CD5AD040CC
:102D80000E94E1334B015C01C755DF4F2881398137
:102D90004A815B81C95AD040CF54DF4F6881798125
:102DA0008A819B81C15BD0400E94E1336B017C0131
:102DB000A5019401CF57DF4F688179818A819B817A
:102DC000C158D0400E94E133C757DF4F68837983F1
:102DD0008A839B83C958D040A3019201C352DF4F1D
:102DE000688179818A819B81CD5DD0400E94E133E9
:102DF0009B01AC01C757DF4F688179818A819B8134
:102E0000C958D0400E941435C757DF4F6883798373
:102E10008A839B83C958D040CB56DF4F28813981A4
:102E20004A815B81C559D040C357DF4F68817981A2
:102E30008A819B81CD58D0400E94E1339B01AC0137
:102E4000C757DF4F688179818A819B81C958D040FB
:102E50000E941435C757DF4F688379838A839B8329
:102E6000C958D040A3019201CB52DF4F68817981CC
:102E70008A819B81C55DD0400E94E1339B01AC01FA
:102E8000C757DF4F688179818A819B81C958D040BB
:102E90000E9413352B013C01A7019601CF57DF4F4C
:102EA000688179818A819B81C158D0400E94E13339
:102EB0009B01AC01C301B2010E9413352B013C01FF
:102EC000C756DF4F288139814A815B81C959D0407B
:102ED000C357DF4F688179818A819B81CD58D0406B
:102EE0000E94E1339B01AC01C301B2010E94133582
:102EF000AD966CAF7DAF8EAF9FAFAD97A50194013E
:102F0000CB57DF4F688179818A819B81C558D0403A
:102F10000E94E1334B015C01B7FAB094B7F8B0946A
:102F2000CF56DF4F288139814A815B81C159D0401A
:102F3000C352DF4F688179818A819B81CD5DD0400A
:102F40000E94E1339B01AC01C501B4010E9413351D
:102F50004B015C01CB56DF4F288139814A815B816F
:102F6000C559D040CF55DF4F688179818A819B81D7
:102F7000C15AD0400E94E1339B01AC01C501B401AC
:102F80000E9413354B015C01CF56DF4F28813981F8
:102F90004A815B81C159D040CB52DF4F6881798132
:102FA0008A819B81C55DD0400E94E1339B01AC01C9
:102FB000C501B4010E9414354B015C01A7019601C3
:102FC000CB57DF4F688179818A819B81C558D0407A
:102FD0000E94E1339B01AC01C501B4010E9414358C
:102FE0006B017C01C756DF4F288139814A815B81A3
:102FF000C959D040CF55DF4F688179818A819B8143
:10300000C15AD0400E94E1339B01AC01C701B60117
:103010000E941435E1966CAF7DAF8EAF9FAFE19704
:10302000D80191964D905D906D907C909497959677
:103030008D909D90AD90BC90989799968D919D9113
:103040000D90BC91A02DCF57DF4F88839983AA8321
:10305000BB83C158D04025962CAD3DAD4EAD5FAD84
:103060002597C301B2010E94E1336B017C012996CF
:103070002CAD3DAD4EAD5FAD2997C501B4010E94A9
:10308000E1339B01AC01C701B6010E9414356B010D
:103090007C012D962CAD3DAD4EAD5FAD2D97CF573C
:1030A000DF4F688179818A819B81C158D0400E941D
:1030B000E1339B01AC01C701B6010E941435619652
:1030C0002CAD3DAD4EAD5FAD61970E941435CB5731
:1030D000DF4F688379838A839B83C558D040659688
:1030E0002CAD3DAD4EAD5FAD6597C301B2010E9401
:1030F000E1336B017C0169962CAD3DAD4EAD5FAD0A
:103100006997C501B4010E94E1339B01AC01C7017D
:10311000B6010E9414356B017C016D962CAD3DAD5E
:103120004EAD5FAD6D97CF57DF4F688179818A8152
:103130009B81C158D0400E94E1339B01AC01C70183
:10314000B6010E941435A1962CAD3DAD4EAD5FADDC
:10315000A1970E9414356B017C01A5962CAD3DAD65
:103160004EAD5FADA597C301B2010E94E1332B01C3
:103170003C01A9962CAD3DAD4EAD5FADA997C50103
:10318000B4010E94E1339B01AC01C301B2010E9472
:1031900014354B015C01AD962CAD3DAD4EAD5FAD30
:1031A000AD97CF57DF4F688179818A819B81C15864
:1031B000D0400E94E1339B01AC01C501B4010E94E3
:1031C0001435E1962CAD3DAD4EAD5FADE1970E945B
:1031D00014352B013C01CB57DF4F288139814A81BF
:1031E0005B81C558D0400E9493354B015C010E9421
:1031F0003237CF57DF4F688379838A839B83C158E7
:10320000D040C501B4010E94F235C357DF4F688337
:1032100079838A839B83CD58D04023E333E343E70C
:1032200050E4CF57DF4F688179818A819B81C158F3
:10323000D0400E94E1339B01AC01C301B2010E9466
:1032400013352B013C0123E333E343E750E4C35739
:10325000DF4F688179818A819B81CD58D0400E945F
:10326000E1339B01AC01CB57DF4F688179818A81C3
:103270009B81C558D0400E9413359B01AC010E9430
:10328000E133CF57DF4F688379838A839B83C158AB
:10329000D040A3019201C301B2010E94E133CB5798
:1032A000DF4F688379838A839B83C558D040A70109
:1032B0009601C701B6010E94E133CF57DF4F288145
:1032C00039814A815B81C158D0400E941435CB5767
:1032D000DF4F288139814A815B81C558D0400E94E7
:1032E00014350E9440372B013C0120E030E0A90159
:1032F0000E947B3318160CF094C12DEC3CEC40E896
:1033000051E4C301B2010E94253718160CF492C192
:103310002CE939E949E750E4C301B2010E947B334B
:1033200087FF08C02CE9422E29E9522E29E7622E98
:1033300020E4722EA3019201C301B2010E94E13385
:10334000C357DF4F688379838A839B83CD58D040EE
:10335000CB57DF4F288139814A815B81C558D040E6
:10336000CF57DF4F688179818A819B81C158D040D6
:103370000E9414350E9440379B01AC01C701B60181
:103380000E949335CF57DF4F688379838A839B836D
:10339000C158D0402AE431EE4FE352E4C357DF4F27
:1033A000688179818A819B81CD58D0400E941335F4
:1033B0006B017C0126E636E646E051E4C301B2012A
:1033C0000E94E1339B01AC01C701B6010E94F735B1
:1033D0000E940235CF57DF4F288139814A815B81B6
:1033E000C158D0400E9414352BED3FE049EC5FE31B
:1033F0000E9414356B017C012DEC3CEC40E851E45B
:10340000C301B2010E947B33412C512C320187FF52
:1034100026C0C357DF4F288139814A815B81CD584F
:10342000D04061E070E886EA92E40E9413352BE711
:1034300034E148E852E40E94F7350E9402359B01CE
:10344000AC016BED7FE089E490E40E94133522E942
:103450003AE046E05FE30E9414352B013C01D801BD
:10346000D9968D919D910D90BC91A02DCF57DF4F96
:1034700088839983AA83BB83C158D04020E030E081
:10348000A901C501B4010E947B3387FF0AC027E868
:1034900036E149EC50E4C501B4010E9414354B01FA
:1034A0005C01A5019401CF57DF4F688179818A8142
:1034B0009B81C158D0400E9413359B01AC016BED3C
:1034C0007FE089EC9FE30E9413354B015C0120E013
:1034D00030E0A9010E947B3387FF0AC027E836E16C
:1034E00049EC50E4C501B4010E9414354B015C0164
:1034F000A5019401C501B4010E948437811123C044
:1035000020EF37E245E652E4C501B4010E94E13301
:103510004B015C0120E030E044EB53E40E9425378E
:10352000181654F420E030E044EB53E4C501B40134
:103530000E9413354B015C01F801E158FF4F808276
:103540009182A282B382A7019601C701B6010E94AF
:103550008437811123C020EF37E245E652E4C701EA
:10356000B6010E94E1336B017C0120E030E044EBC6
:1035700053E40E942537181654F420E030E044EB61
:1035800053E4C701B6010E9413356B017C01F801B9
:10359000ED57FF4FC082D182E282F382A3019201F4
:1035A000C301B2010E948437811123C020EF37E2AA
:1035B00045E652E4C301B2010E94E1336B017C0194
:1035C00020E030E044EB53E40E942537181654F411
:1035D00020E030E044EB53E4C701B6010E9413350C
:1035E0006B017C01F801E957FF4FC082D182E28272
:1035F000F382C850DF4F0FB6F894DEBF0FBECDBFC9
:10360000DF91CF911F910F91FF90EF90DF90CF90BE
:10361000BF90AF909F908F907F906F905F904F90F2
:1036200008959CEA492E95EC592E97E2692E97E36E
:10363000792E80CE8DEC482E8CEC582E80E8682EAA
:1036400081E4782E77CE2F923F924F925F926F92C5
:103650007F928F929F92AF92BF92CF92DF92EF9222
:10366000FF920F931F93CF93DF93CDB7DEB765978C
:103670000FB6F894DEBF0FBECDBF1C017E876D87ED
:103680005C8B4B8B2D8BFC01E55EFA4F8081918129
:103690002BE8289F8001299F100D1124780127EC29
:1036A000E20EF11CE20CF31CD10192962D913D919A
:1036B0004D915C919597F701608571858285938521
:1036C0000E9414352B013C01D1015E962D913D9154
:1036D0004D915C919197F701648175818681978105
:1036E0000E9414354B015C01D7012D913D914D9104
:1036F0005C91F101628D738D848D958D0E941435DE
:103700006B017C01F101E65DFA4FC082D182E28259
:10371000F382349680829182A282B3823496408270
:10372000518262827382F101E00FF11FED52FF4F6F
:103730008CE0DE01119601900D928A95E1F78101EE
:103740000A5C1A4F8CE0FE013196D80101900D926F
:103750008A95E1F7A3019201D80118966D917D91A8
:103760008D919C911B970E9413356F87788B898B65
:103770009A8BA5019401F8016481758186819781F6
:103780000E9413352B013C01A7019601D8016D91D0
:103790007D918D919C910E9413354B015C01F1014B
:1037A000EE58FA4F80829182A282B3823496408290
:1037B00051826282738234968F859889A989BA89E9
:1037C00080839183A283B3839D8991116DC0ED574E
:1037D000F1404080518062807380C301B2010E9439
:1037E00032376B017C01C301B2010E94F235ECE07B
:1037F000AD85BE85EA9F3001EB9F700C112423013B
:10380000FFE34F1AFBEF5F0A420C531C9B01AC0114
:103810000E941435A50194010E941335D2016D93C5
:103820007D938D939C931397F201148215821682D7
:103830001782A7019601C701B6010E9414352F8592
:10384000388949895A890E941335D20118966D9397
:103850007D938D939C931B97620C731CD301A75E81
:10386000BB4FF8018CE001900D928A95E1F7D301EE
:10387000AF59BB4FF1017A961CE001900D921A9559
:10388000E1F7ED85FE85E20DF31DEB5EFA4F108248
:10389000ED85FE85EE0FFF1FE20DF31DE75FFA4F8A
:1038A0002B893C893183208365960FB6F894DEBF5F
:1038B0000FBECDBFDF91CF911F910F91FF90EF9081
:1038C000DF90CF90BF90AF909F908F907F906F9040
:1038D0005F904F903F902F9008952F923F924F927C
:1038E0005F926F927F928F929F92AF92BF92CF9290
:1038F000DF92EF92FF920F931F93CF93DF93CDB799
:10390000DEB7C256D1090FB6F894DEBF0FBECDBFE9
:103910001C01A3967FAF6EAFA39769017A01CA011C
:10392000B9010E94F23525966CAF7DAF8EAF9FAF87
:103930002597C701B6010E9432374B015C012596DD
:103940002CAD3DAD4EAD5FAD259760E070E080E8F9
:103950009FE30E94133561966CAF7DAF8EAF9FAF32
:103960006197D8018D919D910D90BC91A02D2996C4
:103970008CAF9DAFAEAFBFAF2997D80114968D9194
:103980009D910D90BC91A02D2D968CAF9DAFAEAFAB
:10399000BFAF2D97F801C084D184E284F3842996C7
:1039A0002CAD3DAD4EAD5FAD299761966CAD7DAD53
:1039B0008EAD9FAD61970E94E13365966CAF7DAF90
:1039C0008EAF9FAF65972D962CAD3DAD4EAD5FADE3
:1039D0002D9761966CAD7DAD8EAD9FAD61970E94C8
:1039E000E13369966CAF7DAF8EAF9FAF6997CE0123
:1039F00001960E94030669962CAD3DAD4EAD5FADBC
:103A00006997C701B6010E94E1332B013C01299659
:103A10002CAD3DAD4EAD5FAD2997C501B4010E94FF
:103A2000E1339B01AC01C301B2010E9414356D96D4
:103A30006CAF7DAF8EAF9FAF6D9765962CAD3DADF2
:103A40004EAD5FAD6597C701B6010E94E1332B0112
:103A50003C012D962CAD3DAD4EAD5FAD2D97C50112
:103A6000B4010E94E133A1966CAF7DAF8EAF9FAFE2
:103A7000A197A7019601C501B4010E94E1334B0152
:103A80005C0165962CAD3DAD4EAD5FAD6597299659
:103A90006CAD7DAD8EAD9FAD29970E94E13325962B
:103AA0002CAD3DAD4EAD5FAD25970E9414356983B9
:103AB0007A838B839C8365962CAD3DAD4EAD5FAD17
:103AC00065972D966CAD7DAD8EAD9FAD2D970E9407
:103AD000E133A50194010E9413356D837E838F83AA
:103AE0009887A1962CAD3DAD4EAD5FADA197C301BA
:103AF000B2010E94143569877A878B879C871D865F
:103B00001E861F86188A69962CAD3DAD4EAD5FAD01
:103B1000699729966CAD7DAD8EAD9FAD29970E94BA
:103B2000E133A50194010E941435698B7A8B8B8B4C
:103B30009C8B69962CAD3DAD4EAD5FAD69972D96D2
:103B40006CAD7DAD8EAD9FAD2D970E94E133259676
:103B50002CAD3DAD4EAD5FAD25970E9414356D8BFC
:103B60007E8B8F8B988F6D968CAD9DADAEADBFADBE
:103B70006D97898F9A8FAB8FBC8F1D8E1E8E1F8E77
:103B800018A2A1962CAD3DAD4EAD5FADA197C3017E
:103B9000B2010E94133569A37AA38BA39CA36D96EF
:103BA0008CAD9DADAEADBFAD6D978DA39EA3AFA304
:103BB000B8A7A701960161966CAD7DAD8EAD9FADA6
:103BC00061970E94E133A70196010E94E133259697
:103BD0002CAD3DAD4EAD5FAD25970E94143569A764
:103BE0007AA78BA79CA71DA61EA61FA618AA19AA6E
:103BF0001AAA1BAA1CAA1DAA1EAA1FAA18AE19AE91
:103C00001AAE1BAE1CAE80E090E0A0E8BFE32196A8
:103C10008CAF9DAFAEAFBFAF2197AE014F5F5F4F8F
:103C2000A3966EAD7FADA397C1010E944906C10165
:103C3000CE59DF4F0FB6F894DEBF0FBECDBFDF9178
:103C4000CF911F910F91FF90EF90DF90CF90BF9099
:103C5000AF909F908F907F906F905F904F903F902C
:103C60002F9008951F920F920FB60F9211240BB64A
:103C70000F922F933F934F935F936F937F938F9305
:103C80009F93AF93BF93EF93FF938EE193E00E94D6
:103C90000C02FF91EF91BF91AF919F918F917F9116
:103CA0006F915F914F913F912F910F900BBE0F90AD
:103CB0000FBE0F901F9018951F920F920FB60F9284
:103CC00011240BB60F922F938F939F93EF93FF9333
:103CD000E0912E03F0912F038081E0913403F09165
:103CE000350382FD1DC09081809137038F5F8F73F4
:103CF00020913803821741F0E0913703F0E0E25E53
:103D0000FC4F958F80933703FF91EF919F918F9197
:103D10002F910F900BBE0F900FBE0F901F90189514
:103D20008081F2CF1F920F920FB60F9211242F9322
:103D30003F938F939F93AF93BF9380911A0390917A
:103D40001B03A0911C03B0911D033091190323E0C4
:103D5000230F2D3758F50196A11DB11D209319038E
:103D600080931A0390931B03A0931C03B0931D032D
:103D70008091150390911603A0911703B091180339
:103D80000196A11DB11D8093150390931603A09376
:103D90001703B0931803BF91AF919F918F913F91FB
:103DA0002F910F900FBE0F901F90189526E8230FAC
:103DB0000296A11DB11DD2CF1F920F920FB60F9286
:103DC00011240BB60F922F933F934F935F936F93F2
:103DD0007F938F939F93AF93BF93EF93FF9348E2AB
:103DE00051E064E271E090E080E00E947804FF918D
:103DF000EF91BF91AF919F918F917F916F915F9163
:103E00004F913F912F910F900BBE0F900FBE0F90CF
:103E10001F9018951F920F920FB60F9211240BB698
:103E20000F922F933F934F935F936F937F938F9353
:103E30009F93AF93BF93EF93FF9348EA50E064EAF8
:103E400070E083E090E00E947804FF91EF91BF91D1
:103E5000AF919F918F917F916F915F914F913F9122
:103E60002F910F900BBE0F900FBE0F901F901895C3
:103E70001F920F920FB60F9211240BB60F922F9331
:103E80003F934F935F936F937F938F939F93AF93E2
:103E9000BF93EF93FF9348E950E064E970E082E05C
:103EA00090E00E947804FF91EF91BF91AF919F91B4
:103EB0008F917F916F915F914F913F912F910F90D3
:103EC0000BBE0F900FBE0F901F9018951F920F9270
:103ED0000FB60F9211240BB60F922F933F934F936F
:103EE0005F936F937F938F939F93AF93BF93EF9362
:103EF000FF9348E850E064E870E081E090E00E94C1
:103F00007804FF91EF91BF91AF919F918F917F9135
:103F10006F915F914F913F912F910F900BBE0F903A
:103F20000FBE0F901F901895FC0190918402903362
:103F300098F481E0890F809384029083892F90E028
:103F4000FC01EE0FFF1FE80FF91FEB57FD4F88EB49
:103F50009BE09283818308958FEF808308954F9231
:103F60005F926F927F928F929F92AF92BF92CF9209
:103F7000DF92EF92FF92CF93DF9310922103109282
:103F8000200388EE93E0A0E0B0E0809322039093BA
:103F90002303A0932403B09325038AE092E0909337
:103FA0001F0380931E0385EC90E090932B03809376
:103FB0002A0384EC90E090932D0380932C0380ECF3
:103FC00090E090932F0380932E0381EC90E09093E8
:103FD00031038093300382EC90E09093330380931D
:103FE000320386EC90E09093350380933403109273
:103FF0003703109238031092390310923A0383E387
:10400000482E542C83E9682E80E4782E40923F0499
:1040100050924004609241047092420493E3C92E8E
:10402000DC2C93E1E92E90E4F92EC0924304D09267
:104030004404E0924504F092460423E3822E982C37
:1040400023E0A22E21E4B22E8092470490924804ED
:10405000A0924904B0924A0480E090E0A0EBB0E462
:104060008093330490933404A0933504B0933604C2
:10407000C0923704D0923804E0923904F0923A04A6
:1040800010923B0410923C0410923D0410923E04A6
:1040900040922704509228046092290470922A04C6
:1040A000C0922B04D0922C04E0922D04F0922E04A6
:1040B00083E393E3A3E0B1EC80932F049093300467
:1040C000A0933104B093320483E393E3A3E9B0EC0B
:1040D00080931B0490931C04A0931D04B0931E04B2
:1040E000C0921F04D0922004E0922104F092220496
:1040F0008092230490922404A0922504B092260476
:1041000080E090E0A0EBB0EC80930F04909310045B
:10411000A0931104B093120483E393E3A3E5B0E406
:104120008093130490931404A0931504B093160481
:1041300010921704109218041092190410921A0485
:1041400083E393E3A3E9B0EC809303049093040426
:10415000A0930504B0930604C0920704D09208040B
:10416000E0920904F0920A0483E393E3A3E0B1EC44
:1041700080930B0490930C04A0930D04B0930E0451
:1041800083E095E1A0EFB0E48093F7039093F80308
:10419000A093F903B093FA031092FB031092FC036F
:1041A0001092FD031092FE0388E892EDAFE4B1E4B3
:1041B0008093FF0390930004A0930104B093020442
:1041C00080E090E0A0E7B1E48093EB039093EC03F0
:1041D000A093ED03B093EE031092EF031092F0035F
:1041E0001092F1031092F2031092F3031092F40371
:1041F0001092F5031092F60380EB9BE6A0EFB0E47B
:104200008093DF039093E003A093E103B093E20374
:104210001092E3031092E4031092E5031092E60378
:104220008BE799EBAFE4B1EC8093E7039093E8035D
:10423000A093E903B093EA0386EF95EDAFEEB0ECFF
:104240008093D3039093D403A093D503B093D60364
:104250001092D7031092D8031092D9031092DA0368
:104260008CEB94EEAFE4B1E48093DB039093DC033A
:10427000A093DD03B093DE038FEF9FEFAFE6B1ECC9
:104280008093C7039093C803A093C903B093CA0354
:104290001092CB031092CC031092CD031092CE0358
:1042A0008FEF92E3A8ECBBEB8093CF039093D00306
:1042B000A093D103B093D20388EA99EEAFEEB0ECAD
:1042C0008093BB039093BC03A093BD03B093BE0344
:1042D0001092BF031092C0031092C1031092C20348
:1042E0008CE09FEDAFE4B1EC8093C3039093C403E3
:1042F000A093C503B093C6034092CF045092D0045C
:104300006092D1047092D204C092D304D092D404AB
:10431000E092D504F092D6048092D7049092D8040B
:10432000A092D904B092DA0480E090E0A0EBB0E46F
:104330008093C3049093C404A093C504B093C604AF
:10434000C092C704D092C804E092C904F092CA0493
:104350001092CB041092CC041092CD041092CE0493
:104360004092B7045092B8046092B9047092BA04B3
:10437000C092BB04D092BC04E092BD04F092BE0493
:1043800083E393E3A3E0B1EC8093BF049093C00474
:10439000A093C104B093C20483E393E3A3E9B0EC18
:1043A0008093AB049093AC04A093AD04B093AE049F
:1043B000C092AF04D092B004E092B104F092B20483
:1043C0008092B3049092B404A092B504B092B60463
:1043D00080E090E0A0EBB0EC80939F049093A00469
:1043E000A093A104B093A20483E393E3A3E5B0E414
:1043F0008093A3049093A404A093A504B093A6046F
:104400001092A7041092A8041092A9041092AA0472
:1044100083E393E3A3E9B0EC809393049093940433
:10442000A0939504B0939604C0929704D0929804F8
:10443000E0929904F0929A0483E393E3A3E0B1EC51
:1044400080939B0490939C04A0939D04B0939E043E
:1044500083E095E1A0EFB0E4809387049093880413
:10446000A0938904B0938A0410928B0410928C0458
:1044700010928D0410928E0488E892EDAFE4B1E4BE
:1044800080938F0490939004A0939104B09392042E
:1044900080E090E0A0E7B1E480937B0490937C04FB
:1044A000A0937D04B0937E0410927F041092800448
:1044B000109281041092820410928304109284045A
:1044C000109285041092860480EB9BE6A0EFB0E486
:1044D00080936F0490937004A0937104B09372045E
:1044E0001092730410927404109275041092760462
:1044F0008BE799EBAFE4B1EC809377049093780469
:10450000A0937904B0937A0486EF95EDAFEEB0EC0A
:104510008093630490936404A0936504B09366044D
:1045200010926704109268041092690410926A0451
:104530008CEB94EEAFE4B1E480936B0490936C0445
:10454000A0936D04B0936E048FEF9FEFAFE6B1ECD4
:104550008093570490935804A0935904B0935A043D
:1045600010925B0410925C0410925D0410925E0441
:104570008FEF92E3A8ECBBEB80935F049093600411
:10458000A0936104B093620488EA99EEAFEEB0ECB8
:1045900080934B0490934C04A0934D04B0934E042D
:1045A00010924F0410925004109251041092520431
:1045B0008CE09FEDAFE4B1EC8093530490935404EE
:1045C000A0935504B09356046AE172E089EA9BE037
:1045D0000E94740C40929D0B50929E0B60929F0B18
:1045E0007092A00BC092A10BD092A20BE092A30BF1
:1045F000F092A40B8092A50B9092A60BA092A70B11
:10460000B092A80B80E090E0A0EBB0E48093910B17
:104610009093920BA093930BB093940BC092950B35
:10462000D092960BE092970BF092980B1092990B08
:1046300010929A0B10929B0B10929C0B4092850B40
:104640005092860B6092870B7092880BC092890BF8
:10465000D0928A0BE0928B0BF0928C0B83E393E366
:10466000A3E0B1EC80938D0B90938E0BA0938F0BF6
:10467000B093900B83E393E3A3E9B0EC8093790BC1
:1046800090937A0BA0937B0BB0937C0BC0927D0B25
:10469000D0927E0BE0927F0BF092800B8092810B88
:1046A0009092820BA092830BB092840B80E090E0FA
:1046B000A0EBB0EC80936D0B90936E0BA0936F0BFF
:1046C000B093700B83E393E3A3E5B0E48093710BA5
:1046D0009093720BA093730BB093740B1092750BA5
:1046E0001092760B1092770B1092780B83E393E382
:1046F000A3E9B0EC8093610B9093620BA093630BE2
:10470000B093640BC092650BD092660BE092670B7E
:10471000F092680B83E393E3A3E0B1EC8093690B21
:1047200090936A0BA0936B0BB0936C0B83E095E1B5
:10473000A0EFB0E48093550B9093560BA093570BCA
:10474000B093580B1092590B10925A0B10925B0BAE
:1047500010925C0B88E892EDAFE4B1E480935D0BBE
:1047600090935E0BA0935F0BB093600B80E090E0A2
:10477000A0E7B1E48093490B90934A0BA0934B0BB5
:10478000B0934C0B10924D0B10924E0B10924F0B9E
:104790001092500B1092510B1092520B1092530B1F
:1047A0001092540B80EB9BE6A0EFB0E480933D0B9E
:1047B00090933E0BA0933F0BB093400B1092410B94
:1047C0001092420B1092430B1092440B8BE799EB23
:1047D000AFE4B1EC8093450B9093460BA093470B4D
:1047E000B093480B86EF95EDAFEEB0EC8093310BB4
:1047F0009093320BA093330BB093340B1092350B84
:104800001092360B1092370B1092380B8CEB94EE03
:10481000AFE4B1E48093390B90933A0BA0933B0B38
:10482000B0933C0B8FEF9FEFAFE6B1EC8093250B7D
:104830009093260BA093270BB093280B1092290B73
:1048400010922A0B10922B0B10922C0B8FEF92E3ED
:10485000A8ECBBEB80932D0B90932E0BA0932F0B0A
:10486000B093300B88EA99EEAFEEB0EC8093190B61
:1048700090931A0BA0931B0BB0931C0B10921D0B63
:1048800010921E0B10921F0B1092200B8CE09FEDCC
:10489000AFE4B1EC8093210B9093220BA093230BF8
:1048A000B093240B6BE172E085EF9AE00E94740CE8
:1048B00066E272E08BEF9AE00E94740C6FE272E0A5
:1048C00081E09BE00E94740C69E372E087E09BE06A
:1048D0000E94740C62E472E08DE09BE00E94740C14
:1048E0006AE472E083E19BE00E94740C4092E90A62
:1048F0005092EA0A6092EB0A7092EC0AC092ED0ABA
:10490000D092EE0AE092EF0AF092F00A8092F10A59
:104910009092F20AA092F30AB092F40A80E090E03A
:10492000A0EBB0E48093DD0A9093DE0AA093DF0A47
:10493000B093E00AC092E10AD092E20AE092E30A60
:10494000F092E40A1092E50A1092E60A1092E70A41
:104950001092E80A4092D10A5092D20A6092D30A89
:104960007092D40AC092D50AD092D60AE092D70AA1
:10497000F092D80A83E393E3A3E0B1EC8093D90AE1
:104980009093DA0AA093DB0AB093DC0A83E393E303
:10499000A3E9B0EC8093C50A9093C60AA093C70A16
:1049A000B093C80AC092C90AD092CA0AE092CB0A50
:1049B000F092CC0A8092CD0A9092CE0AA092CF0AB1
:1049C000B092D00A80E090E0A0EBB0EC8093B90AFE
:1049D0009093BA0AA093BB0AB093BC0A83E393E313
:1049E000A3E5B0E48093BD0A9093BE0AA093BF0AEA
:1049F000B093C00A1092C10A1092C20A1092C30A60
:104A00001092C40A83E393E3A3E9B0EC8093AD0A68
:104A10009093AE0AA093AF0AB093B00AC092B10AC5
:104A2000D092B20AE092B30AF092B40A83E393E31D
:104A3000A3E0B1EC8093B50A9093B60AA093B70AAD
:104A4000B093B80A83E095E1A0EFB0E48093A10AA7
:104A50009093A20AA093A30AB093A40A1092A50A65
:104A60001092A60A1092A70A1092A80A88E892ED5E
:104A7000AFE4B1E48093A90A9093AA0AA093AB0A89
:104A8000B093AC0A80E090E0A0E7B1E48093950A8F
:104A90009093960AA093970AB093980A1092990A55
:104AA00010929A0A10929B0A10929C0A10929D0AE8
:104AB00010929E0A10929F0A1092A00A80EB9BE629
:104AC000A0EFB0E48093890A90938A0AA0938B0A9E
:104AD000B0938C0A10928D0A10928E0A10928F0A4F
:104AE0001092900A8BE799EBAFE4B1EC8093910AB6
:104AF0009093920AA093930AB093940A86EF95ED4F
:104B0000AFEEB0EC80937D0A90937E0AA0937F0A6B
:104B1000B093800A1092810A1092820A1092830A3E
:104B20001092840A8CEB94EEAFE4B1E48093850A92
:104B30009093860AA093870AB093880A8FEF9FEF1D
:104B4000AFE6B1EC8093710A9093720AA093730A56
:104B5000B093740A1092750A1092760A1092770A2E
:104B60001092780A8FEF92E3A8ECBBEB8093790A5E
:104B700090937A0AA0937B0AB0937C0A88EA99EE14
:104B8000AFEEB0EC8093650A9093660AA093670A33
:104B9000B093680A1092690A10926A0A10926B0A1E
:104BA00010926C0A8CE09FEDAFE4B1EC80936D0A3B
:104BB00090936E0AA0936F0AB093700A8DE095E00F
:104BC0000E9403068DE495E00E940306CDE8D5E03F
:104BD000CE010E94941FCE0103960E94941FCE0125
:104BE00006960E94941FCE01CD960E94030680E493
:104BF00090E00E94C6377C010E940306FE01E35844
:104C0000FF4FF182E082C557DF4F98E0CF3CD907D4
:104C1000F9F61092D0081092CF081092D208109294
:104C2000D10881E08093D3088BED9FE0A9ECBFE32E
:104C30008093D4089093D508A093D608B093D70852
:104C40008093D8089093D908A093DA08B093DB0832
:104C50008093DC089093DD08A093DE08B093DF0812
:104C60008093E0089093E108A093E208B093E308F2
:104C7000DF91CF91FF90EF90DF90CF90BF90AF90FA
:104C80009F908F907F906F905F904F900895CF93FB
:104C9000DF93CDB7DEB7C65ED1400FB6F894DEBF66
:104CA0000FBECDBF789484B5826084BD84B5816029
:104CB00084BD85B5826085BD85B5816085BD8091E7
:104CC0006E00816080936E0010928100809181005F
:104CD0008260809381008091810081608093810057
:104CE000809180008160809380008091B100846019
:104CF0008093B1008091B00081608093B00080917A
:104D000091008260809391008091910081608093F6
:104D10009100809190008160809390008091A1002B
:104D200082608093A1008091A10081608093A100A6
:104D30008091A00081608093A00080912101826019
:104D400080932101809121018160809321018091D4
:104D5000200181608093200180917A00846080939B
:104D60007A0080917A00826080937A0080917A0044
:104D7000816080937A0080917A00806880937A00C5
:104D80001092C100E0912E03F0912F0382E0808306
:104D9000E0912A03F0912B031082E0912C03F09113
:104DA0002D038FEC808310923603E0913203F09153
:104DB000330386E08083E0913003F09131038081FA
:104DC00080618083E0913003F091310380818860BD
:104DD0008083E0913003F09131038081806880838B
:104DE000E0913003F091310380818F7D808384E5F1
:104DF00092E00E94570C8CE0EFECF4E0DE01A3504F
:104E0000BF4F01900D928A95E1F78CE0FE01E350CF
:104E1000FF4FAAEBB5E001900D928A95E1F789E189
:104E200094E0A6E8BFE38093C6059093C705A093DE
:104E3000C805B093C905AE0143505F4F6AEC75E0F9
:104E4000CE0183579E4F0E940E0C80E4FE01E35773
:104E5000FE4FAAECB5E001900D928A95E1F78CE047
:104E6000E3ECF4E0DE01A75FBE4F01900D928A955E
:104E7000E1F78CE0FE01E75FFE4FA5E4B6E00190AC
:104E80000D928A95E1F710925106109252061092F7
:104E9000530610925406AE01475F5E4F65E576E01B
:104EA000CE0183579E4F0E940E0C80E4FE01E35713
:104EB000FE4FA5E5B6E001900D928A95E1F78CE0F2
:104EC000E7EBF4E0DE01AB5EBE4F01900D928A95F8
:104ED000E1F78CE0FE01EB5EFE4FA0EDB6E0019045
:104EE0000D928A95E1F781E895E9A7EAB0E480930D
:104EF000DC069093DD06A093DE06B093DF06AE01DC
:104F00004B5E5E4F60EE76E0CE0183579E4F0E946F
:104F10000E0C80E4FE01E357FE4FA0EEB6E00190D8
:104F20000D928A95E1F78CE0EBEAF4E0DE01AF5DEB
:104F3000BE4F01900D928A95E1F78CE0FE01EF5D86
:104F4000FE4FA1E7B8E001900D928A95E1F789E163
:104F500094E0A6E0B0E480937D0890937E08A0934F
:104F60007F08B0938008AE014F5D5E4F61E878E046
:104F7000CE0183579E4F0E940E0C80E4FE01E35742
:104F8000FE4FA1E8B8E001900D928A95E1F78CE020
:104F9000EFE9F4E0DE01A35DBE4F01900D928A952A
:104FA000E1F78CE0FE01E35DFE4FA6EEB7E0019075
:104FB0000D928A95E1F787E896E1A9E4B0E4809341
:104FC000F2079093F307A093F407B093F507AE01AF
:104FD000435D5E4F66EF77E0CE0183579E4F0E94A0
:104FE0000E0C80E4FE01E357FE4FA6EFB7E0019000
:104FF0000D928A95E1F78CE0E3E9F4E0DE01A75C2D
:10500000BE4F01900D928A95E1F78CE0FE01E75CBE
:10501000FE4FABE5B7E001900D928A95E1F78AE487
:105020009CE0A6E8B0E48093670790936807A0939C
:105030006907B0936A07AE01475C5E4F6BE677E0A5
:10504000CE0183579E4F0E940E0C80E4FE01E35771
:10505000FE4FABE6B7E001900D928A95E1F724E0B0
:1050600030E043E050E062E070E08DE895E00E94BF
:10507000980527E030E046E050E065E070E088E128
:1050800096E00E9498052AE030E049E050E068E0B0
:1050900070E083EA96E00E94980522E230E041E267
:1050A00050E060E270E084E498E00E94980525E218
:1050B00030E044E250E063E270E089EB97E00E9468
:1050C000980528E230E047E250E066E270E08EE2C8
:1050D00097E00E9498058CE0E7E8F4E0DE01AB5B26
:1050E000BE4F01900D928A95E1F78CE0FE01EB5BDB
:1050F000FE4FA2EAB5E001900D928A95E1F78CE0AF
:10510000FE01EB5BFE4FAEEAB5E001900D928A9591
:10511000E1F78CE0EBE7F4E0DE01AF5ABE4F01901F
:105120000D928A95E1F78CE0FE01EF5AFE4FADE259
:10513000B6E001900D928A95E1F78CE0FE01EF5AFE
:10514000FE4FA9E3B6E001900D928A95E1F78CE05D
:10515000EFE6F4E0DE01A35ABE4F01900D928A956E
:10516000E1F78CE0FE01E35AFE4FA8EBB6E00190B8
:105170000D928A95E1F78CE0FE01E35AFE4FA4EC14
:10518000B6E001900D928A95E1F78CE0E3E6F4E059
:10519000DE01A759BE4F01900D928A95E1F78CE090
:1051A000FE01E759FE4FA9E5B8E001900D928A95FE
:1051B000E1F78CE0FE01E759FE4FA5E6B8E001906B
:1051C0000D928A95E1F78CE0E7E5F4E0DE01AB585B
:1051D000BE4F01900D928A95E1F78CE0FE01EB58ED
:1051E000FE4FAEECB7E001900D928A95E1F78CE0AE
:1051F000FE01EB58FE4FAAEDB7E001900D928A95A3
:10520000E1F78CE0EBE4F4E0DE01AF57BE4F019034
:105210000D928A95E1F78CE0FE01EF57FE4FA3E473
:10522000B7E001900D928A95E1F78CE0FE01EF570F
:10523000FE4FAFE4B7E001900D928A95E1F710922E
:10524000DD041092DE041092DF041092E00480E08E
:1052500090E0A0E0B0E48093E1049093E204A09396
:10526000E304B093E4041092E5041092E604109273
:10527000E7041092E8044DED54E06DE075E0CE01D6
:1052800083579E4F0E940E0C80E4FE01E357FE4FB1
:10529000ADE0B5E001900D928A95E1F780E4EDE094
:1052A000F5E0ADE4B5E001900D928A95E1F710923A
:1052B000F7091092F6093BE8F32E0DE415E0209172
:1052C000F6093091F70926303105C4F4F29EC00189
:1052D000F39E900D1124FC01E65FF94F11830083CA
:1052E00083579A4F0E94BD0C8091F6099091F7095F
:1052F00001969093F7098093F609E1CF2FEF33EDF4
:1053000080E3215030408040E1F700C0000010925F
:10531000F7091092F6091BE82091F6093091F70978
:10532000263031059CF4129FC001139F900D11246B
:1053300083579A4F0E9432058091F6099091F709A0
:1053400001969093F7098093F609E6CF81EB90E000
:105350000E94C6376C0101E010E0DC011D961C9331
:105360000E931C978FEF9FEF1F969C938E931E9723
:105370008BED9FE0A9ECBFE3F601808B918BA28BB4
:10538000B38B148A168A158A8BED94E091838083FF
:105390003601F7E76F0E711C84EC99E0D301179684
:1053A0009C938E93169780E190E00E94C6377C0113
:1053B00086E090E00E94C637FC0165E0862E912CC5
:1053C000918280821383028373E0A72EB12CB58271
:1053D000A482D70111969C938E931396BC92AE92A1
:1053E000129717961C921E92169786E090E00E94E4
:1053F000C637FC019182808213830283B582A48226
:10540000D70119969C938E9318971B96BC92AE92D7
:105410001A971F961C921E921E97F301F182E0824A
:10542000A2E02A2E312C33822282960121583F4F4E
:10543000C353DE4F39832883CD5CD140B2E86B2E55
:10544000B6E07B2ED90117967C926E92169789E66C
:1054500097E215969C938E93149780E390E00E94B8
:10546000C6377C0182E090E00E94C637FC011182C1
:105470001082D70111969C938E9313961C930E93D2
:10548000129717961C921E92169782E090E00E9447
:10549000C637FC0111830083D70119969C938E9324
:1054A00018971B961C930E931A971F961C921E9288
:1054B0001E9782E090E00E94C637FC013182208274
:1054C000D70151969C938E93509753961C930E93AD
:1054D000529757961C921E92569782E090E00E9437
:1054E000C637FC01B182A082D70159969C938E9356
:1054F00058975B961C930E935A975F961C921E9238
:105500005E9782E090E00E94C63724E0422E512C44
:10551000FC0151824082D70191969C938E93909783
:1055200093961C930E93929797961C921E92969721
:1055300082E090E00E94C637FC0191828082D70110
:1055400099969C938E9398979B961C930E939A97FB
:105550009F961C921E929E97C353DE4FE881F9815D
:10556000CD5CD140F182E08226E030E033832283BB
:10557000C60189579F4FC353DE4F99838883CD5C03
:10558000D140DC0117967C926E92169784E891E1E7
:1055900015969C938E93149780E390E00E94C637F3
:1055A0007C0182E090E00E94C637FC0191828082FB
:1055B000D70111969C938E9313961C930E9312977A
:1055C00017961C921E92169782E090E00E94C637B2
:1055D000FC0151824082D70119969C938E931897B3
:1055E0001B961C930E931A971F961C921E921E9741
:1055F00082E090E00E94C637FC01B182A082D70110
:1056000051969C938E93509753961C930E9352975A
:1056100057961C921E92569782E090E00E94C637E1
:10562000FC0111821082D70159969C938E93589752
:105630005B961C930E935A975F961C921E925E97F0
:1056400082E090E00E94C637FC0111830083D701FD
:1056500091969C938E93909793961C930E9392970A
:1056600097961C921E92969782E090E00E94C63711
:10567000FC01B182A082D70199969C938E93989752
:105680009B961C930E939A979F961C921E929E97A0
:10569000C353DE4FE881F981CD5CD140F182E082D5
:1056A00026E030E033832283C60181579F4FC353E6
:1056B000DE4F99838883CD5CD140DC0117967C92C4
:1056C0006E92169783E29DE015969C938E931497A5
:1056D00080E390E00E94C6377C0182E090E00E9467
:1056E000C637FC0191828082D70111969C938E93DC
:1056F00013961C930E93129717961C921E92169750
:1057000082E090E00E94C637FC0151824082D701BE
:1057100019969C938E9318971B961C930E931A9729
:105720001F961C921E921E9782E090E00E94C63740
:10573000FC01B182A082D70151969C938E93509721
:1057400053961C930E93529757961C921E925697FF
:1057500082E090E00E94C637FC0111821082D701DE
:1057600059969C938E9358975B961C930E935A97D9
:105770005F961C921E925E9782E090E00E94C63770
:10578000FC0111830083D70191969C938E9390978F
:1057900093961C930E93929797961C921E929697AF
:1057A00082E090E00E94C637FC0131822082D7015E
:1057B00099969C938E9398979B961C930E939A9789
:1057C0009F961C921E929E97C353DE4FE881F981EB
:1057D000CD5CD140F182E08226E030E03383228349
:1057E000D092DC04C092DB0482E692E00E94570C67
:1057F0000091DB041091DC04D80154968C915497ED
:105800008111CCC11C968D919C910197B9F5E090C6
:10581000D108F090D208E114F104D9F0B1E0EB1610
:10582000F10461F527E836E149EC5FE36091DC08BB
:105830007091DD088091DE089091DF080E94133599
:105840009F772CEA35EC47E257E30E947B3318162A
:10585000ACF08091D30881113EC08091DC0890911A
:10586000DD08A091DE08B091DF088093E0089093F6
:10587000E108A093E208B093E30831C027E836E1DD
:1058800049EC5FE36091E0087091E1088091E208E3
:105890009091E3080E9413359F772CEA35EC47E29C
:1058A00057E30E947B3318160CF056C187E896E147
:1058B000A9ECBFE3F801808B918BA28BB38B8FB7E0
:1058C000F89440911A0350911B0360911C0370914E
:1058D0001D038FBF5FC1EA94EF2809F4BECF109279
:1058E000F7091092F6095BE84CE08091F609909177
:1058F000F709863091057CF5589FF001599FF00D0E
:105900001124E255FA4F2CE0DE01AF50BF4F019059
:105910000D922A95E1F7489F9001499F300D11247F
:10592000D901AC50B74FFE01EF50FF4F642F0190EB
:105930000D926A95E1F7D901A456B64FFE01319652
:10594000242F01900D922A95E1F701969093F70983
:105950008093F609CACF87E896E1A9ECBFE3F80186
:10596000808B918BA28BB38B8FB7F89440911A03E5
:1059700050911B0360911C0370911D038FBF009118
:10598000DB041091DC04E091CF08F091D008D8013D
:1059900054968C9154978111FDC01D961C921E92B5
:1059A0001C971396FC93EE93129753E0EE0FFF1F94
:1059B0005A95E1F7E00FF11FE958FF4F88E0149680
:1059C00001900D928A95E1F7F8012681378128012F
:1059D000FFEA4F0E511CD2012D933C937801B7E999
:1059E000EB0EF11CF70111821082D7018D919C9171
:1059F0001197821793075CF4FC01EE0FFF1FE00F75
:105A0000F11F108E178A01968D939C93EECFF801AB
:105A1000A284B3848FB7F89440911A0350911B036A
:105A200060911C0370911D038FBF88EF9FEF30E0E2
:105A300020E0D80116966D917C91179726173707AD
:105A40004CF5BC01685F7F4F1496CD90DC90F60159
:105A5000E60FF71F12161306D4F48C0D9D1DDC0102
:105A60001496CD90DC90159716968D919C918C0D87
:105A70009D1DD8011896CD90DC908C0D9D1D8A0D32
:105A80009B1D958384832F5F3F4FCB01D2CF5583DE
:105A90004483F9CFF701118210821801F1EA2F0E29
:105AA000311C38012FE9620E711C580135EAA30E32
:105AB000B11C48018BE9880E911CD701ED91FC9136
:105AC000D2018D919C91E817F9070CF063C0CF01CA
:105AD000B3E0880F991FBA95E1F7D8011496ED91BC
