:020000040000FA
:100000000C9439010C946A010C946A010C946A01F5
:100010000C946A010C946A010C946A010C946A01B4
:100020000C946A010C946A010C946A010C946A01A4
:100030000C946A010C946A010C946A010C946A0194
:100040000C946A010C94E7110C946A010C946A01F7
:100050000C946A010C946A010C946A010C941311BB
:100060000C946A010C946A010C946A010C946A0164
:100070000C946A010C946A010C946A010C946A0154
:100080000C94B9110C946A010C946A010C946A01E5
:100090000C946A010C946A010C946A010C946A0134
:1000A0000C946A010C946A010C948B110C946A01F3
:1000B0000C946A010C946A010C946A010C945D1111
:1000C0000C946A010C946A010C946A010C946A0104
:1000D0000C946A010C946A010C946A010C946A01F4
:1000E0000C946A0105A84CCDB2D44EB93836A90299
:1000F0000C50B9918688083CA6AAAA2ABE00000026
:10010000803F0C945F020C9444040C9470020C9495
:1001100088020C9476020C9445020C94AB030C9468
:100120007E020C9440020C9463020C945A0E0C94C0
:100130007A020C9466020C94D20D0C945B020C941F
:1001400092020C94D4030C9456030C9457020C9412
:1001500096020C946C020C9484020C9433130C944D
:10016000FD030C948C020C943C0B00000A0B02095A
:100170000C0D0E0807030401000000000000000041
:10018000000000000000000000000000000000006F
:10019000000000000000121110000000000000002C
:1001A000000000000000000000000000000000004F
:1001B00000002200250028002B002E003100340012
:1001C00002010000050108010B01000021002400CC
:1001D00027002A002D003000330001010000040137
:1001E00007010A01050505050705080808080202B8
:1001F00002020A0A080804040404010101010101C1
:1002000001010303030303030303040707070C0CA3
:100210000C0C0C0C0C0C020202020606060606066A
:1002200006060B0B0B0B0B0B0B0B0102102020080F
:100230000810204010204080020102010804020141
:1002400001020408102040808040201008040201B0
:100250008004020180402010080402010804020109
:100260000102040810204080010204081020408090
:10027000331311241FBECFEFD1E2DEBFCDBF00E0AC
:100280000CBF12E0A0E0B2E0ECE9FBE200E00BBF43
:1002900002C007900D92A431B107D9F720E2A4E182
:1002A000B2E001C01D92AC34B207E1F711E0C9E33E
:1002B000D1E000E006C021970109802FFE010E94D5
:1002C000C415C833D10780E00807A9F70E945D1262
:1002D0000C94CC150C940000CF93DF93DC018C912F
:1002E000803308F06DC0CB01FB01E65DFD4F24912A
:1002F0008C519E4FFC018491882399F090E0880FE7
:10030000991FFC01E653FE4FC591D491FC01E055C5
:10031000FE4F859194918FB7F894E881E22BE883A2
:100320008FBF8C91282F30E0F901EE0FFF1FE20FF5
:10033000F31FE454F04E962F9F736081607C692B0D
:10034000608311961C92119712961C9212972CE0C2
:10035000622F0E94B815829FB001112430E020E086
:10036000AB01420F531FFA01EE0FFF1FE40FF51F01
:10037000E454F04E908196FD16C02F5F3F4F2C3015
:10038000310571F7813001F51092800082E0809391
:1003900081001092850010928400B19A80916F00C4
:1003A000826080936F00EC918E2F90E0FC01EE0F45
:1003B000FF1FE80FF91FE454F04E808180648083B2
:1003C0008C91DF91CF910895823061F4109290006A
:1003D00080939100109295001092940088BB8093B6
:1003E0007100E1CF833069F41092A00082E0809325
:1003F000A1001092A5001092A40089BB8093720006
:10040000D2CF8111D0CF1092200182E080932101C0
:1004100010922501109224018ABB80937300C3CFF0
:10042000282F30E0F901E659FE4F9491F901E65D7D
:10043000FD4F44912C513E4FF9012491222309F4A0
:1004400035C0992311F191509231F8F4E92FF0E081
:100450008827E25DFD4F8F4F0C94C4155F02630245
:10046000400257025B02450266026C02700276028D
:100470007A027E028402880245028C02920296026F
:10048000809180008F7780938000E22FF0E0EE0F64
:10049000FF1FE055FE4FA591B4918FB7F894EC91F2
:1004A000611148C040954E234C938FBF08958091B1
:1004B00080008F7DE8CF80918000877FE4CF84B576
:1004C0008F7784BDE2CF84B58F7DFBCF8091B00064
:1004D0008F778093B000D9CF8091B0008F7DF9CF16
:1004E000809190008F7780939000CFCF8091900083
:1004F0008F7DF9CF80919000877FF5CF8091A0000C
:100500008F778093A000C1CF8091A0008F7DF9CF1D
:100510008091A000877FF5CF809120018F77809315
:100520002001B3CF809120018F7DF9CF80912001F0
:10053000877FF5CF4E2BB8CFAF92BF92CF92DF928D
:10054000EF92FF920F931F93CF93DF936B017A018A
:10055000EC01CB5EDD4F28813CE0389F8001399F64
:10056000100D1124A0901402B12C27FF1FC0FB0115
:100570001182108288818F5F888388819801280F7B
:10058000311D87FD3A95F6012A153B051CF488813B
:100590008C30C4F180819181049680349C4908F4A8
:1005A00073C0F60180819181049670C088819801A2
:1005B000280F311D87FD3A952A153B05DCF6888109
:1005C000A801480F511D87FD5A95FA01EE0FFF1F34
:1005D000E40FF51FE454F04E808186FFCBCF888175
:1005E000F801E80FF11D87FDFA95CF01EE0FFF1F0F
:1005F000E80FF91FE454F04E808160E08F730E9491
:100600001002B8CF808191812881A801420F511D2D
:1006100027FD5A959A01FA01EE0FFF1FE20FF31F13
:10062000E454F04E21813281820F931FF7019183B0
:10063000808388819801280F311D87FD3A95F90143
:10064000EE0FFF1FE20FF31FE454F04E808186FF90
:1006500022C08881080F111D87FD1A95F801EE0F41
:10066000FF1FE00FF11FE454F04E808161E08F73B3
:10067000DF91CF911F910F91FF90EF90DF90CF907E
:10068000BF90AF900C94100280E49CE9F701918335
:1006900080838FEF8883DF91CF911F910F91FF901F
:1006A000EF90DF90CF90BF90AF900895CF92DF9200
:1006B000EF92FF920F931F93CF93DF93CDB7DEB7E7
:1006C0002C970FB6F894DEBF0FBECDBFC982DA8279
:1006D000EB82FC820D831E832F83388749875A87DC
:1006E0006B877C87DC014D915C91EDB7FEB73C9741
:1006F0000FB6F894FEBF0FBEEDBFADB7BEB71196F3
:100700002CE0FC013E9601900D922A95E1F7DA016A
:10071000ED91FC91C980DA80EB80FC800D811E8117
:100720002F81388549855A856B857C8519950FB64B
:10073000F894DEBF0FBECDBF2C960FB6F894DEBF87
:100740000FBECDBFDF91CF911F910F91FF90EF9022
:10075000DF90CF900895CF92DF92EF92FF920F93A8
:100760001F93FB01EE54FF4F44A555A566A577A541
:10077000048D158D268D378DC484D584E684F78449
:10078000FC01C082D182E282F38204831583268336
:10079000378340875187628773871F910F91FF903E
:1007A000EF90DF90CF900895CF92DF92EF92FF927B
:1007B0000F931F93FB01EE58FF4F44A555A566A567
:1007C00077A5048D158D268D378DC484D584E68458
:1007D000F784FC01C082D182E282F3820483158314
:1007E0002683378340875187628773871F910F91D4
:1007F000FF90EF90DF90CF900895EF92FF920F93CC
:100800001F93CF93DF937C0124EFE20EF11CF701DD
:10081000A081B181A617B70781F1EB018C01109778
:1008200051F0ED91FC9111970280F381E02D70E081
:1008300060E0CD011995D701CD93DC93E881F98172
:100840000680F781E02DCE011995D701ED91FC913D
:10085000EE50FF4F808191818017910771F0E88100
:10086000F9810280F381E02DB801CE01DF91CF91B3
:100870001F910F91FF90EF901994DF91CF911F91ED
:100880000F91FF90EF900895EF92FF920F931F93B7
:10089000CF93DF937C0122EFE20EF11CF701A081E0
:1008A000B181A617B70749F18B01EC01109751F000
:1008B000ED91FC9111970480F581E02D70E060E0EE
:1008C000CD011995D7010D931C93E881F98106801C
:1008D000F781E02DCE011995F70180819181DC012E
:1008E000ED91FC910480F581E02DBE01DF91CF9167
:1008F0001F910F91FF90EF901994DF91CF911F916D
:100900000F91FF90EF900895EF92FF920F931F9336
:10091000CF93DF93EC017A01890180519E4F0E94B1
:100920006C01B701CE0183519D4F0E946C01B8014B
:10093000CE0186519C4FDF91CF911F910F91FF9077
:10094000EF900C946C01CF92DF92EF92FF92CF93D5
:10095000DF93EC01CB01BA016AA77BA78CA79DA707
:1009600023E333E345E652E40E94FA140E94341470
:100970009B01C650DF4F603242E07407CCF52981FD
:10098000E8E8CE2ED12CC21AD10827FDD394CC0C86
:10099000DD1CCC0CDD1C0D2C000CEE08FF084A8180
:1009A00028E532E0241B310947FD3395220F331F20
:1009B000220F331F032E000C440B550B2C193D093D
:1009C0004E095F09DB01653B710514F0A4EBB0E053
:1009D000B7FF02C0B0E0A0E00E94891324EB30E032
:1009E00040E050E00E945F132C0D3D1D4E1D5F1D29
:1009F000E881E03378F5898148E850E0481B5109E7
:100A000087FD5395440F551F440F551F2417350775
:100A10007CF08A8148E552E0481B510987FD5395D7
:100A2000440F551F440F551F241735070CF4A90117
:100A300042505109440F551F2FB7F8948E2F90E064
:100A4000FC01EE0FFF1FE80FF91FE454F04E528334
:100A500041832FBFDF91CF91FF90EF90DF90CF9038
:100A60000895FC0180E090E0A0E8BFE380839183DB
:100A7000A283B38314821582168217821086118690
:100A8000128613861486158616861786108A118A92
:100A9000128A138A848B958BA68BB78B108E118E3E
:100AA000128E138E148E158E168E178E10A211A212
:100AB00012A213A214A215A216A217A280A791A790
:100AC000A2A7B3A714A615A616A617A610AA11AA20
:100AD00012AA13AA14AA15AA16AA17AA10AE11AE22
:100AE00012AE13AE84AF95AFA6AFB7AF08952F92F5
:100AF0003F924F925F926F927F928F929F92AF92AE
:100B0000BF92CF92DF92EF92FF920F931F93CF93FA
:100B1000DF93CDB7DEB7C854D1090FB6F894DEBF66
:100B20000FBECDBF1C018B0127965FAF4EAF27973D
:100B30000E943105D8018D909D90AD90BC90279674
:100B4000AEADBFAD27978D919D910D90BC91A02D1D
:100B500089879A87AB87BC87F801C480D580E680F7
:100B6000F7802796AEADBFAD279750968D919D919A
:100B70000D90BC91A02D8D879E87AF87B88B808507
:100B80009185A285B38589839A83AB83BC8327969D
:100B9000AEADBFAD279790968D919D910D90BC9174
:100BA000A02D898B9A8BAB8BBC8B84859585A68574
:100BB000B7858D839E83AF83B8872796AEADBFADD3
:100BC0002797D0968D919D910D90BC91A02D8D8BE6
:100BD0009E8BAF8BB88F29853A854B855C85C50187
:100BE000B4010E94FA142B013C012D853E854F85EE
:100BF0005889C701B6010E94FA149B01AC01C301D8
:100C0000B2010E94C3132B013C0129893A894B8907
:100C10005C8969817A818B819C810E94FA149B0195
:100C2000AC01C301B2010E94C3132B013C012D8909
:100C30003E894F89588D6D817E818F8198850E9474
:100C4000FA149B01AC01C301B2010E94C313F1016C
:100C500060837183828393832796AEADBFAD279760
:100C600014968D919D910D90BC91A02D898F9A8F96
:100C7000AB8FBC8F2796AEADBFAD279754968D91A5
:100C80009D910D90BC91A02D8D8F9E8FAF8FB8A39D
:100C90002796AEADBFAD279794968D919D910D90FF
:100CA000BC91A02D89A39AA3ABA3BCA32796AEADFC
:100CB000BFAD2797D4968D919D910D90BC91A02D9D
:100CC0008DA39EA3AFA3B8A7298D3A8D4B8D5C8DC4
:100CD000C501B4010E94FA142B013C012D8D3E8DFB
:100CE0004F8D58A1C701B6010E94FA149B01AC01B7
:100CF000C301B2010E94C3132B013C0129A13AA1F7
:100D00004BA15CA169817A818B819C810E94FA143C
:100D10009B01AC01C301B2010E94C3132B013C0132
:100D20002DA13EA14FA158A56D817E818F8198850F
:100D30000E94FA149B01AC01C301B2010E94C313CB
:100D4000F10164837583868397832796AEADBFAD2B
:100D5000279718968D919D910D90BC91A02D89A7F4
:100D60009AA7ABA7BCA72796AEADBFAD279758965D
:100D70008D919D910D90BC91A02D8DA79EA7AFA7A1
:100D8000B8AB2796AEADBFAD279798968D919D9144
:100D90000D90BC91A02D89AB9AABABABBCAB2796A9
:100DA000AEADBFAD2797D8968D919D910D90BC911A
:100DB000A02D8DAB9EABAFABB8AF29A53AA54BA587
:100DC0005CA5C501B4010E94FA142B013C012DA5BC
:100DD0003EA54FA558A9C701B6010E94FA149B0170
:100DE000AC01C301B2010E94C3132B013C0129A92C
:100DF0003AA94BA95CA969817A818B819C810E9467
:100E0000FA149B01AC01C301B2010E94C3132B0170
:100E10003C012DA93EA94FA958AD6D817E818F81DE
:100E200098850E94FA149B01AC01C301B2010E9493
:100E3000C313F10160877187828793872796AEADD0
:100E4000BFAD27971C968D919D910D90BC91A02DC3
:100E500089AF9AAFABAFBCAF2796AEADBFAD27970A
:100E60005C968D919D910D90BC91A02D21968CAF9B
:100E70009DAFAEAFBFAF21972796AEADBFAD279761
:100E80009C968D919D910D90BC91A02D25968CAF37
:100E90009DAFAEAFBFAF25972796AEADBFAD27973D
:100EA000DC968D919D910D90BC91A02D29968CAFD3
:100EB0009DAFAEAFBFAF299729AD3AAD4BAD5CAD9D
:100EC000C501B4010E94FA144B015C0121962CADBE
:100ED0003DAD4EAD5FAD2197C701B6010E94FA143A
:100EE0009B01AC01C501B4010E94C3136B017C01DD
:100EF00025962CAD3DAD4EAD5FAD259769817A81CC
:100F00008B819C810E94FA149B01AC01C701B60140
:100F10000E94C3136B017C0129962CAD3DAD4EADF3
:100F20005FAD29976D817E818F8198850E94FA142B
:100F30009B01AC01C701B6010E94C313F101648794
:100F4000758786879787D80150968D909D90AD9034
:100F5000BC9053975496CD90DD90ED90FC905797B0
:100F600058968D919D910D90BC91A02D89839A8367
:100F7000AB83BC83D8015C968D919D910D90BC9103
:100F8000A02D8D839E83AF83B887A50194016985C9
:100F90007A858B859C850E94FA142B013C01A70160
:100FA00096016D857E858F8598890E94FA149B0134
:100FB000AC01C301B2010E94C3132B013C01298182
:100FC0003A814B815C8169897A898B899C890E94ED
:100FD000FA149B01AC01C301B2010E94C3132B019F
:100FE0003C012D813E814F8158856D897E898F8995
:100FF000988D0E94FA149B01AC01C301B2010E94BA
:10100000C313F101608B718B828B938BA5019401CB
:10101000698D7A8D8B8D9C8D0E94FA142B013C0179
:10102000A70196016D8D7E8D8F8D98A10E94FA1477
:101030009B01AC01C301B2010E94C3132B013C010F
:1010400029813A814B815C8169A17AA18BA19CA104
:101050000E94FA149B01AC01C301B2010E94C313A8
:101060002B013C012D813E814F8158856DA17EA1D0
:101070008FA198A50E94FA149B01AC01C301B20193
:101080000E94C313D10154966D937D938D939C93CD
:101090005797A501940169A57AA58BA59CA50E94E7
:1010A000FA142B013C01A70196016DA57EA58FA521
:1010B00098A90E94FA149B01AC01C301B2010E94DD
:1010C000C3132B013C0129813A814B815C8169A9C1
:1010D0007AA98BA99CA90E94FA149B01AC01C301B7
:1010E000B2010E94C3132B013C012D813E814F812F
:1010F00058856DA97EA98FA998AD0E94FA149B010D
:10110000AC01C301B2010E94C313F101608F718F62
:10111000828F938FA501940169AD7AAD8BAD9CADA3
:101120000E94FA144B015C01A701960121966CAD57
:101130007DAD8EAD9FAD21970E94FA149B01AC014D
:10114000C501B4010E94C3136B017C0129813A815E
:101150004B815C8125966CAD7DAD8EAD9FAD2597A5
:101160000E94FA149B01AC01C701B6010E94C3138F
:101170006B017C012D813E814F81588529966CAD94
:101180007DAD8EAD9FAD29970E94FA149B01AC01F5
:10119000C701B6010E94C313D1015C966D937D9384
:1011A0008D939C935F97F80180A091A0A2A0B3A01B
:1011B000C4A0D5A0E6A0F7A080A591A5A2A5B3A53F
:1011C00089839A83AB83BC8384A595A5A6A5B7A57F
:1011D0008D839E83AF83B887A501940169857A8545
:1011E0008B859C850E94FA142B013C01A701960176
:1011F0006D857E858F8598890E94FA149B01AC01CC
:10120000C301B2010E94C3132B013C0129813A8121
:101210004B815C8169897A898B899C890E94FA1447
:101220009B01AC01C301B2010E94C3132B013C011D
:101230002D813E814F8158856D897E898F89988D5A
:101240000E94FA149B01AC01C301B2010E94C313B6
:10125000F10160A371A382A393A3A5019401698DF9
:101260007A8D8B8D9C8D0E94FA142B013C01A70175
:1012700096016D8D7E8D8F8D98A10E94FA149B0131
:10128000AC01C301B2010E94C3132B013C012981AF
:101290003A814B815C8169A17AA18BA19CA10E94BA
:1012A000FA149B01AC01C301B2010E94C3132B01CC
:1012B0003C012D813E814F8158856DA17EA18FA17A
:1012C00098A50E94FA149B01AC01C301B2010E94CF
:1012D000C313D10194966D937D938D939C939797AF
:1012E000A501940169A57AA58BA59CA50E94FA1475
:1012F0002B013C01A70196016DA57EA58FA598A99C
:101300000E94FA149B01AC01C301B2010E94C313F5
:101310002B013C0129813A814B815C8169A97AA921
:101320008BA99CA90E94FA149B01AC01C301B201D4
:101330000E94C3132B013C012D813E814F815885B2
:101340006DA97EA98FA998AD0E94FA149B01AC01EA
:10135000C301B2010E94C313F10160A771A782A764
:1013600093A7A501940169AD7AAD8BAD9CAD0E94A8
:10137000FA144B015C01A701960121966CAD7DAD7D
:101380008EAD9FAD21970E94FA149B01AC01C5015F
:10139000B4010E94C3136B017C0129813A814B8106
:1013A0005C8125966CAD7DAD8EAD9FAD25970E947D
:1013B000FA149B01AC01C701B6010E94C3136B0173
:1013C0007C012D813E814F81588529966CAD7DAD84
:1013D0008EAD9FAD29970E94FA149B01AC01C70105
:1013E000B6010E94C313D1019C966D937D938D939A
:1013F0009C939F97F80180A891A8A2A8B3A884A95C
:1014000095A9A6A9B7A989839A83AB83BC8380AD2C
:1014100091ADA2ADB3AD8D839E83AF83B887C4ACCD
:10142000D5ACE6ACF7ACA501940169857A858B85CE
:101430009C850E94FA142B013C0129813A814B8141
:101440005C816D857E858F8598890E94FA149B0149
:10145000AC01C301B2010E94C3132B013C012D81D9
:101460003E814F81588569897A898B899C890E9440
:10147000FA149B01AC01C301B2010E94C3132B01FA
:101480003C01A70196016D897E898F89988D0E9404
:10149000FA149B01AC01C301B2010E94C313D10134
:1014A000D0966D937D938D939C93D397A5019401D2
:1014B000698D7A8D8B8D9C8D0E94FA142B013C01D5
:1014C00029813A814B815C816D8D7E8D8F8D98A1B4
:1014D0000E94FA149B01AC01C301B2010E94C31324
:1014E0002B013C012D813E814F81588569A17AA154
:1014F0008BA19CA10E94FA149B01AC01C301B20113
:101500000E94C3132B013C01A70196016DA17EA18E
:101510008FA198A50E94FA149B01AC01C301B201EE
:101520000E94C313F10164AB75AB86AB97ABA50109
:10153000940169A57AA58BA59CA50E94FA142B019C
:101540003C0129813A814B815C816DA57EA58FA5E7
:1015500098A90E94FA149B01AC01C301B2010E9438
:10156000C3132B013C012D813E814F81588569A910
:101570007AA98BA99CA90E94FA149B01AC01C30112
:10158000B2010E94C3132B013C01A70196016DA972
:101590007EA98FA998AD0E94FA149B01AC01C301EA
:1015A000B2010E94C313D101D8966D937D938D93A0
:1015B0009C93DB97A501940169AD7AAD8BAD9CAD91
:1015C0000E94FA144B015C0129813A814B815C81B4
:1015D00021966CAD7DAD8EAD9FAD21970E94FA1422
:1015E0009B01AC01C501B4010E94C3134B015C0116
:1015F0002D813E814F81588525966CAD7DAD8EAD98
:101600009FAD25970E94FA149B01AC01C501B4015E
:101610000E94C3134B015C01A701960129966CAD92
:101620007DAD8EAD9FAD29970E94FA149B01AC0150
:10163000C501B4010E94C313F10164AF75AF86AF59
:1016400097AFC101C85BDF4F0FB6F894DEBF0FBE86
:10165000CDBFDF91CF911F910F91FF90EF90DF9061
:10166000CF90BF90AF909F908F907F906F905F9042
:101670004F903F902F900895CF92DF92EF92FF927C
:101680000F931F93CF93DF93CDB7DEB7C054D1092B
:101690000FB6F894DEBF0FBECDBF8C01AB014E5428
:1016A0005F4FBE01645B7F4FCE0101960E947705BC
:1016B0008DA59EA5AFA5B8A94D8D5E8D6F8D78A126
:1016C000CD84DE84EF84F888F801C082D182E28282
:1016D000F382448355836683778380879187A287CB
:1016E000B387C801C05CDF4F0FB6F894DEBF0FBEF2
:1016F000CDBFDF91CF911F910F91FF90EF90DF90C1
:10170000CF9008952F923F924F925F926F927F9267
:101710008F929F92AF92BF92CF92DF92EF92FF9201
:101720000F931F93CF93DF93CDB7DEB7C256D10986
:101730000FB6F894DEBF0FBECDBF1C01A3967FAFDE
:101740006EAFA39769017A01CA01B9010E942F14F3
:1017500025966CAF7DAF8EAF9FAF2597C701B601C1
:101760000E9467154B015C0125962CAD3DAD4EAD39
:101770005FAD259760E070E080E89FE30E94C213B0
:1017800061966CAF7DAF8EAF9FAF6197D8018D91A1
:101790009D910D90BC91A02D29968CAF9DAFAEAFC1
:1017A000BFAF2997D80114968D919D910D90BC9152
:1017B000A02D2D968CAF9DAFAEAFBFAF2D97F8018A
:1017C000C084D184E284F38429962CAD3DAD4EAD26
:1017D0005FAD299761966CAD7DAD8EAD9FAD619784
:1017E0000E94FA1465966CAF7DAF8EAF9FAF659780
:1017F0002D962CAD3DAD4EAD5FAD2D9761966CAD88
:101800007DAD8EAD9FAD61970E94FA1469966CAF65
:101810007DAF8EAF9FAF6997CE0101960E943105D3
:1018200069962CAD3DAD4EAD5FAD6997C701B60170
:101830000E94FA142B013C0129962CAD3DAD4EAD12
:101840005FAD2997C501B4010E94FA149B01AC0158
:10185000C301B2010E94C3136D966CAF7DAF8EAF12
:101860009FAF6D9765962CAD3DAD4EAD5FAD659765
:10187000C701B6010E94FA142B013C012D962CAD34
:101880003DAD4EAD5FAD2D97C501B4010E94FA1478
:10189000A1966CAF7DAF8EAF9FAFA197A7019601C8
:1018A000C501B4010E94FA144B015C0165962CAD90
:1018B0003DAD4EAD5FAD659729966CAD7DAD8EADFE
:1018C0009FAD29970E94FA1425962CAD3DAD4EADE3
:1018D0005FAD25970E94C31369837A838B839C83B2
:1018E00065962CAD3DAD4EAD5FAD65972D966CAD5B
:1018F0007DAD8EAD9FAD2D970E94FA14A501940188
:101900000E94C2136D837E838F839887A1962CAD2E
:101910003DAD4EAD5FADA197C301B2010E94C313AF
:1019200069877A878B879C871D861E861F86188A03
:1019300069962CAD3DAD4EAD5FAD699729966CAD06
:101940007DAD8EAD9FAD29970E94FA14A50194013B
:101950000E94C313698B7A8B8B8B9C8B69962CAD01
:101960003DAD4EAD5FAD69972D966CAD7DAD8EAD45
:101970009FAD2D970E94FA1425962CAD3DAD4EAD2E
:101980005FAD25970E94C3136D8B7E8B8F8B988FD5
:101990006D968CAD9DADAEADBFAD6D97898F9A8FB5
:1019A000AB8FBC8F1D8E1E8E1F8E18A2A1962CADE4
:1019B0003DAD4EAD5FADA197C301B2010E94C21310
:1019C00069A37AA38BA39CA36D968CAD9DADAEADA0
:1019D000BFAD6D978DA39EA3AFA3B8A7A701960136
:1019E00061966CAD7DAD8EAD9FAD61970E94FA148E
:1019F000A70196010E94FA1425962CAD3DAD4EAD7F
:101A00005FAD25970E94C31369A77AA78BA79CA7F0
:101A10001DA61EA61FA618AA19AA1AAA1BAA1CAAA6
:101A20001DAA1EAA1FAA18AE19AE1AAE1BAE1CAE76
:101A300080E090E0A0E8BFE321968CAF9DAFAEAF11
:101A4000BFAF2197AE014F5F5F4FA3966EAD7FADE5
:101A5000A397C1010E947705C101CE59DF4F0FB690
:101A6000F894DEBF0FBECDBFDF91CF911F910F91D4
:101A7000FF90EF90DF90CF90BF90AF909F908F90AE
:101A80007F906F905F904F903F902F9008958F922E
:101A90009F92AF92BF92CF92DF92EF92FF920F93FD
:101AA0001F93CF93DF93CDB7DEB7CC54D1090FB6D8
:101AB000F894DEBF0FBECDBF7C016B010E943105E3
:101AC000812C912C80E8A82E8FE3B82E25968CAE21
:101AD0009DAEAEAEBFAE259729961CAE1DAE1EAE16
:101AE0001FAE29972D961CAE1DAE1EAE1FAE2D97B4
:101AF000F60120813181428153818E010F5B1F4F9E
:101B0000B701CE0101960E94820B25961CAE1DAE38
:101B10001EAE1FAE259729968CAE9DAEAEAEBFAE63
:101B200029972D961CAE1DAE1EAE1FAE2D97F60149
:101B30002481358146815781B701CE0101960E94EB
:101B4000820B25961CAE1DAE1EAE1FAE25972996A4
:101B50001CAE1DAE1EAE1FAE29972D968CAE9DAE4F
:101B6000AEAEBFAE2D97F6012085318542855385F7
:101B7000B701CE0101960E94820BC701C45BDF4F03
:101B80000FB6F894DEBF0FBECDBFDF91CF911F918E
:101B90000F91FF90EF90DF90CF90BF90AF909F900C
:101BA0008F900895CF92DF92EF92FF920F931F9341
:101BB000CF93DF93CDB7DEB7C05CD1090FB6F894F1
:101BC000DEBF0FBECDBF8C017C0182E7E80EF11CA9
:101BD00080E4F801F296D70101900D928A95E1F721
:101BE000CE0101960E943105F801828D938DA48D5E
:101BF000B58D8D879E87AF87B88B868D978DA0A179
:101C0000B1A18D8F9E8FAF8FB8A382A193A1A4A104
:101C1000B5A18DA79EA7AFA7B8ABAE014F5F5F4F31
:101C2000B701CE018F5B9F4F0E947705B8016A5DB7
:101C30007F4FCE0101960E94470DF801EE50FF4FF5
:101C400060817181C8018E549F4F6C0180E4F7015F
:101C50006115710561F06E547F4FA701CE018F575A
:101C60009F4F0E94770580E4FE01EF57FF4FD6019A
:101C700001900D928A95E1F7F801EC50FF4F8081B9
:101C80009181009739F0DC01ED91FC910680F7819C
:101C9000E02D1995C054DF4F0FB6F894DEBF0FBE8C
:101CA000CDBFDF91CF911F910F91FF90EF90DF900B
:101CB000CF9008952F923F924F925F926F927F92B2
:101CC0008F929F92AF92BF92CF92DF92EF92FF924C
:101CD0000F931F93CF93DF93CDB7DEB7CC5FD109BE
:101CE0000FB6F894DEBF0FBECDBF5C01CF57DF4FFC
:101CF000C882C158D040CE57DF4FD882C258D0409A
:101D0000CD57DF4FE882C358D040CC57DF4FF88221
:101D1000C458D040CB57DF4F0883C558D040CA576E
:101D2000DF4F1883C658D040C957DF4F2883C758A4
:101D3000D040C857DF4F3883C858D040C757DF4F0F
:101D40004883C958D040C657DF4F5883CA58D0403F
:101D5000C557DF4F6883CB58D040C457DF4F7883D7
:101D6000CC58D0408CE0FE01EF57FF4FD5011296C2
:101D700001900D928A95E1F78CE0FE01EE5EFE4F38
:101D8000D5011E9601900D928A95E1F7CE018F5BE9
:101D90009F4F0E943105CF57DF4F88819981AA81DB
:101DA000BB81C158D04061968CAF9DAFAEAFBFAF85
:101DB0006197CB57DF4F88819981AA81BB81C55834
:101DC000D040A1968CAF9DAFAEAFBFAFA197C75724
:101DD000DF4F88819981AA81BB81C958D040E196A3
:101DE0008CAF9DAFAEAFBFAFE19785010E5C1F4FCB
:101DF000AE014F5B5F4FB801CE0101960E9477059F
:101E000080E4FE013196D80101900D928A95E1F7A8
:101E1000BE016E5E7E4FCE0183579F4F0E94470DDD
:101E200080E4FE01E357FF4FD80101900D928A959F
:101E3000E1F7D501D2962D903D904D905C90D597CD
:101E4000D6966D907D908D909C90D997CF52DF4F14
:101E5000688279828A829B82C15DD040DA966D90D9
:101E60007D908D909C90DD97CB50DF4F688279827A
:101E70008A829B82C55FD040F501FE9660807180AA
:101E800082809380CB52DF4F688279828A829B82E4
:101E9000C55DD040349680819181A281B381C752C3
:101EA000DF4F88839983AA83BB83C95DD040349672
:101EB0006080718082809380C352DF4F6882798214
:101EC0008A829B82CD5DD040349680819181A281AF
:101ED000B381CF51DF4F88839983AA83BB83C15ECF
:101EE000D04034966080718082809380CB51DF4FE8
:101EF000688279828A829B82C55ED04034968081D6
:101F00009181A281B381C751DF4F88839983AA83CE
:101F1000BB83C95ED040349660807180828093809C
:101F2000C351DF4F688279828A829B82CD5ED04026
:101F3000349680819181A281B381CF50DF4F888315
:101F40009983AA83BB83C15FD0403496608071803F
:101F500082809380C750DF4F688279828A829B8219
:101F6000C95FD0403496C080D180E280F38034963F
:101F700000811181228133813496408151816281B7
:101F80007381349680819181A281B38134962082BD
:101F9000318242825382CF52DF4F688079808A80BB
:101FA0009B80C15DD0406482758286829782CB50CF
:101FB000DF4F688079808A809B80C55FD0406086D3
:101FC000718682869386CB52DF4F688079808A80C3
:101FD0009B80C55DD0406486758686869786C7528D
:101FE000DF4F688079808A809B80C95DD040608A9D
:101FF000718A828A938AC352DF4F688079808A808F
:102000009B80CD5DD040648A758A868A978ACF513D
:10201000DF4F688079808A809B80C15ED040608E6F
:10202000718E828E938ECB51DF4F688079808A804B
:102030009B80C55ED040648E758E868E978EC7510C
:10204000DF4F688079808A809B80C95ED04060A223
:1020500071A282A293A2C351DF4F688079808A80E7
:102060009B80CD5ED04064A275A286A297A2CF507D
:10207000DF4F688079808A809B80C15FD04060A6F6
:1020800071A682A693A6C750DF4F688079808A80A8
:102090009B80C95FD04064A675A686A697A6C0AAF5
:1020A000D1AAE2AAF3AA04AB15AB26AB37AB40AF7B
:1020B00051AF62AF73AF84AF95AFA6AFB7AFE05C7F
:1020C000FF4F2082318242825382CF52DF4F88807D
:1020D0009980AA80BB80C15DD04084829582A6820F
:1020E000B782CB50DF4F688079808A809B80C55F44
:1020F000D0406086718682869386CB52DF4F88807F
:102100009980AA80BB80C55DD04084869586A686CE
:10211000B786C752DF4F688079808A809B80C95D0F
:10212000D040608A718A828A938AC352DF4F888046
:102130009980AA80BB80CD5DD040848A958AA68A8A
:10214000B78ACF51DF4F688079808A809B80C15EDB
:10215000D040608E718E828E938ECB51DF4F8880FF
:102160009980AA80BB80C55ED040848E958EA68E55
:10217000B78EC751DF4F688079808A809B80C95EA7
:10218000D04060A271A282A293A2C351DF4F888087
:102190009980AA80BB80CD5ED04084A295A2A6A2E1
:1021A000B7A2CF50DF4F688079808A809B80C15F63
:1021B000D04060A671A682A693A6C750DF4F888044
:1021C0009980AA80BB80C95FD04084A695A6A6A6A8
:1021D000B7A6C0AAD1AAE2AAF3AA04AB15AB26AB54
:1021E00037AB40AF51AF62AF73AF84AF95AFA6AF1F
:1021F000B7AFC450DF4F0FB6F894DEBF0FBECDBFF0
:10220000DF91CF911F910F91FF90EF90DF90CF90D2
:10221000BF90AF909F908F907F906F905F904F9006
:102220003F902F9008951F920F920FB60F92112496
:102230002F933F938F939F93AF93BF938091B81F3A
:102240009091B91FA091BA1FB091BB1F3091B71FD9
:1022500023E0230F2D3758F50196A11DB11D2093C2
:10226000B71F8093B81F9093B91FA093BA1FB09364
:10227000BB1F8091B31F9091B41FA091B51FB09167
:10228000B61F0196A11DB11D8093B31F9093B41F7B
:10229000A093B51FB093B61FBF91AF919F918F913F
:1022A0003F912F910F900FBE0F901F90189526E829
:1022B000230F0296A11DB11DD2CF1F920F920FB610
:1022C0000F9211240BB60F922F933F934F935F936E
:1022D0006F937F938F939F93AF93BF93EF93FF93EE
:1022E00048E251E064E271E090E080E00E949C02EC
:1022F000FF91EF91BF91AF919F918F917F916F91DE
:102300005F914F913F912F910F900BBE0F900FBE99
:102310000F901F9018951F920F920FB60F921124D5
:102320000BB60F922F933F934F935F936F937F93CF
:102330008F939F93AF93BF93EF93FF9348EA50E03F
:1023400064EA70E083E090E00E949C02FF91EF91CC
:10235000BF91AF919F918F917F916F915F914F91BD
:102360003F912F910F900BBE0F900FBE0F901F90BB
:1023700018951F920F920FB60F9211240BB60F9261
:102380002F933F934F935F936F937F938F939F937D
:10239000AF93BF93EF93FF9348E950E064E970E097
:1023A00082E090E00E949C02FF91EF91BF91AF917B
:1023B0009F918F917F916F915F914F913F912F915D
:1023C0000F900BBE0F900FBE0F901F9018951F928D
:1023D0000F920FB60F9211240BB60F922F933F93CB
:1023E0004F935F936F937F938F939F93AF93BF931D
:1023F000EF93FF9348E850E064E870E081E090E0FC
:102400000E949C02FF91EF91BF91AF919F918F919C
:102410007F916F915F914F913F912F910F900BBEE4
:102420000F900FBE0F901F901895CF93DF93EC0184
:1024300084E092E099838883CE01C2960E943105A0
:10244000CE018E589F4F0E943105CE018E549F4F72
:102450000E943105FE01EE50FF4F11821082CC50D8
:10246000DF4F19821882DF91CF910895CF93DF93C8
:10247000EC010E94151284E092E099838883909188
:102480001402C650DF4F9033A8F481E0890F809387
:1024900014029883892F90E0FC01EE0FFF1FE80FD4
:1024A000F91FE454F04E88EB9BE092838183DF9127
:1024B000CF9108958FEF8883FACF789484B58260A6
:1024C00084BD84B5816084BD85B5826085BD85B5D8
:1024D000816085BD80916E00816080936E00109256
:1024E00081008091810082608093810080918100D1
:1024F0008160809381008091800081608093800062
:102500008091B10084608093B1008091B0008160BF
:102510008093B000809191008260809391008091BF
:102520009100816080939100809190008160809300
:1025300090008091A10082608093A1008091A10011
:1025400081608093A1008091A00081608093A000B1
:10255000809121018260809321018091210181601D
:1025600080932101809120018160809320018091DE
:102570007A00846080937A0080917A0082608093F0
:102580007A0080917A00816080937A0080917A004D
:10259000806880937A001092C10024E030E043E02C
:1025A00050E062E070E089E192E00E94840427E05C
:1025B00030E046E050E065E070E088E097E00E949F
:1025C00084042AE030E049E050E068E070E087EF02
:1025D0009BE00E94840422E230E041E250E060E2AD
:1025E00070E086EE90E10E94840425E230E044E24F
:1025F00050E063E270E085ED95E10E94840428E2FA
:1026000030E047E250E066E270E084EC9AE10E943C
:102610008404D0E0C0E047E856E169EC7FE3CE01F6
:10262000815F9C4F0E94A30440E050E060E070E4B2
:10263000CE01845F9B4F0E94A30440E050E060E025
:1026400070E4CE01875F9A4F0E94A304C151DB4F13
:10265000CA398DE1D807F9F6C0E0D0E02097F1F350
:102660000E940000FBCF0F931F93CF93DF93C9E12C
:10267000D2E004E012E0CE010E9415121983088313
:10268000CE018A509F4F0E943612CE018D509E4F30
:102690000E943612CE0180519D4F0E943612CE010B
:1026A00083519C4F0E941512C151DB4F8FE1C33BF8
:1026B000D80709F7DF91CF911F910F910895052E4B
:1026C00097FB1EF400940E94761357FD07D00E94DA
:1026D000911307FC03D04EF40C947613509540955B
:1026E000309521953F4F4F4F5F4F089590958095BE
:1026F000709561957F4F8F4F9F4F08950E94B31340
:10270000A59F900DB49F900DA49F800D911D112445
:102710000895B7FF0C947E130E947E13821B930BC7
:102720000895A1E21A2EAA1BBB1BFD010DC0AA1F12
:10273000BB1FEE1FFF1FA217B307E407F50720F02A
:10274000A21BB30BE40BF50B661F771F881F991FA5
:102750001A9469F760957095809590959B01AC01EE
:10276000BD01CF010895A29FB001B39FC001A39FF7
:10277000700D811D1124911DB29F700D811D1124BA
:10278000911D08955058BB27AA270E94DA130C9474
:10279000AC140E94731438F00E947A1420F039F4BB
:1027A0009F3F19F426F40C9470140EF4E095E7FBA7
:1027B0000C946A14E92F0E94D11458F3BA176207D7
:1027C00073078407950720F079F4A6F50C94F314A9
:1027D0000EF4E0950B2EBA2FA02D0B01B90190013C
:1027E0000C01CA01A0011124FF27591B99F0593F80
:1027F00050F4503E68F11A16F040A22F232F342FC8
:102800004427585FF3CF469537952795A795F04015
:102810005395C9F77EF41F16BA0B620B730B840B2A
:10282000BAF09150A1F0FF0FBB1F661F771F881FE2
:10283000C2F70EC0BA0F621F731F841F48F487953A
:1028400077956795B795F7959E3F08F0B0CF93952C
:10285000880F08F09927EE0F9795879508950E94A5
:102860008314E3950C94BD140E943B146894B11139
:102870000C94F41408950E94D91488F09F5798F08E
:10288000B92F9927B751B0F0E1F0660F771F881F75
:10289000991F1AF0BA95C9F714C0B13091F00E948F
:1028A000F314B1E008950C94F314672F782F882760
:1028B000B85F39F0B93FCCF3869577956795B395B6
:1028C000D9F73EF490958095709561957F4F8F4F25
:1028D0009F4F089597F99F6780E870E060E0089542
:1028E0009FEF80EC089500240A9416161706180628
:1028F0000906089500240A94121613061406050604
:1029000008950C9470140E94D914D8F3E894E0E070
:10291000BB279F57F0F02AED3FE049EC06C0EE0FD1
:10292000BB0F661F771F881F28F0B23A6207730734
:10293000840728F0B25A620B730B840BE3959A95C7
:1029400072F7803830F49A95BB0F661F771F881F87
:10295000D2F790480C947115092E0394000C11F4D1
:10296000882352F0BB0F40F4BF2B11F460FF04C06A
:102970006F5F7F4F8F4F9F4F0895EF93E0FF07C02A
:10298000A2EA2AED3FE049EC5FEB0E94DA130E94D5
:10299000AC140F90039401FC9058E4EEF0E00C941A
:1029A0007D1557FD9058440F551F59F05F3F71F04A
:1029B0004795880F97FB991F61F09F3F79F08795A6
:1029C0000895121613061406551FF2CF4695F1DF2F
:1029D00008C0161617061806991FF1CF86957105BF
:1029E000610508940895E894BB2766277727CB01F3
:1029F00097F908950E940D150C94AC140E9473145D
:102A000038F00E947A1420F0952311F00C946A1487
:102A10000C94701411240C94F4140E94D11470F3CB
:102A2000959FC1F3950F50E0551F629FF001729F73
:102A3000BB27F00DB11D639FAA27F00DB11DAA1F82
:102A4000649F6627B00DA11D661F829F2227B00DCF
:102A5000A11D621F739FB00DA11D621F839FA00D5A
:102A6000611D221F749F3327A00D611D231F849FAA
:102A7000600D211D822F762F6A2F11249F57504001
:102A80009AF0F1F088234AF0EE0FFF1FBB1F661F7C
:102A9000771F881F91505040A9F79E3F510580F045
:102AA0000C946A140C94F4145F3FE4F3983ED4F34E
:102AB000869577956795B795F795E7959F5FC1F7E9
:102AC000FE2B880F911D9695879597F908959F93F2
:102AD0000E9483140F9007FCEE5F0C94BD149F3F7F
:102AE00031F0915020F4879577956795B795880FC9
:102AF000911D9695879597F908959F938F937F934E
:102B00006F93FF93EF939B01AC010E94FA14EF9136
:102B1000FF910E9491152F913F914F915F910C94DD
:102B2000FA14DF93CF931F930F93FF92EF92DF92EC
:102B30007B018C01689406C0DA2EEF010E940D150E
:102B4000FE01E894A5912591359145915591A6F303
:102B5000EF010E94DA13FE019701A801DA9469F7E8
:102B6000DF90EF90FF900F911F91CF91DF9108952B
:102B7000991B79E004C0991F961708F0961B881FCF
:102B80007A95C9F780950895EE0FFF1F881F8BBFB8
:102B90000790F691E02D1994F894FFCF0000000003
:102BA0005A0E4404FD03D20DD4033C0BAB03560371
:10E000000D9489F10D94B2F10D94B2F10D94B2F129
:10E010000D94B2F10D94B2F10D94B2F10D94B2F1F0
:10E020000D94B2F10D94B2F10D94B2F10D94B2F1E0
:10E030000D94B2F10D94B2F10D94B2F10D94B2F1D0
:10E040000D94B2F10D94B2F10D94B2F10D94B2F1C0
:10E050000D94B2F10D94B2F10D94B2F10D94B2F1B0
:10E060000D94B2F10D94B2F10D94B2F10D94B2F1A0
:10E070000D94B2F10D94B2F10D94B2F10D94B2F190
:10E080000D94B2F10D94B2F10D94B2F10D94B2F180
:10E090000D94B2F10D94B2F10D94B2F10D94B2F170
:10E0A0000D94B2F10D94B2F10D94B2F10D94B2F160
:10E0B0000D94B2F10D94B2F10D94B2F10D94B2F150
:10E0C0000D94B2F10D94B2F10D94B2F10D94B2F140
:10E0D0000D94B2F10D94B2F10D94B2F10D94B2F130
:10E0E0000D94B2F141546D656761323536300041AF
:10E0F000726475696E6F206578706C6F72657220DE
:10E1000073746B3530305632206279204D4C530099
:10E11000426F6F746C6F616465723E004875683F52
:10E1200000436F6D70696C6564206F6E203D200048
:10E130004350552054797065202020203D20005FF9
:10E140005F4156525F415243485F5F3D2000415658
:10E1500052204C696243205665723D20004743437C
:10E160002056657273696F6E203D20004350552024
:10E1700049442020202020203D20004C6F7720663D
:10E18000757365202020203D20004869676820665F
:10E190007573652020203D200045787420667573D6
:10E1A00065202020203D20004C6F636B2066757336
:10E1B000652020203D20004D617220203720323024
:10E1C000313300312E362E3800342E332E350056A2
:10E1D00023202020414444522020206F7020636F70
:10E1E00064652020202020696E73747275637469E1
:10E1F0006F6E2061646472202020496E74657272B3
:10E20000757074006E6F20766563746F7200726A49
:10E210006D702020006A6D70200057686174207056
:10E220006F72743A00506F7274206E6F7420737541
:10E2300070706F72746564004D7573742062652030
:10E2400061206C6574746572002000577269747483
:10E25000696E672045450052656164696E672045B7
:10E26000450045452065727220636E743D00504F35
:10E27000525400303D5A65726F2061646472003FF1
:10E280003D43505520737461747300403D454550C3
:10E29000524F4D207465737400423D426C696E6B41
:10E2A000204C454400453D44756D70204545505215
:10E2B0004F4D00463D44756D7020464C415348001B
:10E2C000483D48656C70004C3D4C69737420492F83
:10E2D0004F20506F72747300513D51756974005234
:10E2E0003D44756D702052414D00563D73686F7707
:10E2F00020696E7465727275707420566563746FF0
:10E30000727300593D506F727420626C696E6B00BD
:10E310002A0011241FBECFEFD1E2DEBFCDBF01E046
:10E320000CBF12E0A0E0B2E0EEE1FDEF03E00BBFB6
:10E3300002C007900D92A030B107D9F712E0A0E01B
:10E34000B2E001C01D92AE30B107E1F70F9460F367
:10E350000D948DFE01E20EBF0FEF0DBF11241FBE05
:10E360000D9460F30D9400F020E030E040ED57E0B4
:10E3700005C0FA013197F1F72F5F3F4F2817390792
:10E38000C0F308959C01260F311DC901A0E0B0E043
:10E390002F5F3F4FABBFFC018791882361F08093D3
:10E3A000C6008091C00086FFFCCF8091C0008064D1
:10E3B0008093C000EACF08958DE08093C6008091DD
:10E3C000C00086FFFCCF8091C00080648093C000B5
:10E3D0008AE08093C6008091C00086FFFCCF8091C8
:10E3E000C00080648093C00008950F94C2F10F9420
:10E3F000DCF10895FC019081992359F09093C600B7
:10E400008091C00086FFFCCF8091C0008064809323
:10E41000C0003196992379F70895282F982F929567
:10E420009F70892F805D8A3308F0895F8093C600D2
:10E430008091C00086FFFCCF8091C00080648093F3
:10E44000C000822F8F70982F905D9A3308F0995FEB
:10E450009093C6008091C00086FFFCCF8091C000E1
:10E4600080648093C00008959C01FB01853691056E
:10E470001CF46330710594F0C90164E670E00F94F8
:10E480002EFE605D7F4F6093C6008091C00086FFC6
:10E49000FCCF8091C00080648093C0002B30310598
:10E4A00014F43297B4F0C90164E670E00F942EFEC4
:10E4B0006AE070E00F942EFE605D7F4F6093C600AF
:10E4C0008091C00086FFFCCF8091C0008064809363
:10E4D000C000C9016AE070E00F942EFEC0968093E0
:10E4E000C6008091C00086FFFCCF8091C000806490
:10E4F0008093C00008951F93182F8EE692EE60E07F
:10E500000F94C2F11093C6008091C00086FFFCCF2B
:10E510008091C00080648093C0000F94DCF11F9153
:10E5200008952F923F924F925F926F927F928F92B7
:10E530009F92AF92BF92CF92DF92EF92FF920F9392
:10E540001F93DF93CF93CDB7DEB762970FB6F894E2
:10E55000DEBF0FBECDBF382E622ECA01DB015C01CB
:10E560006D01772420E2222E2E010894411C511CBB
:10E570008BC081E0A81680E0B80681E0C80680E084
:10E58000D80628F0C601AA27BB270F940DF2BB2797
:10E59000AD2D9C2D8B2D0F940DF28A2D0F940DF225
:10E5A0002092C6008091C00086FFFCCF8091C00001
:10E5B00080648093C0009DE29093C6008091C0006B
:10E5C00086FFFCCF8091C00080648093C0002092C1
:10E5D000C6008091C00086FFFCCF8091C00080649F
:10E5E0008093C00019828601750188249924A1E0D6
:10E5F0003A1651F03A1620F0B2E03B1661F409C029
:10E600000BBFF701779007C0C7010F9477FE782EF4
:10E6100002C0F7017080872D0F940DF22092C60082
:10E620008091C00086FFFCCF8091C0008064809301
:10E63000C000872D8052F401EF70F0708F3520F408
:10E64000E40DF51D708204C0E40DF51D8EE280839B
:10E650000894E11CF11C011D111D0894811C911CE2
:10E6600090E18916910409F0C2CF80E190E0A0E02A
:10E67000B0E0A80EB91ECA1EDB1E198AC2010F9493
:10E68000FAF10F94DCF16A94662009F072CF629679
:10E690000FB6F894DEBF0FBECDBFCF91DF911F91B3
:10E6A0000F91FF90EF90DF90CF90BF90AF909F9031
:10E6B0008F907F906F905F904F903F902F90089534
:10E6C0002F923F924F925F926F927F928F929F9282
:10E6D000AF92BF92CF92DF92EF92FF920F931F9370
:10E6E000DF93CF93CDB7DEB7CD53D1400FB6F894BB
:10E6F000DEBF0FBECDBF01E20EBF0FEF0DBF94B75F
:10E70000F894A89514BE80916000886180936000A1
:10E7100010926000789493FF05C0E0910002F091A0
:10E7200001021995279A2F9A8091C00082608093E8
:10E73000C00080E18093C40088E18093C1000000A4
:10E74000EE24FF24870144E0A42EB12CCC24DD2448
:10E7500024C0C5010197F1F70894E11CF11C011DCB
:10E76000111D21E2E2162EE4F20620E0020720E06D
:10E77000120718F031E0C32ED12CC801B70127ECE5
:10E780003BE140E050E00F9441FE611571058105C9
:10E79000910519F485B1805885B98091C00087FD35
:10E7A00003C0C114D104A9F2A6014F5F5F4FC25E3E
:10E7B000DE4F59834883CE51D140C25EDE4F8881FF
:10E7C0009981CE51D140019711F00D9410FEC05D9A
:10E7D000DE4F19821882C053D14060E0C15DDE4F28
:10E7E0001882CF52D14088249924C35DDE4F19820C
:10E7F0001882CD52D140C05EDE4F188219821A8233
:10E800001B82C052D140CE5CDE4F188219821A8220
:10E810001B82C253D140EE24FF2487010BBFF701B6
:10E8200007911691C45CDE4F19830883CC53D14005
:10E830000D940BFEC25EDE4F28813981CE51D1404E
:10E840002130310509F52091C600C25EDE4F1982E4
:10E850001882CE51D14022C02F5F3F4F4F4F5F4FA4
:10E86000213082E138078AE7480780E0580780F0C6
:10E87000C45CDE4FE881F981CC53D140EF5FFF4F9C
:10E8800019F0EE27FF27099420E030E040E050E047
:10E890008091C00087FFE0CF2091C600C35DDE4FAE
:10E8A00048815981CD52D1404F5F5F4FC35DDE4FEC
:10E8B00059834883CD52D140213209F063C64A3092
:10E8C000510508F05FC60894811C911C53E0851621
:10E8D000910409F059C600E010E018C081E280936D
:10E8E000C6008091C00086FFFCCF8091C00080648C
:10E8F0008093C0002F5F3F4F2931310579F70F9486
:10E90000DCF10F5F1F4F0530110519F020E030E0FA
:10E91000E5CF10920A0210920B0210920C02109294
:10E920000D02109206021092070210920802109235
:10E930000902109202021092030210920402109235
:10E9400005028FEE90EE60E00F94F5F180E191EE1C
:10E9500060E00F94C2F18091C00087FFFCCF9091DE
:10E96000C600903608F09F759032B8F09093C600BC
:10E970008091C00086FFFCCF8091C00080648093AE
:10E98000C000A0E2A093C6008091C00086FFFCCF2B
:10E990008091C00080648093C000983409F4D7C18E
:10E9A0009934B8F4923409F459C1933458F490333B
:10E9B00019F1903308F4E3C59F33A1F1903409F0C5
:10E9C000DEC5BDC0953409F470C1963409F0D7C5D1
:10E9D00098C1923509F42BC2933538F49C3409F46C
:10E9E000F5C1913509F0CBC518C2963509F445C279
:10E9F000993509F0C4C567C483E792EE62E00F94CD
:10EA0000F5F110920602109207021092080210927D
:10EA1000090210920A0210920B0210920C0210923C
:10EA20000D0213C18FE792EE62E00F94F5F18FEEC5
:10EA300090EE60E00F94F5F181E291EE60E00F94CA
:10EA4000C2F187EB91EE60E00F94F5F180E391EE77
:10EA500060E00F94C2F184EE90EE60E00F94F5F167
:10EA60008FE391EE60E00F94C2F186E090E061E008
:10EA700070E00F9434F20F94DCF18DE591EE60E0DC
:10EA80000F94C2F189EC91EE60E00F94F5F18EE401
:10EA900091EE60E00F94C2F183EC91EE60E00F9490
:10EAA000F5F18CE691EE60E00F94C2F18EE10F94E7
:10EAB0000DF288E90F940DF281E00F940DF20F949E
:10EAC000DCF18BE791EE60E00F94C2F119E0E0E039
:10EAD000F0E010935700E4918E2F0F940DF20F94F5
:10EAE000DCF18AE891EE60E00F94C2F1E3E0F0E03F
:10EAF00010935700E4918E2F0F940DF20F94DCF1D8
:10EB000089E991EE60E00F94C2F1E2E0F0E0109349
:10EB10005700E4918E2F0F940DF20F94DCF188EAE8
:10EB200091EE60E00F94C2F1E1E0F0E01093570045
:10EB30001491812F0F940DF20F94DCF107CF8BE825
:10EB400092EE62E00F94F5F18BE492EE60E00F94A8
:10EB5000F5F10F94DCF100E010E019C0C8016F2D51
:10EB60000F947FFEFF2031F489E492EE60E00F9471
:10EB7000C2F10BC0F092C6008091C00086FFFCCFAE
:10EB80008091C00080648093C0000F5F1F4FC80158
:10EB900081519F41A0E0B0E0ABBFFC01F790BAE229
:10EBA000FB1621F0E2E000301E07C1F60F94DCF105
:10EBB0000F94DCF187E592EE60E00F94F5F10F948D
:10EBC000DCF1CC24DD2400E010E01EC0C8010F946D
:10EBD00077FEF82E882331F489E492EE60E00F94FA
:10EBE000C2F10BC08093C6008091C00086FFFCCFAD
:10EBF0008091C00080648093C000FE1419F00894D6
:10EC0000C11CD11C0F5F1F4FC80181519F41A0E063
:10EC1000B0E0ABBFFC01E790FAE2EF1621F022E092
:10EC20000030120799F60F94DCF10F94DCF182E6C4
:10EC300092EE60E00F94C2F1C60161E070E00F94C3
:10EC400034F20F94DCF10F94DCF110920202109276
:10EC50000302109204021092050278CE89E992EE26
:10EC600062E00F94F5F1279A2F9A16C02F9880E052
:10EC700090E0E0EDF7E03197F1F7019684369105E9
:10EC8000C1F72F9A80E090E0E0EDF7E03197F1F7DF
:10EC9000019684369105C1F78091C00087FFE6CFC9
:10ECA0008091C00087FFFCCF64C485EA92EE62E0E9
:10ECB0000F94F5F140910202509103026091040219
:10ECC0007091050281E020E10F9491F2809102029F
:10ECD00090910302A0910402B091050280509F4FD1
:10ECE000AF4FBF4F8093020290930302A0930402A0
:10ECF000B093050280509041A040B04008F426CE69
:10ED0000A4CF83EB92EE62E00F94F5F140910602FE
:10ED100050910702609108027091090280E020E1A1
:10ED20000F9491F28091060290910702A09108023F
:10ED3000B091090280509F4FAF4FBF4F80930602A2
:10ED400090930702A0930802B0930902FFCD80ECD4
:10ED500092EE62E00F94F5F183E792EE60E00F949B
:10ED6000F5F18FE792EE60E00F94F5F18BE892EE0B
:10ED700060E00F94F5F189E992EE60E00F94F5F10F
:10ED800085EA92EE60E00F94F5F183EB92EE60E09D
:10ED90000F94F5F180EC92EE60E00F94F5F187ECC2
:10EDA00092EE60E00F94F5F188ED92EE60E00F9442
:10EDB000F5F18FED92EE60E00F94F5F18AEE92EEB0
:10EDC00060E00F94F5F183E093EEBDCD87EC92EE19
:10EDD00062E00F94F5F181E40F947BF282E40F94EA
:10EDE0007BF283E40F947BF284E40F947BF285E45E
:10EDF0000F947BF286E40F947BF287E40F947BF20E
:10EE000088E40F947BF28AE40F947BF28BE40F94F6
:10EE10007BF28CE40F947BF299CD88ED92EE62E068
:10EE20000F94F5F1772473948824992409C48FED05
:10EE300092EE62E00F94F5F140910A0250910B02BC
:10EE400060910C0270910D0282E020E10F9491F22A
:10EE500080910A0290910B02A0910C02B0910D02D8
:10EE600080509F4FAF4FBF4F80930A0290930B0289
:10EE7000A0930C02B0930D0269CD8AEE92EE62E08F
:10EE80000F94F5F184EE90EE60E00F94F5F18FECC5
:10EE900091EE60E00F94F5F1662477244301CC5D98
:10EEA000DE4F19821882C452D140D401C301B695F5
:10EEB000A79597958795CA5DDE4F88839983AA8326
:10EEC000BB83C652D140CC5DDE4FA881B981C4520C
:10EED000D1401196CC5DDE4FB983A883C452D14096
:10EEE000CD0162E070E00F9434F2B0E2B093C6005E
:10EEF0008091C00086FFFCCF8091C0008064809329
:10EF0000C000EDE2E093C6008091C00086FFFCCF18
:10EF10008091C00080648093C000F0E2F093C6004E
:10EF20008091C00086FFFCCF8091C00080648093F8
:10EF3000C000CA5DDE4FE880F9800A811B81C6529D
:10EF4000D140BB27A12F902F8F2D0F940DF2CA5DBA
:10EF5000DE4F8881C652D1400F940DF2B0E2FB2EF5
:10EF6000F092C6008091C00086FFFCCF8091C00067
:10EF700080648093C0000DE30093C6008091C000C0
:10EF800086FFFCCF8091C00080648093C00010E2B7
:10EF90001093C6008091C00086FFFCCF8091C00016
:10EFA00080648093C0008BBEF3012791C65DDE4F65
:10EFB0002883CA52D140A22EBB24CC24DD2408943D
:10EFC000611C711C811C911C8BBEF3018791282E42
:10EFD0003324442455240894611C711C811C911C09
:10EFE0008BBEF3013791C55DDE4F3883CB52D140E4
:10EFF0000894611C711C811C911C8BBEF30147910C
:10F00000C45DDE4F4883CC52D140ADEFEA2EAFEF66
:10F01000FA2EAFEF0A2FAFEF1A2F6E0C7F1C801E57
:10F02000911E142D032DF22CEE24EA0CFB1C0C1D5A
:10F030001D1D0F940DF220E22093C6008091C000A8
:10F0400086FFFCCF8091C00080648093C000C65DC5
:10F05000DE4F8881CA52D1400F940DF230E23093D6
:10F06000C6008091C00086FFFCCF8091C000806404
:10F070008093C000C45DDE4F8881CC52D1400F9494
:10F080000DF240E24093C6008091C00086FFFCCFA5
:10F090008091C00080648093C000C55DDE4F888190
:10F0A000CB52D1400F940DF250E25093C6008091A4
:10F0B000C00086FFFCCF8091C00080648093C000B8
:10F0C0008FEFE8168FEFF80680E0080780E018075A
:10F0D00031F484E092EE60E00F94C2F1DFC0D80119
:10F0E000C7018070907CA070B0708050904CA040A0
:10F0F000B040D1F52FEF3FE340E050E0E222F322B1
:10F1000004231523CA5DDE4FA880B980CA80DB8046
:10F11000C652D140AE0CBF1CC01ED11EAA0CBB1CD7
:10F12000CC1CDD1C8EE092EE60E00F94C2F1BB2798
:10F13000A12F902F8F2D0F940DF28E2D0F940DF285
:10F1400030E23093C6008091C00086FFFCCF8091F2
:10F15000C00080648093C0004EE34093C60080915D
:10F16000C00086FFFCCF87C08EE09EEFA0E0B0E03D
:10F17000E822F9220A231B239CE0E91694E9F90608
:10F1800090E0090790E0190709F088C0C45DDE4FE0
:10F19000A881CC52D140EA2EFF2400E010E0102FCD
:10F1A0000F2DFE2CEE24C55DDE4FB881CB52D14031
:10F1B000EB0EF11C011D111DD601C501817090706F
:10F1C000A070B070DC0199278827E80EF91E0A1F8D
:10F1D0001B1F20EF30E040E050E0A222B322C42207
:10F1E000D52241E1AA0CBB1CCC1CDD1C4A95D1F7F1
:10F1F000EA0CFB1C0C1D1D1D81E090E0A0E0B0E0BE
:10F20000282239224A225B2235E1220C331C441C7D
:10F21000551C3A95D1F7E20CF31C041D151D57013E
:10F220006801AA0CBB1CCC1CDD1C85E192EE60E0E1
:10F230000F94C2F1C801AA27BB270F940DF2BB2778
:10F24000A12F902F8F2D0F940DF28E2D0F940DF274
:10F2500090E29093C6008091C00086FFFCCF809121
:10F26000C00080648093C000AEE3A093C60080918C
:10F27000C00086FFFCCF8091C00080648093C000F6
:10F28000C601AA27BB270F940DF2BB27AD2D9C2DDD
:10F290008B2D0F940DF28A2D0F940DF20F94DCF14B
:10F2A000CC5DDE4FE881F981C452D140F99709F471
:10F2B0004DCBF4E0EF2EF12C012D112D6E0C7F1CA7
:10F2C000801E911EF2CD83E093EE62E00F94F5F183
:10F2D0008AE192EE60E00F94C2F18091C00087FF56
:10F2E000FCCF1091C6001F751093C6008091C0001E
:10F2F00086FFFCCF8091C00080648093C0000F9493
:10F30000DCF1812F81548A3108F036C1163409F4BA
:10F3100095C0173490F4133409F44EC0143430F40B
:10F320001134F1F0123409F01DC130C0143409F465
:10F3300059C0153409F016C16BC01A3409F4C4C0A1
:10F340001B3438F4173409F48FC0183409F00AC19B
:10F35000A1C01B3409F4D2C01C3409F003C1E8C0B9
:10F360008FEF81B90DC082B1809582B980E090E0C5
:10F37000E0EDF7E03197F1F70196883C9105C1F790
:10F380008091C00087FFEFCF12B8EFC08FEF84B934
:10F390000DC085B1809585B980E090E0E0EDF7E0A3
:10F3A0003197F1F70196883C9105C1F78091C00033
:10F3B00087FFEFCF15B8D9C08FEF87B90DC088B1DF
:10F3C000809588B980E090E0E0EDF7E03197F1F7C3
:10F3D0000196883C9105C1F78091C00087FFEFCF6F
:10F3E00018B8C3C08FEF8AB90DC08BB180958BB9A7
:10F3F00080E090E0E0EDF7E03197F1F70196883C8E
:10F400009105C1F78091C00087FFEFCF1BB8ADC059
:10F410008FEF8DB90DC08EB180958EB980E090E0F0
:10F42000E0EDF7E03197F1F70196883C9105C1F7DF
:10F430008091C00087FFEFCF1EB897C08FEF80BBD1
:10F440000DC081B3809581BB80E090E0E0EDF7E0F6
:10F450003197F1F70196883C9105C1F78091C00082
:10F4600087FFEFCF11BA81C08FEF83BB0DC084B38C
:10F47000809584BB80E090E0E0EDF7E03197F1F714
:10F480000196883C9105C1F78091C00087FFEFCFBE
:10F4900014BA6BC08FEF809301010FC080910201FD
:10F4A00080958093020180E090E0E0EDF7E03197F5
:10F4B000F1F70196883C9105C1F78091C00087FF64
:10F4C000EDCF1092020151C08FEF809304010FC065
:10F4D0008091050180958093050180E090E0E0ED4A
:10F4E000F7E03197F1F70196883C9105C1F78091DB
:10F4F000C00087FFEDCF1092050137C08FEF8093DA
:10F5000007010FC08091080180958093080180E079
:10F5100090E0E0EDF7E03197F1F70196883C910536
:10F52000C1F78091C00087FFEDCF109208011DC088
:10F530008FEF80930A010FC080910B01809580931B
:10F540000B0180E090E0E0EDF7E03197F1F70196F4
:10F55000883C9105C1F78091C00087FFEDCF1092E4
:10F560000B0103C085E292EEEEC98091C00087FFD7
:10F57000FCCF8091C600EAC988E392EEE4C98CE131
:10F5800091EEE1C988249924933011F1943028F444
:10F59000913089F09230B8F408C0953061F195301F
:10F5A000F0F0963009F048C043C02B3109F042C951
:10F5B00091E06BE13FC96227C15DDE4F2883CF52E6
:10F5C000D14092E037C9B22FA0E0622793E032C960
:10F5D000822F90E0A82BB92B622794E02BC92E3004
:10F5E00009F039C3622795E0C05DDE4F19821882A9
:10F5F000C053D1401FC9E1E0F0E0EC0FFD1FC05D3A
:10F60000DE4F08811981C053D140E00FF11F2083E4
:10F610000F5F1F4FC05DDE4F19830883C053D14079
:10F6200062270A171B0709F005C9D80196E002C92D
:10F63000261709F010C303C0973009F0FBC87724E0
:10F640009981933109F412C19431C8F4963009F4C8
:10F65000D8C0973050F4923009F406C1933009F4C1
:10F660006DC0913009F059C253C0913109F477C08F
:10F67000923108F0BBC0903109F04FC2F5C098310B
:10F6800009F487C0993150F4953109F4EFC09531F0
:10F6900008F4C6C1963109F040C2C2C19A3109F4DA
:10F6A0006CC09A3108F491C09B3109F45BC09D3164
:10F6B00009F033C29D81903359F48F81882311F46E
:10F6C0009EE11CC0813011F091E018C098E916C08D
:10F6D000892F807591F0903539F4E0E0F0E089E011
:10F6E0008093570094910AC0983539F4E3E0F0E034
:10F6F00089E080935700949101C090E01A821B82A8
:10F700008D818C831D829E831F8227E030E009C299
:10F710001A8288E08B8381E48C8386E58D8382E581
:10F720008E8389E48F8383E5888780E589878FE5E9
:10F730008A8782E38B872BE030E0F3C18A818139AD
:10F7400041F0823941F0803911F48FE005C080E04A
:10F7500003C082E001C08AE01A828B8344C0772410
:10F76000739482C08D81882311F48EE12CC0813086
:10F7700011F081E028C088E926C01A82E1E0F0E0BB
:10F7800089E08093570084918B831C8224E030E0D1
:10F79000C8C18B81803589F48C81883039F4E2E0EE
:10F7A000F0E089E08093570084910DC0E0E0F0E044
:10F7B00089E080935700849106C0E3E0F0E089E09F
:10F7C0008093570084911A82DFCF8D81836C99E0FA
:10F7D000E1E0F0E0082E90935700E89507B600FCB2
:10F7E000FDCF1A821B8223E030E09BC180EC8A832C
:10F7F000CE5CDE4F188219821A821B82C253D1401E
:10F800008EC18A8190E0A0E0B0E0582F44273327D2
:10F8100022278B8190E0A0E0B0E0DC0199278827C7
:10F82000282B392B4A2B5B2B8D8190E0A0E0B0E098
:10F83000282B392B4A2B5B2B8C8190E0A0E0B0E089
:10F84000BA2FA92F982F8827282B392B4A2B5B2BCF
:10F85000220F331F441F551FC05EDE4F288339839C
:10F860004A835B83C052D1401A8259C13A81C95C34
:10F87000DE4F3883C753D140CA5CDE4F1882C6536F
:10F88000D1408B81C82EDD24CA5CDE4F488159816E
:10F89000C653D140C42AD52A933109F082C0CE5C28
:10F8A000DE4F88819981AA81BB81C253D1408050AB
:10F8B000904CA340B04030F583E0CE5CDE4FE88052
:10F8C000F9800A811B81C253D140F70100935B008C
:10F8D00080935700E89507B600FCFDCFCE5CDE4F65
:10F8E000088119812A813B81C253D14000501F4FAA
:10F8F0002F4F3F4FCE5CDE4F088319832A833B8313
:10F90000C253D140C05EDE4F488159816A817B81FC
:10F91000C052D140DE011B9631E08C9111962C91A2
:10F9200011971296C75CDE4F2883C953D140C85C3B
:10F93000DE4F1882C853D14090E0C85CDE4FE881AA
:10F94000F981C853D1408E2B9F2B0C01FA01609393
:10F950005B0030935700E89511244E5F5F4F6F4F67
:10F960007F4F0EEFE02E0FEFF02ECE0CDF1CC114F8
:10F97000D10499F685E0C05EDE4F088119812A81A5
:10F980003B81C052D140F80120935B008093570027
:10F99000E89507B600FCFDCF81E180935700E8951C
:10F9A00035C0C05EDE4F88819981AA81BB81C0527B
:10F9B000D140B695A795979587957C018601ABE0D8
:10F9C000AA2EB12CAC0EBD1E0BC0D5016D915D01F0
:10F9D000C7010F947FFE0894E11CF11C01501040F8
:10F9E0000115110591F7A60160E070E0440F551F65
:10F9F000661F771FC05EDE4FE880F9800A811B8199
:10FA0000C052D1404E0D5F1D601F711F1A82C05E33
:10FA1000DE4F488359836A837B83C052D1407FC0C5
:10FA2000FA80C55CDE4FF882CB53D140C65CDE4F16
:10FA30001882CA53D1408B81C82EDD24C65CDE4FAC
:10FA400008811981CA53D140C02AD12A1A828981DA
:10FA5000BE016D5F7F4F843121F59601C05EDE4FA0
:10FA6000E880F9800A811B81C052D1400BBFF701A9
:10FA700087919691DB018C9311969C936E5F7F4FDB
:10FA8000D801C7010296A11DB11DC05EDE4F88835B
:10FA90009983AA83BB83C052D14022503040F1F6F3
:10FAA00036C0C05EDE4F288139814A815B81C052F9
:10FAB000D1400894C108D108760100E010E0089414
:10FAC000C11CD11C0894E11CF11C011D111DE20E8A
:10FAD000F31E041F151F21BDBB27A52F942F832FB5
:10FAE00082BD2F5F3F4F4F4F5F4FF89A80B5DB01CC
:10FAF0008D93BD012E153F054007510761F7C05E8C
:10FB0000DE4F288339834A835B83C052D1409601FC
:10FB10002D5F3F4FFB01108204C080EC8A8322E0FE
:10FB200030E08BE18093C6008091C00086FFFCCF5F
:10FB30008091C00080648093C000C15DDE4FF88179
:10FB4000CF52D140F093C6008091C00086FFFCCF19
:10FB50008091C00080648093C000432F3093C60022
:10FB60008091C00086FFFCCF8091C00080648093AC
:10FB7000C000922F2093C6008091C00086FFFCCF6A
:10FB80008091C00080648093C0008EE08093C600A6
:10FB90008091C00086FFFCCF8091C000806480937C
:10FBA000C00065E1C15DDE4FE880CF52D1406E25D7
:10FBB00069276427FE01319610C090819093C6009A
:10FBC0008091C00086FFFCCF31968091C000806498
:10FBD0008093C0006927215030402115310569F715
:10FBE0006093C6008091C00086FFFCCF8091C0006A
:10FBF00080648093C00085B1805885B9772081F4F6
:10FC0000C15DDE4F0881CF52D1400F5FC15DDE4F35
:10FC10000883CF52D14090E0A0E0B0E00D941AF4F8
:10FC200027982F9880E090E020ED37E0F901319798
:10FC3000F1F7019684369105C9F700008091C00064
:10FC40008D7F8093C00081E180935700E895EE2777
:10FC5000FF270994FFCF90E00D941AF497FB092E2B
:10FC600007260AD077FD04D02ED006D000201AF443
:10FC7000709561957F4F0895F6F7909581959F4F08
:10FC80000895A1E21A2EAA1BBB1BFD010DC0AA1FDD
:10FC9000BB1FEE1FFF1FA217B307E407F50720F0F5
:10FCA000A21BB30BE40BF50B661F771F881F991F70
:10FCB0001A9469F760957095809590959B01AC01B9
:10FCC000BD01CF010895AA1BBB1B51E107C0AA1FAC
:10FCD000BB1FA617B70710F0A61BB70B881F991FED
:10FCE0005A95A9F780959095BC01CD010895F99991
:10FCF000FECF92BD81BDF89A992780B50895262F31
:10FD0000F999FECF1FBA92BD81BD20BD0FB6F89400
:0EFD1000FA9AF99A0FBE01960895F894FFCF63
:00000001FF
